{
  "contractName": "CrowdsaleFactory",
  "abi": [
    {
      "inputs": [],
      "stateMutability": "nonpayable",
      "type": "constructor"
    },
    {
      "anonymous": false,
      "inputs": [
        {
          "indexed": true,
          "internalType": "address",
          "name": "previousOwner",
          "type": "address"
        },
        {
          "indexed": true,
          "internalType": "address",
          "name": "newOwner",
          "type": "address"
        }
      ],
      "name": "OwnershipTransferred",
      "type": "event"
    },
    {
      "anonymous": false,
      "inputs": [
        {
          "indexed": false,
          "internalType": "address",
          "name": "crowdsaleContract",
          "type": "address"
        }
      ],
      "name": "newCrowdSaleCreatedAt",
      "type": "event"
    },
    {
      "inputs": [],
      "name": "owner",
      "outputs": [
        {
          "internalType": "address",
          "name": "",
          "type": "address"
        }
      ],
      "stateMutability": "view",
      "type": "function"
    },
    {
      "inputs": [],
      "name": "renounceOwnership",
      "outputs": [],
      "stateMutability": "nonpayable",
      "type": "function"
    },
    {
      "inputs": [
        {
          "internalType": "address",
          "name": "newOwner",
          "type": "address"
        }
      ],
      "name": "transferOwnership",
      "outputs": [],
      "stateMutability": "nonpayable",
      "type": "function"
    },
    {
      "inputs": [
        {
          "internalType": "uint256",
          "name": "_rate",
          "type": "uint256"
        },
        {
          "internalType": "address",
          "name": "_wallet",
          "type": "address"
        },
        {
          "internalType": "contract ERC20",
          "name": "_token",
          "type": "address"
        }
      ],
      "name": "crateCrowdSale",
      "outputs": [],
      "stateMutability": "nonpayable",
      "type": "function"
    },
    {
      "inputs": [],
      "name": "getAllDeployedProjects",
      "outputs": [
        {
          "components": [
            {
              "internalType": "contract ERC20",
              "name": "token",
              "type": "address"
            },
            {
              "internalType": "uint256",
              "name": "rate",
              "type": "uint256"
            },
            {
              "internalType": "address",
              "name": "beneficiaryAddr",
              "type": "address"
            },
            {
              "internalType": "address",
              "name": "crowdsaleContractAddr",
              "type": "address"
            }
          ],
          "internalType": "struct CrowdsaleFactory.crowdsaleMeta[]",
          "name": "props",
          "type": "tuple[]"
        }
      ],
      "stateMutability": "view",
      "type": "function"
    }
  ],
  "bytecode": "0x608060405234801561001057600080fd5b5061002d61002261003260201b60201c565b61003a60201b60201c565b6100fe565b600033905090565b60008060009054906101000a900473ffffffffffffffffffffffffffffffffffffffff169050816000806101000a81548173ffffffffffffffffffffffffffffffffffffffff021916908373ffffffffffffffffffffffffffffffffffffffff1602179055508173ffffffffffffffffffffffffffffffffffffffff168173ffffffffffffffffffffffffffffffffffffffff167f8be0079c531659141344cd1fd0a4f28419497f9722a3daafe3b4186f6b6457e060405160405180910390a35050565b6116b58061010d6000396000f3fe60806040523480156200001157600080fd5b50600436106200005e5760003560e01c8063715018a614620000635780638da5cb5b146200006f578063d370bb141462000091578063f0e24a4014620000b1578063f2fde38b14620000d3575b600080fd5b6200006d620000f3565b005b620000796200010b565b60405162000088919062000746565b60405180910390f35b620000af6004803603810190620000a9919062000819565b62000134565b005b620000bb620002da565b604051620000ca919062000a1c565b60405180910390f35b620000f16004803603810190620000eb919062000a40565b620004ae565b005b620000fd62000538565b620001096000620005bd565b565b60008060009054906101000a900473ffffffffffffffffffffffffffffffffffffffff16905090565b6000600160008154809291906200014b9062000aa1565b9190505590506000600260008381526020019081526020016000209050828160000160006101000a81548173ffffffffffffffffffffffffffffffffffffffff021916908373ffffffffffffffffffffffffffffffffffffffff160217905550848160010181905550838160020160006101000a81548173ffffffffffffffffffffffffffffffffffffffff021916908373ffffffffffffffffffffffffffffffffffffffff160217905550848484604051620002089062000689565b620002169392919062000b10565b604051809103906000f08015801562000233573d6000803e3d6000fd5b508160030160006101000a81548173ffffffffffffffffffffffffffffffffffffffff021916908373ffffffffffffffffffffffffffffffffffffffff1602179055507f87bf7513da32df063aa08a31dcfc40284567075208515fcb6d35bbdcc47447368160030160009054906101000a900473ffffffffffffffffffffffffffffffffffffffff16604051620002cb919062000746565b60405180910390a15050505050565b606060015467ffffffffffffffff811115620002fb57620002fa62000b4d565b5b6040519080825280602002602001820160405280156200033857816020015b6200032462000697565b8152602001906001900390816200031a5790505b50905060005b600154811015620004aa57600260008281526020019081526020016000206040518060800160405290816000820160009054906101000a900473ffffffffffffffffffffffffffffffffffffffff1673ffffffffffffffffffffffffffffffffffffffff1673ffffffffffffffffffffffffffffffffffffffff168152602001600182015481526020016002820160009054906101000a900473ffffffffffffffffffffffffffffffffffffffff1673ffffffffffffffffffffffffffffffffffffffff1673ffffffffffffffffffffffffffffffffffffffff1681526020016003820160009054906101000a900473ffffffffffffffffffffffffffffffffffffffff1673ffffffffffffffffffffffffffffffffffffffff1673ffffffffffffffffffffffffffffffffffffffff168152505082828151811062000489576200048862000b7c565b5b60200260200101819052508080620004a19062000aa1565b9150506200033e565b5090565b620004b862000538565b600073ffffffffffffffffffffffffffffffffffffffff168173ffffffffffffffffffffffffffffffffffffffff16036200052a576040517f08c379a0000000000000000000000000000000000000000000000000000000008152600401620005219062000c32565b60405180910390fd5b6200053581620005bd565b50565b6200054262000681565b73ffffffffffffffffffffffffffffffffffffffff16620005626200010b565b73ffffffffffffffffffffffffffffffffffffffff1614620005bb576040517f08c379a0000000000000000000000000000000000000000000000000000000008152600401620005b29062000ca4565b60405180910390fd5b565b60008060009054906101000a900473ffffffffffffffffffffffffffffffffffffffff169050816000806101000a81548173ffffffffffffffffffffffffffffffffffffffff021916908373ffffffffffffffffffffffffffffffffffffffff1602179055508173ffffffffffffffffffffffffffffffffffffffff168173ffffffffffffffffffffffffffffffffffffffff167f8be0079c531659141344cd1fd0a4f28419497f9722a3daafe3b4186f6b6457e060405160405180910390a35050565b600033905090565b6109b98062000cc783390190565b6040518060800160405280600073ffffffffffffffffffffffffffffffffffffffff16815260200160008152602001600073ffffffffffffffffffffffffffffffffffffffff168152602001600073ffffffffffffffffffffffffffffffffffffffff1681525090565b600073ffffffffffffffffffffffffffffffffffffffff82169050919050565b60006200072e8262000701565b9050919050565b620007408162000721565b82525050565b60006020820190506200075d600083018462000735565b92915050565b600080fd5b6000819050919050565b6200077d8162000768565b81146200078957600080fd5b50565b6000813590506200079d8162000772565b92915050565b620007ae8162000721565b8114620007ba57600080fd5b50565b600081359050620007ce81620007a3565b92915050565b6000620007e18262000721565b9050919050565b620007f381620007d4565b8114620007ff57600080fd5b50565b6000813590506200081381620007e8565b92915050565b60008060006060848603121562000835576200083462000763565b5b600062000845868287016200078c565b93505060206200085886828701620007bd565b92505060406200086b8682870162000802565b9150509250925092565b600081519050919050565b600082825260208201905092915050565b6000819050602082019050919050565b6000819050919050565b6000620008cc620008c6620008c08462000701565b620008a1565b62000701565b9050919050565b6000620008e082620008ab565b9050919050565b6000620008f482620008d3565b9050919050565b6200090681620008e7565b82525050565b620009178162000768565b82525050565b620009288162000721565b82525050565b608082016000820151620009466000850182620008fb565b5060208201516200095b60208501826200090c565b5060408201516200097060408501826200091d565b5060608201516200098560608501826200091d565b50505050565b60006200099983836200092e565b60808301905092915050565b6000602082019050919050565b6000620009bf8262000875565b620009cb818562000880565b9350620009d88362000891565b8060005b8381101562000a0f578151620009f388826200098b565b975062000a0083620009a5565b925050600181019050620009dc565b5085935050505092915050565b6000602082019050818103600083015262000a388184620009b2565b905092915050565b60006020828403121562000a595762000a5862000763565b5b600062000a6984828501620007bd565b91505092915050565b7f4e487b7100000000000000000000000000000000000000000000000000000000600052601160045260246000fd5b600062000aae8262000768565b91507fffffffffffffffffffffffffffffffffffffffffffffffffffffffffffffffff820362000ae35762000ae262000a72565b5b600182019050919050565b62000af98162000768565b82525050565b62000b0a81620008e7565b82525050565b600060608201905062000b27600083018662000aee565b62000b36602083018562000735565b62000b45604083018462000aff565b949350505050565b7f4e487b7100000000000000000000000000000000000000000000000000000000600052604160045260246000fd5b7f4e487b7100000000000000000000000000000000000000000000000000000000600052603260045260246000fd5b600082825260208201905092915050565b7f4f776e61626c653a206e6577206f776e657220697320746865207a65726f206160008201527f6464726573730000000000000000000000000000000000000000000000000000602082015250565b600062000c1a60268362000bab565b915062000c278262000bbc565b604082019050919050565b6000602082019050818103600083015262000c4d8162000c0b565b9050919050565b7f4f776e61626c653a2063616c6c6572206973206e6f7420746865206f776e6572600082015250565b600062000c8c60208362000bab565b915062000c998262000c54565b602082019050919050565b6000602082019050818103600083015262000cbf8162000c7d565b905091905056fe608060405234801561001057600080fd5b50604051620009b9380380620009b98339818101604052810190610034919061021a565b6000831161004157600080fd5b600073ffffffffffffffffffffffffffffffffffffffff168273ffffffffffffffffffffffffffffffffffffffff160361007a57600080fd5b600073ffffffffffffffffffffffffffffffffffffffff168173ffffffffffffffffffffffffffffffffffffffff16036100b357600080fd5b8260028190555081600160006101000a81548173ffffffffffffffffffffffffffffffffffffffff021916908373ffffffffffffffffffffffffffffffffffffffff160217905550806000806101000a81548173ffffffffffffffffffffffffffffffffffffffff021916908373ffffffffffffffffffffffffffffffffffffffff16021790555050505061026d565b600080fd5b6000819050919050565b61015b81610148565b811461016657600080fd5b50565b60008151905061017881610152565b92915050565b600073ffffffffffffffffffffffffffffffffffffffff82169050919050565b60006101a98261017e565b9050919050565b6101b98161019e565b81146101c457600080fd5b50565b6000815190506101d6816101b0565b92915050565b60006101e78261019e565b9050919050565b6101f7816101dc565b811461020257600080fd5b50565b600081519050610214816101ee565b92915050565b60008060006060848603121561023357610232610143565b5b600061024186828701610169565b9350506020610252868287016101c7565b925050604061026386828701610205565b9150509250925092565b61073c806200027d6000396000f3fe60806040526004361061004e5760003560e01c80632c4e722e146100695780634042b66f14610094578063521eb273146100bf578063ec8ac4d8146100ea578063fc0c546a146101065761005e565b3661005e5761005c33610131565b005b61006733610131565b005b34801561007557600080fd5b5061007e6101fa565b60405161008b9190610421565b60405180910390f35b3480156100a057600080fd5b506100a9610200565b6040516100b69190610421565b60405180910390f35b3480156100cb57600080fd5b506100d4610206565b6040516100e1919061047d565b60405180910390f35b61010460048036038101906100ff91906104c9565b610131565b005b34801561011257600080fd5b5061011b61022c565b6040516101289190610555565b60405180910390f35b60003490506101408282610250565b600061014b8261029a565b9050610162826003546102b890919063ffffffff16565b60038190555061017283826102ce565b8273ffffffffffffffffffffffffffffffffffffffff163373ffffffffffffffffffffffffffffffffffffffff167f623b3804fa71d67900d064613da8f94b9617215ee90799290593e1745087ad1884846040516101d1929190610570565b60405180910390a36101e383836102dc565b6101eb6102e0565b6101f5838361034b565b505050565b60025481565b60035481565b600160009054906101000a900473ffffffffffffffffffffffffffffffffffffffff1681565b60008054906101000a900473ffffffffffffffffffffffffffffffffffffffff1681565b600073ffffffffffffffffffffffffffffffffffffffff168273ffffffffffffffffffffffffffffffffffffffff160361028957600080fd5b6000810361029657600080fd5b5050565b60006102b16002548361034f90919063ffffffff16565b9050919050565b600081836102c691906105c8565b905092915050565b6102d88282610365565b5050565b5050565b600160009054906101000a900473ffffffffffffffffffffffffffffffffffffffff1673ffffffffffffffffffffffffffffffffffffffff166108fc349081150290604051600060405180830381858888f19350505050158015610348573d6000803e3d6000fd5b50565b5050565b6000818361035d919061061e565b905092915050565b60008054906101000a900473ffffffffffffffffffffffffffffffffffffffff1673ffffffffffffffffffffffffffffffffffffffff1663a9059cbb83836040518363ffffffff1660e01b81526004016103c0929190610678565b6020604051808303816000875af11580156103df573d6000803e3d6000fd5b505050506040513d601f19601f8201168201806040525081019061040391906106d9565b505050565b6000819050919050565b61041b81610408565b82525050565b60006020820190506104366000830184610412565b92915050565b600073ffffffffffffffffffffffffffffffffffffffff82169050919050565b60006104678261043c565b9050919050565b6104778161045c565b82525050565b6000602082019050610492600083018461046e565b92915050565b600080fd5b6104a68161045c565b81146104b157600080fd5b50565b6000813590506104c38161049d565b92915050565b6000602082840312156104df576104de610498565b5b60006104ed848285016104b4565b91505092915050565b6000819050919050565b600061051b6105166105118461043c565b6104f6565b61043c565b9050919050565b600061052d82610500565b9050919050565b600061053f82610522565b9050919050565b61054f81610534565b82525050565b600060208201905061056a6000830184610546565b92915050565b60006040820190506105856000830185610412565b6105926020830184610412565b9392505050565b7f4e487b7100000000000000000000000000000000000000000000000000000000600052601160045260246000fd5b60006105d382610408565b91506105de83610408565b9250827fffffffffffffffffffffffffffffffffffffffffffffffffffffffffffffffff0382111561061357610612610599565b5b828201905092915050565b600061062982610408565b915061063483610408565b9250817fffffffffffffffffffffffffffffffffffffffffffffffffffffffffffffffff048311821515161561066d5761066c610599565b5b828202905092915050565b600060408201905061068d600083018561046e565b61069a6020830184610412565b9392505050565b60008115159050919050565b6106b6816106a1565b81146106c157600080fd5b50565b6000815190506106d3816106ad565b92915050565b6000602082840312156106ef576106ee610498565b5b60006106fd848285016106c4565b9150509291505056fea2646970667358221220e35c9ccfbb5479e990aecb05cd970416c5144b1a809fe690cd93c7890192c36464736f6c634300080d0033a264697066735822122030fda2a4487f804dce37739428c7fe5e14c8f591ed5df5f0f452fe541877b6c164736f6c634300080d0033",
  "immutableReferences": {},
  "source": "// SPDX-License-Identifier: GPL-3.0\npragma solidity ^0.8.0;\n\nimport \"./Crowdsale.sol\";\nimport \"@openzeppelin/contracts/access/Ownable.sol\";\n\ncontract CrowdsaleFactory is Ownable{\n    \n    uint numOfCrowdsale;\n\n    struct crowdsaleMeta {\n        ERC20 token;\n        uint rate;\n        address beneficiaryAddr;\n        address crowdsaleContractAddr;\n    }\n\n    mapping(uint => crowdsaleMeta) private deployedCrowdsale;\n\n    event newCrowdSaleCreatedAt(address crowdsaleContract );\n\n\n    constructor(){\n        // TODO: Add the owner as msg.sender from Ownable contract\n    }\n\n\n    function crateCrowdSale(uint256 _rate, address _wallet, ERC20 _token) public {\n        uint crowdsaleId = numOfCrowdsale++;\n        crowdsaleMeta storage currentCrowdsale = deployedCrowdsale[crowdsaleId];\n        currentCrowdsale.token = _token;\n        currentCrowdsale.rate = _rate;\n        currentCrowdsale.beneficiaryAddr = _wallet;\n        currentCrowdsale.crowdsaleContractAddr = address(new Crowdsale(_rate, _wallet, _token));\n        emit newCrowdSaleCreatedAt(currentCrowdsale.crowdsaleContractAddr);\n\n    }\n\n    function getAllDeployedProjects () public view returns (crowdsaleMeta[] memory props){\n        // return deployedProjects;\n        props = new crowdsaleMeta[](numOfCrowdsale);\n        \n        for (uint256 index =0; index< numOfCrowdsale; index++){\n            props[index] = deployedCrowdsale[index];\n        }\n    }\n\n}",
  "sourcePath": "/Users/abhinilagarwal/Desktop/equistart/contracts/contracts/CrowdsaleFactory.sol",
  "compiler": {
    "name": "solc",
    "version": "0.8.13+commit.abaa5c0e.Emscripten.clang"
  },
  "schemaVersion": "3.4.7",
  "updatedAt": "2022-08-03T11:32:54.011Z",
  "devdoc": {
    "kind": "dev",
    "methods": {
      "owner()": {
        "details": "Returns the address of the current owner."
      },
      "renounceOwnership()": {
        "details": "Leaves the contract without owner. It will not be possible to call `onlyOwner` functions anymore. Can only be called by the current owner. NOTE: Renouncing ownership will leave the contract without an owner, thereby removing any functionality that is only available to the owner."
      },
      "transferOwnership(address)": {
        "details": "Transfers ownership of the contract to a new account (`newOwner`). Can only be called by the current owner."
      }
    },
    "version": 1
  },
  "userdoc": {
    "kind": "user",
    "methods": {},
    "version": 1
  }
}