{
  "contractName": "GovernorFactory",
  "abi": [
    {
      "anonymous": false,
      "inputs": [
        {
          "indexed": true,
          "internalType": "address",
          "name": "previousOwner",
          "type": "address"
        },
        {
          "indexed": true,
          "internalType": "address",
          "name": "newOwner",
          "type": "address"
        }
      ],
      "name": "OwnershipTransferred",
      "type": "event"
    },
    {
      "inputs": [],
      "name": "owner",
      "outputs": [
        {
          "internalType": "address",
          "name": "",
          "type": "address"
        }
      ],
      "stateMutability": "view",
      "type": "function"
    },
    {
      "inputs": [],
      "name": "renounceOwnership",
      "outputs": [],
      "stateMutability": "nonpayable",
      "type": "function"
    },
    {
      "inputs": [
        {
          "internalType": "address",
          "name": "newOwner",
          "type": "address"
        }
      ],
      "name": "transferOwnership",
      "outputs": [],
      "stateMutability": "nonpayable",
      "type": "function"
    },
    {
      "inputs": [
        {
          "internalType": "address[]",
          "name": "proposers",
          "type": "address[]"
        },
        {
          "internalType": "address[]",
          "name": "executors",
          "type": "address[]"
        }
      ],
      "name": "createTimelock",
      "outputs": [
        {
          "internalType": "address",
          "name": "",
          "type": "address"
        }
      ],
      "stateMutability": "nonpayable",
      "type": "function"
    },
    {
      "inputs": [
        {
          "internalType": "contract IVotes",
          "name": "_token",
          "type": "address"
        },
        {
          "internalType": "contract TimelockController",
          "name": "_timelock",
          "type": "address"
        }
      ],
      "name": "createGovernor",
      "outputs": [
        {
          "internalType": "address",
          "name": "",
          "type": "address"
        }
      ],
      "stateMutability": "nonpayable",
      "type": "function"
    }
  ],
  "bytecode": "0x608060405234801561001057600080fd5b5061001a3361001f565b61006f565b600080546001600160a01b038381166001600160a01b0319831681178455604051919092169283917f8be0079c531659141344cd1fd0a4f28419497f9722a3daafe3b4186f6b6457e09190a35050565b61685f8061007e6000396000f3fe60806040523480156200001157600080fd5b50600436106200005e5760003560e01c80630378918c1462000063578063715018a6146200009657806384c1eac614620000a25780638da5cb5b14620000b9578063f2fde38b14620000cb575b600080fd5b6200007a6200007436600462000330565b620000e2565b6040516001600160a01b03909116815260200160405180910390f35b620000a062000130565b005b6200007a620000b3366004620003b9565b62000148565b6000546001600160a01b03166200007a565b620000a0620000dc366004620003f7565b62000196565b6000610e1085858585604051620000f990620002c5565b620001099594939291906200046b565b604051809103906000f08015801562000126573d6000803e3d6000fd5b5095945050505050565b6200013a62000219565b62000146600062000275565b565b600082826040516200015a90620002d3565b6001600160a01b03928316815291166020820152604001604051809103906000f0801580156200018e573d6000803e3d6000fd5b509392505050565b620001a062000219565b6001600160a01b0381166200020b5760405162461bcd60e51b815260206004820152602660248201527f4f776e61626c653a206e6577206f776e657220697320746865207a65726f206160448201526564647265737360d01b60648201526084015b60405180910390fd5b620002168162000275565b50565b6000546001600160a01b03163314620001465760405162461bcd60e51b815260206004820181905260248201527f4f776e61626c653a2063616c6c6572206973206e6f7420746865206f776e6572604482015260640162000202565b600080546001600160a01b038381166001600160a01b0319831681178455604051919092169283917f8be0079c531659141344cd1fd0a4f28419497f9722a3daafe3b4186f6b6457e09190a35050565b6122f780620004a983390190565b61408a80620027a083390190565b60008083601f840112620002f457600080fd5b50813567ffffffffffffffff8111156200030d57600080fd5b6020830191508360208260051b85010111156200032957600080fd5b9250929050565b600080600080604085870312156200034757600080fd5b843567ffffffffffffffff808211156200036057600080fd5b6200036e88838901620002e1565b909650945060208701359150808211156200038857600080fd5b506200039787828801620002e1565b95989497509550505050565b6001600160a01b03811681146200021657600080fd5b60008060408385031215620003cd57600080fd5b8235620003da81620003a3565b91506020830135620003ec81620003a3565b809150509250929050565b6000602082840312156200040a57600080fd5b81356200041781620003a3565b9392505050565b8183526000602080850194508260005b85811015620004605781356200044481620003a3565b6001600160a01b0316875295820195908201906001016200042e565b509495945050505050565b858152606060208201526000620004876060830186886200041e565b82810360408401526200049c8185876200041e565b9897505050505050505056fe60806040523480156200001157600080fd5b50604051620022f7380380620022f78339810160408190526200003491620003f7565b6200004f60008051602062002277833981519152806200021c565b6200007960008051602062002297833981519152600080516020620022778339815191526200021c565b620000a3600080516020620022b7833981519152600080516020620022778339815191526200021c565b620000cd600080516020620022d7833981519152600080516020620022778339815191526200021c565b620000e8600080516020620022778339815191523362000267565b62000103600080516020620022778339815191523062000267565b60005b825181101562000189576200014d600080516020620022978339815191528483815181106200013957620001396200046b565b60200260200101516200026760201b60201c565b62000176600080516020620022d78339815191528483815181106200013957620001396200046b565b620001818162000481565b905062000106565b5060005b8151811015620001d357620001c0600080516020620022b78339815191528383815181106200013957620001396200046b565b620001cb8162000481565b90506200018d565b5060028390556040805160008152602081018590527f11c24f4ead16507c69ac467fbd5e4eed5fb5c699626d2cc6d66421df253886d5910160405180910390a1505050620004a9565b600082815260208190526040808220600101805490849055905190918391839186917fbd79b86ffe0ab8e8776151514217cd7cacd52c909f66475c3af44e129f0b00ff9190a4505050565b62000273828262000277565b5050565b6000828152602081815260408083206001600160a01b038516845290915290205460ff1662000273576000828152602081815260408083206001600160a01b03851684529091529020805460ff19166001179055620002d33390565b6001600160a01b0316816001600160a01b0316837f2f8788117e7eff1d82e926ec794901d17c78024a50270940304540a733656f0d60405160405180910390a45050565b634e487b7160e01b600052604160045260246000fd5b80516001600160a01b03811681146200034557600080fd5b919050565b600082601f8301126200035c57600080fd5b815160206001600160401b03808311156200037b576200037b62000317565b8260051b604051601f19603f83011681018181108482111715620003a357620003a362000317565b604052938452858101830193838101925087851115620003c257600080fd5b83870191505b84821015620003ec57620003dc826200032d565b83529183019190830190620003c8565b979650505050505050565b6000806000606084860312156200040d57600080fd5b835160208501519093506001600160401b03808211156200042d57600080fd5b6200043b878388016200034a565b935060408601519150808211156200045257600080fd5b5062000461868287016200034a565b9150509250925092565b634e487b7160e01b600052603260045260246000fd5b600060018201620004a257634e487b7160e01b600052601160045260246000fd5b5060010190565b611dbe80620004b96000396000f3fe6080604052600436106101bb5760003560e01c80638065657f116100ec578063bc197c811161008a578063d547741f11610064578063d547741f14610582578063e38335e5146105a2578063f23a6e61146105b5578063f27a0c92146105e157600080fd5b8063bc197c8114610509578063c4d252f514610535578063d45c44351461055557600080fd5b806391d14854116100c657806391d1485414610480578063a217fddf146104a0578063b08e51c0146104b5578063b1c5f427146104e957600080fd5b80638065657f1461040c5780638f2a0bb01461042c5780638f61f4f51461044c57600080fd5b8063248a9ca31161015957806331d507501161013357806331d507501461038c57806336568abe146103ac578063584b153e146103cc57806364d62353146103ec57600080fd5b8063248a9ca31461030b5780632ab0f5291461033b5780632f2ff15d1461036c57600080fd5b80630d3cf6fc116101955780630d3cf6fc14610260578063134008d31461029457806313bc9f20146102a7578063150b7a02146102c757600080fd5b806301d5062a146101c757806301ffc9a7146101e957806307bd02651461021e57600080fd5b366101c257005b600080fd5b3480156101d357600080fd5b506101e76101e23660046113b9565b6105f6565b005b3480156101f557600080fd5b5061020961020436600461142d565b61068b565b60405190151581526020015b60405180910390f35b34801561022a57600080fd5b506102527fd8aa0f3194971a2a116679f7c2090f6939c8d4e01a2a8d7e41d55e5351469e6381565b604051908152602001610215565b34801561026c57600080fd5b506102527f5f58e3a2316349923ce3780f8d587db2d72378aed66a8261c916544fa6846ca581565b6101e76102a2366004611457565b6106b6565b3480156102b357600080fd5b506102096102c23660046114c2565b61076b565b3480156102d357600080fd5b506102f26102e2366004611590565b630a85bd0160e11b949350505050565b6040516001600160e01b03199091168152602001610215565b34801561031757600080fd5b506102526103263660046114c2565b60009081526020819052604090206001015490565b34801561034757600080fd5b506102096103563660046114c2565b6000908152600160208190526040909120541490565b34801561037857600080fd5b506101e76103873660046115f7565b610791565b34801561039857600080fd5b506102096103a73660046114c2565b6107bb565b3480156103b857600080fd5b506101e76103c73660046115f7565b6107d4565b3480156103d857600080fd5b506102096103e73660046114c2565b610857565b3480156103f857600080fd5b506101e76104073660046114c2565b61086d565b34801561041857600080fd5b50610252610427366004611457565b610911565b34801561043857600080fd5b506101e7610447366004611667565b610950565b34801561045857600080fd5b506102527fb09aa5aeb3702cfd50b6b62bc4532604938f21248a27a1d5ca736082b6819cc181565b34801561048c57600080fd5b5061020961049b3660046115f7565b610aa2565b3480156104ac57600080fd5b50610252600081565b3480156104c157600080fd5b506102527ffd643c72710c63c0180259aba6b2d05451e3591a24e58b62239378085726f78381565b3480156104f557600080fd5b50610252610504366004611718565b610acb565b34801561051557600080fd5b506102f261052436600461183f565b63bc197c8160e01b95945050505050565b34801561054157600080fd5b506101e76105503660046114c2565b610b10565b34801561056157600080fd5b506102526105703660046114c2565b60009081526001602052604090205490565b34801561058e57600080fd5b506101e761059d3660046115f7565b610be5565b6101e76105b0366004611718565b610c0a565b3480156105c157600080fd5b506102f26105d03660046118e8565b63f23a6e6160e01b95945050505050565b3480156105ed57600080fd5b50600254610252565b7fb09aa5aeb3702cfd50b6b62bc4532604938f21248a27a1d5ca736082b6819cc161062081610d94565b6000610630898989898989610911565b905061063c8184610da1565b6000817f4cf4410cc57040e44862ef0f45f3dd5a5e02db8eb8add648d4b0e236f1d07dca8b8b8b8b8b8a60405161067896959493929190611975565b60405180910390a3505050505050505050565b60006001600160e01b03198216630271189760e51b14806106b057506106b082610e90565b92915050565b7fd8aa0f3194971a2a116679f7c2090f6939c8d4e01a2a8d7e41d55e5351469e636106e2816000610aa2565b6106f0576106f08133610ec5565b6000610700888888888888610911565b905061070c8185610f29565b61071888888888610fc5565b6000817fc2617efa69bab66782fa219543714338489c4e9e178271560a91b82c3f612b588a8a8a8a60405161075094939291906119b2565b60405180910390a361076181611098565b5050505050505050565b60008181526001602052604081205460018111801561078a5750428111155b9392505050565b6000828152602081905260409020600101546107ac81610d94565b6107b683836110d1565b505050565b60008181526001602052604081205481905b1192915050565b6001600160a01b03811633146108495760405162461bcd60e51b815260206004820152602f60248201527f416363657373436f6e74726f6c3a2063616e206f6e6c792072656e6f756e636560448201526e103937b632b9903337b91039b2b63360891b60648201526084015b60405180910390fd5b6108538282611155565b5050565b60008181526001602081905260408220546107cd565b3330146108d05760405162461bcd60e51b815260206004820152602b60248201527f54696d656c6f636b436f6e74726f6c6c65723a2063616c6c6572206d7573742060448201526a62652074696d656c6f636b60a81b6064820152608401610840565b60025460408051918252602082018390527f11c24f4ead16507c69ac467fbd5e4eed5fb5c699626d2cc6d66421df253886d5910160405180910390a1600255565b600086868686868660405160200161092e96959493929190611975565b6040516020818303038152906040528051906020012090509695505050505050565b7fb09aa5aeb3702cfd50b6b62bc4532604938f21248a27a1d5ca736082b6819cc161097a81610d94565b8887146109995760405162461bcd60e51b8152600401610840906119e4565b8885146109b85760405162461bcd60e51b8152600401610840906119e4565b60006109ca8b8b8b8b8b8b8b8b610acb565b90506109d68184610da1565b60005b8a811015610a945780827f4cf4410cc57040e44862ef0f45f3dd5a5e02db8eb8add648d4b0e236f1d07dca8e8e85818110610a1657610a16611a27565b9050602002016020810190610a2b9190611a3d565b8d8d86818110610a3d57610a3d611a27565b905060200201358c8c87818110610a5657610a56611a27565b9050602002810190610a689190611a58565b8c8b604051610a7c96959493929190611975565b60405180910390a3610a8d81611ab4565b90506109d9565b505050505050505050505050565b6000918252602082815260408084206001600160a01b0393909316845291905290205460ff1690565b60008888888888888888604051602001610aec989796959493929190611b5d565b60405160208183030381529060405280519060200120905098975050505050505050565b7ffd643c72710c63c0180259aba6b2d05451e3591a24e58b62239378085726f783610b3a81610d94565b610b4382610857565b610ba95760405162461bcd60e51b815260206004820152603160248201527f54696d656c6f636b436f6e74726f6c6c65723a206f7065726174696f6e2063616044820152701b9b9bdd0818994818d85b98d95b1b1959607a1b6064820152608401610840565b6000828152600160205260408082208290555183917fbaa1eb22f2a492ba1a5fea61b8df4d27c6c8b5f3971e63bb58fa14ff72eedb7091a25050565b600082815260208190526040902060010154610c0081610d94565b6107b68383611155565b7fd8aa0f3194971a2a116679f7c2090f6939c8d4e01a2a8d7e41d55e5351469e63610c36816000610aa2565b610c4457610c448133610ec5565b878614610c635760405162461bcd60e51b8152600401610840906119e4565b878414610c825760405162461bcd60e51b8152600401610840906119e4565b6000610c948a8a8a8a8a8a8a8a610acb565b9050610ca08185610f29565b60005b89811015610d7e5760008b8b83818110610cbf57610cbf611a27565b9050602002016020810190610cd49190611a3d565b905060008a8a84818110610cea57610cea611a27565b9050602002013590503660008a8a86818110610d0857610d08611a27565b9050602002810190610d1a9190611a58565b91509150610d2a84848484610fc5565b84867fc2617efa69bab66782fa219543714338489c4e9e178271560a91b82c3f612b5886868686604051610d6194939291906119b2565b60405180910390a35050505080610d7790611ab4565b9050610ca3565b50610d8881611098565b50505050505050505050565b610d9e8133610ec5565b50565b610daa826107bb565b15610e0f5760405162461bcd60e51b815260206004820152602f60248201527f54696d656c6f636b436f6e74726f6c6c65723a206f7065726174696f6e20616c60448201526e1c9958591e481cd8da19591d5b1959608a1b6064820152608401610840565b600254811015610e705760405162461bcd60e51b815260206004820152602660248201527f54696d656c6f636b436f6e74726f6c6c65723a20696e73756666696369656e746044820152652064656c617960d01b6064820152608401610840565b610e7a8142611c08565b6000928352600160205260409092209190915550565b60006001600160e01b03198216637965db0b60e01b14806106b057506301ffc9a760e01b6001600160e01b03198316146106b0565b610ecf8282610aa2565b61085357610ee7816001600160a01b031660146111ba565b610ef28360206111ba565b604051602001610f03929190611c50565b60408051601f198184030181529082905262461bcd60e51b825261084091600401611cc5565b610f328261076b565b610f4e5760405162461bcd60e51b815260040161084090611cf8565b801580610f6a5750600081815260016020819052604090912054145b6108535760405162461bcd60e51b815260206004820152602660248201527f54696d656c6f636b436f6e74726f6c6c65723a206d697373696e6720646570656044820152656e64656e637960d01b6064820152608401610840565b6000846001600160a01b0316848484604051610fe2929190611d42565b60006040518083038185875af1925050503d806000811461101f576040519150601f19603f3d011682016040523d82523d6000602084013e611024565b606091505b50509050806110915760405162461bcd60e51b815260206004820152603360248201527f54696d656c6f636b436f6e74726f6c6c65723a20756e6465726c79696e6720746044820152721c985b9cd858dd1a5bdb881c995d995c9d1959606a1b6064820152608401610840565b5050505050565b6110a18161076b565b6110bd5760405162461bcd60e51b815260040161084090611cf8565b600090815260016020819052604090912055565b6110db8282610aa2565b610853576000828152602081815260408083206001600160a01b03851684529091529020805460ff191660011790556111113390565b6001600160a01b0316816001600160a01b0316837f2f8788117e7eff1d82e926ec794901d17c78024a50270940304540a733656f0d60405160405180910390a45050565b61115f8282610aa2565b15610853576000828152602081815260408083206001600160a01b0385168085529252808320805460ff1916905551339285917ff6391f5c32d9c69d2a47ea670b442974b53935d1edc7fd64eb21e047a839171b9190a45050565b606060006111c9836002611d52565b6111d4906002611c08565b6001600160401b038111156111eb576111eb6114db565b6040519080825280601f01601f191660200182016040528015611215576020820181803683370190505b509050600360fc1b8160008151811061123057611230611a27565b60200101906001600160f81b031916908160001a905350600f60fb1b8160018151811061125f5761125f611a27565b60200101906001600160f81b031916908160001a9053506000611283846002611d52565b61128e906001611c08565b90505b6001811115611306576f181899199a1a9b1b9c1cb0b131b232b360811b85600f16601081106112c2576112c2611a27565b1a60f81b8282815181106112d8576112d8611a27565b60200101906001600160f81b031916908160001a90535060049490941c936112ff81611d71565b9050611291565b50831561078a5760405162461bcd60e51b815260206004820181905260248201527f537472696e67733a20686578206c656e67746820696e73756666696369656e746044820152606401610840565b80356001600160a01b038116811461136c57600080fd5b919050565b60008083601f84011261138357600080fd5b5081356001600160401b0381111561139a57600080fd5b6020830191508360208285010111156113b257600080fd5b9250929050565b600080600080600080600060c0888a0312156113d457600080fd5b6113dd88611355565b96506020880135955060408801356001600160401b038111156113ff57600080fd5b61140b8a828b01611371565b989b979a50986060810135976080820135975060a09091013595509350505050565b60006020828403121561143f57600080fd5b81356001600160e01b03198116811461078a57600080fd5b60008060008060008060a0878903121561147057600080fd5b61147987611355565b95506020870135945060408701356001600160401b0381111561149b57600080fd5b6114a789828a01611371565b979a9699509760608101359660809091013595509350505050565b6000602082840312156114d457600080fd5b5035919050565b634e487b7160e01b600052604160045260246000fd5b604051601f8201601f191681016001600160401b0381118282101715611519576115196114db565b604052919050565b600082601f83011261153257600080fd5b81356001600160401b0381111561154b5761154b6114db565b61155e601f8201601f19166020016114f1565b81815284602083860101111561157357600080fd5b816020850160208301376000918101602001919091529392505050565b600080600080608085870312156115a657600080fd5b6115af85611355565b93506115bd60208601611355565b92506040850135915060608501356001600160401b038111156115df57600080fd5b6115eb87828801611521565b91505092959194509250565b6000806040838503121561160a57600080fd5b8235915061161a60208401611355565b90509250929050565b60008083601f84011261163557600080fd5b5081356001600160401b0381111561164c57600080fd5b6020830191508360208260051b85010111156113b257600080fd5b600080600080600080600080600060c08a8c03121561168557600080fd5b89356001600160401b038082111561169c57600080fd5b6116a88d838e01611623565b909b50995060208c01359150808211156116c157600080fd5b6116cd8d838e01611623565b909950975060408c01359150808211156116e657600080fd5b506116f38c828d01611623565b9a9d999c50979a969997986060880135976080810135975060a0013595509350505050565b60008060008060008060008060a0898b03121561173457600080fd5b88356001600160401b038082111561174b57600080fd5b6117578c838d01611623565b909a50985060208b013591508082111561177057600080fd5b61177c8c838d01611623565b909850965060408b013591508082111561179557600080fd5b506117a28b828c01611623565b999c989b509699959896976060870135966080013595509350505050565b600082601f8301126117d157600080fd5b813560206001600160401b038211156117ec576117ec6114db565b8160051b6117fb8282016114f1565b928352848101820192828101908785111561181557600080fd5b83870192505b848310156118345782358252918301919083019061181b565b979650505050505050565b600080600080600060a0868803121561185757600080fd5b61186086611355565b945061186e60208701611355565b935060408601356001600160401b038082111561188a57600080fd5b61189689838a016117c0565b945060608801359150808211156118ac57600080fd5b6118b889838a016117c0565b935060808801359150808211156118ce57600080fd5b506118db88828901611521565b9150509295509295909350565b600080600080600060a0868803121561190057600080fd5b61190986611355565b945061191760208701611355565b9350604086013592506060860135915060808601356001600160401b0381111561194057600080fd5b6118db88828901611521565b81835281816020850137506000828201602090810191909152601f909101601f19169091010190565b60018060a01b038716815285602082015260a06040820152600061199d60a08301868861194c565b60608301949094525060800152949350505050565b60018060a01b03851681528360208201526060604082015260006119da60608301848661194c565b9695505050505050565b60208082526023908201527f54696d656c6f636b436f6e74726f6c6c65723a206c656e677468206d69736d616040820152620e8c6d60eb1b606082015260800190565b634e487b7160e01b600052603260045260246000fd5b600060208284031215611a4f57600080fd5b61078a82611355565b6000808335601e19843603018112611a6f57600080fd5b8301803591506001600160401b03821115611a8957600080fd5b6020019150368190038213156113b257600080fd5b634e487b7160e01b600052601160045260246000fd5b600060018201611ac657611ac6611a9e565b5060010190565b81835260006020808501808196508560051b810191508460005b87811015611b505782840389528135601e19883603018112611b0857600080fd5b870180356001600160401b03811115611b2057600080fd5b803603891315611b2f57600080fd5b611b3c868289850161194c565b9a87019a9550505090840190600101611ae7565b5091979650505050505050565b60a0808252810188905260008960c08301825b8b811015611b9e576001600160a01b03611b8984611355565b16825260209283019290910190600101611b70565b5083810360208501528881526001600160fb1b03891115611bbe57600080fd5b8860051b9150818a602083013781810191505060208101600081526020848303016040850152611bef81888a611acd565b6060850196909652505050608001529695505050505050565b60008219821115611c1b57611c1b611a9e565b500190565b60005b83811015611c3b578181015183820152602001611c23565b83811115611c4a576000848401525b50505050565b7f416363657373436f6e74726f6c3a206163636f756e7420000000000000000000815260008351611c88816017850160208801611c20565b7001034b99036b4b9b9b4b733903937b6329607d1b6017918401918201528351611cb9816028840160208801611c20565b01602801949350505050565b6020815260008251806020840152611ce4816040850160208701611c20565b601f01601f19169190910160400192915050565b6020808252602a908201527f54696d656c6f636b436f6e74726f6c6c65723a206f7065726174696f6e206973604082015269206e6f7420726561647960b01b606082015260800190565b8183823760009101908152919050565b6000816000190483118215151615611d6c57611d6c611a9e565b500290565b600081611d8057611d80611a9e565b50600019019056fea26469706673582212208c2d2e135241c9e8576439a75fcff6f64f174176bc0da0f92e94414f19b54bb064736f6c634300080d00335f58e3a2316349923ce3780f8d587db2d72378aed66a8261c916544fa6846ca5b09aa5aeb3702cfd50b6b62bc4532604938f21248a27a1d5ca736082b6819cc1d8aa0f3194971a2a116679f7c2090f6939c8d4e01a2a8d7e41d55e5351469e63fd643c72710c63c0180259aba6b2d05451e3591a24e58b62239378085726f7836101606040523480156200001257600080fd5b506040516200408a3803806200408a8339810160408190526200003591620006bb565b80600a836040518060400160405280600a81526020016926bca3b7bb32b93737b960b11b815250806200006d6200014260201b60201c565b815160208084019190912082518383012060e08290526101008190524660a0818152604080517f8b73c3c69bb8fe3d512ecc4cf759cc79239f7b179b0ffacaa9a75d522b39400f81880181905281830187905260608201869052608082019490945230818401528151808203909301835260c00190528051940193909320919290916080523060c052610120525050825162000113925060009150602084019062000606565b50506001600160a01b0316610140526200012d816200015d565b506200013981620002d9565b50505062000772565b6040805180820190915260018152603160f81b602082015290565b6064811115620001e65760405162461bcd60e51b815260206004820152604360248201527f476f7665726e6f72566f74657351756f72756d4672616374696f6e3a2071756f60448201527f72756d4e756d657261746f72206f7665722071756f72756d44656e6f6d696e616064820152623a37b960e91b608482015260a4015b60405180910390fd5b6000620001f262000342565b90508015801590620002045750600654155b156200027f5760066000016040518060400160405280600063ffffffff1681526020016200023d846200037160201b620012291760201c565b6001600160e01b0390811690915282546001810184556000938452602093849020835194909301519091166401000000000263ffffffff909316929092179101555b6200029a826006620003e060201b620012961790919060201c565b505060408051828152602081018490527f0553476bf02ef2726e8ce5ced78d63e26e602e4a2257b1f559418e24b4633997910160405180910390a15050565b600754604080516001600160a01b03928316815291831660208301527f08f74ea46ef7894f65eabfb5e6e695de773a000b47c529ab559178069b226401910160405180910390a1600780546001600160a01b0319166001600160a01b0392909216919091179055565b600654600090156200036a576200036560066200053c60201b620013c11760201c565b905090565b5060055490565b60006001600160e01b03821115620003dc5760405162461bcd60e51b815260206004820152602760248201527f53616665436173743a2076616c756520646f65736e27742066697420696e20326044820152663234206269747360c81b6064820152608401620001dd565b5090565b8154600090819081620003f3866200053c565b9050600082118015620004375750438662000410600185620006fa565b8154811062000423576200042362000720565b60009182526020909120015463ffffffff16145b15620004ab5762000453856200037160201b620012291760201c565b8662000461600185620006fa565b8154811062000474576200047462000720565b9060005260206000200160000160046101000a8154816001600160e01b0302191690836001600160e01b0316021790555062000533565b856000016040518060400160405280620004d0436200059f60201b6200141d1760201c565b63ffffffff168152602001620004f1886200037160201b620012291760201c565b6001600160e01b0390811690915282546001810184556000938452602093849020835194909301519091166401000000000263ffffffff909316929092179101555b95939450505050565b805460009080156200058c578262000556600183620006fa565b8154811062000569576200056962000720565b60009182526020909120015464010000000090046001600160e01b03166200058f565b60005b6001600160e01b03169392505050565b600063ffffffff821115620003dc5760405162461bcd60e51b815260206004820152602660248201527f53616665436173743a2076616c756520646f65736e27742066697420696e203360448201526532206269747360d01b6064820152608401620001dd565b828054620006149062000736565b90600052602060002090601f01602090048101928262000638576000855562000683565b82601f106200065357805160ff191683800117855562000683565b8280016001018555821562000683579182015b828111156200068357825182559160200191906001019062000666565b50620003dc9291505b80821115620003dc57600081556001016200068c565b6001600160a01b0381168114620006b857600080fd5b50565b60008060408385031215620006cf57600080fd5b8251620006dc81620006a2565b6020840151909250620006ef81620006a2565b809150509250929050565b6000828210156200071b57634e487b7160e01b600052601160045260246000fd5b500390565b634e487b7160e01b600052603260045260246000fd5b600181811c908216806200074b57607f821691505b6020821081036200076c57634e487b7160e01b600052602260045260246000fd5b50919050565b60805160a05160c05160e0516101005161012051610140516138af620007db600039600081816107f701528181611e8f0152611fae0152600061212a0152600061217901526000612154015260006120ad015260006120d70152600061210101526138af6000f3fe6080604052600436106102295760003560e01c80637b3c71d311610123578063c01f9e37116100ab578063deaaa7cc1161006f578063deaaa7cc14610745578063eb9019d414610779578063f23a6e6114610799578063f8ce560a146107c5578063fc0c546a146107e557600080fd5b8063c01f9e371461066d578063c28bc2fa1461068d578063c59057e4146106ad578063d33219b4146106cd578063dd4e2ba5146106ff57600080fd5b8063a7713a70116100f2578063a7713a70146105d0578063a890c910146105e5578063ab58fb8e14610605578063b58131b014610625578063bc197c811461064157600080fd5b80637b3c71d31461055c5780637d5e81e21461057c57806397c3d3341461059c5780639a802a6d146105b057600080fd5b80632fe3e261116101b1578063544ffc9c11610175578063544ffc9c1461047d57806354fd4d50146104d257806356781388146104fc5780635f398a141461051c57806360c4247f1461053c57600080fd5b80632fe3e2611461039e5780633932abb1146103d25780633bccf4fd146103e65780633e4f49e614610406578063438596321461043357600080fd5b806306fdde03116101f857806306fdde03146102e5578063150b7a0214610307578063160cbed71461034b5780632656227d1461036b5780632d63f6931461037e57600080fd5b806301ffc9a71461025157806302a251a31461028657806303420181146102a557806306f3f9e6146102c557600080fd5b3661024c5730610237610819565b6001600160a01b03161461024a57600080fd5b005b600080fd5b34801561025d57600080fd5b5061027161026c3660046129bc565b610832565b60405190151581526020015b60405180910390f35b34801561029257600080fd5b5061b2fa5b60405190815260200161027d565b3480156102b157600080fd5b506102976102c0366004612afa565b610843565b3480156102d157600080fd5b5061024a6102e0366004612ba0565b61093b565b3480156102f157600080fd5b506102fa6109ce565b60405161027d9190612c15565b34801561031357600080fd5b50610332610322366004612c3d565b630a85bd0160e11b949350505050565b6040516001600160e01b0319909116815260200161027d565b34801561035757600080fd5b50610297610366366004612e19565b610a60565b610297610379366004612e19565b610c60565b34801561038a57600080fd5b50610297610399366004612ba0565b610d4d565b3480156103aa57600080fd5b506102977fb3b3f3b703cd84ce352197dcff232b1b5d3cfb2025ce47cf04742d0651f1af8881565b3480156103de57600080fd5b506001610297565b3480156103f257600080fd5b50610297610401366004612ea8565b610d84565b34801561041257600080fd5b50610426610421366004612ba0565b610dfa565b60405161027d9190612f0c565b34801561043f57600080fd5b5061027161044e366004612f34565b60008281526004602090815260408083206001600160a01b038516845260030190915290205460ff1692915050565b34801561048957600080fd5b506104b7610498366004612ba0565b6000908152600460205260409020805460018201546002909201549092565b6040805193845260208401929092529082015260600161027d565b3480156104de57600080fd5b506040805180820190915260018152603160f81b60208201526102fa565b34801561050857600080fd5b50610297610517366004612f64565b610e05565b34801561052857600080fd5b50610297610537366004612f90565b610e2e565b34801561054857600080fd5b50610297610557366004612ba0565b610e78565b34801561056857600080fd5b50610297610577366004613013565b610f10565b34801561058857600080fd5b5061029761059736600461306c565b610f62565b3480156105a857600080fd5b506064610297565b3480156105bc57600080fd5b506102976105cb366004613120565b610f79565b3480156105dc57600080fd5b50610297610f90565b3480156105f157600080fd5b5061024a610600366004613178565b610fac565b34801561061157600080fd5b50610297610620366004612ba0565b611033565b34801561063157600080fd5b5068056bc75e2d63100000610297565b34801561064d57600080fd5b5061033261065c366004613195565b63bc197c8160e01b95945050505050565b34801561067957600080fd5b50610297610688366004612ba0565b6110cd565b34801561069957600080fd5b5061024a6106a8366004613228565b6110fc565b3480156106b957600080fd5b506102976106c8366004612e19565b6111c3565b3480156106d957600080fd5b506007546001600160a01b03165b6040516001600160a01b03909116815260200161027d565b34801561070b57600080fd5b506040805180820190915260208082527f737570706f72743d627261766f2671756f72756d3d666f722c6162737461696e908201526102fa565b34801561075157600080fd5b506102977f150214d74d59b7d1e90c73fc22ef3d991dd0a76b046543d4d80ab92d2a50328f81565b34801561078557600080fd5b5061029761079436600461326b565b6111fd565b3480156107a557600080fd5b506103326107b4366004613297565b63f23a6e6160e01b95945050505050565b3480156107d157600080fd5b506102976107e0366004612ba0565b61121e565b3480156107f157600080fd5b506106e77f000000000000000000000000000000000000000000000000000000000000000081565b600061082d6007546001600160a01b031690565b905090565b600061083d82611482565b92915050565b6000806108e76108df7fb3b3f3b703cd84ce352197dcff232b1b5d3cfb2025ce47cf04742d0651f1af888c8c8c8c60405161087f9291906132ff565b60405180910390208b805190602001206040516020016108c4959493929190948552602085019390935260ff9190911660408401526060830152608082015260a00190565b604051602081830303815290604052805190602001206114a7565b8686866114f5565b905061092d8a828b8b8b8080601f0160208091040260200160405190810160405280939291908181526020018383808284376000920191909152508d9250611513915050565b9a9950505050505050505050565b610943610819565b6001600160a01b0316336001600160a01b03161461097c5760405162461bcd60e51b81526004016109739061330f565b60405180910390fd5b30610985610819565b6001600160a01b0316146109c257600080366040516109a59291906132ff565b604051809103902090505b806109bb6002611678565b036109b057505b6109cb816116f7565b50565b6060600080546109dd90613346565b80601f0160208091040260200160405190810160405280929190818152602001828054610a0990613346565b8015610a565780601f10610a2b57610100808354040283529160200191610a56565b820191906000526020600020905b815481529060010190602001808311610a3957829003601f168201915b5050505050905090565b600080610a6f868686866111c3565b90506004610a7c82610dfa565b6007811115610a8d57610a8d612ef6565b14610aaa5760405162461bcd60e51b815260040161097390613380565b6007546040805163793d064960e11b815290516000926001600160a01b03169163f27a0c929160048083019260209291908290030181865afa158015610af4573d6000803e3d6000fd5b505050506040513d601f19601f82011682018060405250810190610b1891906133c1565b60075460405163b1c5f42760e01b81529192506001600160a01b03169063b1c5f42790610b52908a908a908a906000908b906004016134a3565b602060405180830381865afa158015610b6f573d6000803e3d6000fd5b505050506040513d601f19601f82011682018060405250810190610b9391906133c1565b6000838152600860205260408082209290925560075491516308f2a0bb60e41b81526001600160a01b0390921691638f2a0bb091610bde918b918b918b91908b9089906004016134f1565b600060405180830381600087803b158015610bf857600080fd5b505af1158015610c0c573d6000803e3d6000fd5b505050507f9a2e42fd6722813d69113e7d0079d3d940171428df7373df9c7f7617cfda2892828242610c3e919061355f565b6040805192835260208301919091520160405180910390a15095945050505050565b600080610c6f868686866111c3565b90506000610c7c82610dfa565b90506004816007811115610c9257610c92612ef6565b1480610caf57506005816007811115610cad57610cad612ef6565b145b610ccb5760405162461bcd60e51b815260040161097390613380565b600082815260016020818152604092839020600201805460ff191690921790915590518381527f712ae1383f79ac853f8d882153778e0260ef8f03b504e2866e0593e04d2b291f910160405180910390a1610d298288888888611844565b610d3682888888886118e5565b610d4382888888886118f2565b5095945050505050565b60008181526001602090815260408083208151928301909152546001600160401b0316908190525b6001600160401b031692915050565b604080517f150214d74d59b7d1e90c73fc22ef3d991dd0a76b046543d4d80ab92d2a50328f602082015290810186905260ff851660608201526000908190610dd2906108df906080016108c4565b9050610def8782886040518060200160405280600081525061192b565b979650505050505050565b600061083d8261194e565b600080339050610e268482856040518060200160405280600081525061192b565b949350505050565b600080339050610def87828888888080601f0160208091040260200160405190810160405280939291908181526020018383808284376000920191909152508a9250611513915050565b600654600090808203610e8f575050600554919050565b60006006610e9e600184613577565b81548110610eae57610eae61358e565b60009182526020918290206040805180820190915291015463ffffffff81168083526401000000009091046001600160e01b03169282019290925291508410610f0557602001516001600160e01b03169392505050565b610e26600685611a98565b600080339050610f5886828787878080601f01602080910402602001604051908101604052809392919081815260200183838082843760009201919091525061192b92505050565b9695505050505050565b6000610f7085858585611ba7565b95945050505050565b6000610f86848484611e66565b90505b9392505050565b60065460009015610fa55761082d60066113c1565b5060055490565b610fb4610819565b6001600160a01b0316336001600160a01b031614610fe45760405162461bcd60e51b81526004016109739061330f565b30610fed610819565b6001600160a01b03161461102a576000803660405161100d9291906132ff565b604051809103902090505b806110236002611678565b0361101857505b6109cb81611efc565b60075460008281526008602052604080822054905163d45c443560e01b81526004810191909152909182916001600160a01b039091169063d45c443590602401602060405180830381865afa158015611090573d6000803e3d6000fd5b505050506040513d601f19601f820116820180604052508101906110b491906133c1565b9050806001146110c45780610f89565b60009392505050565b60008181526001602081815260408084208151928301909152909101546001600160401b031690819052610d75565b611104610819565b6001600160a01b0316336001600160a01b0316146111345760405162461bcd60e51b81526004016109739061330f565b3061113d610819565b6001600160a01b03161461117a576000803660405161115d9291906132ff565b604051809103902090505b806111736002611678565b0361116857505b6111bc8483838080601f016020809104026020016040519081016040528093929190818152602001838380828437600092019190915250889250611f65915050565b5050505050565b6000848484846040516020016111dc94939291906135a4565b60408051601f19818403018152919052805160209091012095945050505050565b6000610f89838361121960408051602081019091526000815290565b611e66565b600061083d82611f8b565b60006001600160e01b038211156112925760405162461bcd60e51b815260206004820152602760248201527f53616665436173743a2076616c756520646f65736e27742066697420696e20326044820152663234206269747360c81b6064820152608401610973565b5090565b81546000908190816112a7866113c1565b90506000821180156112e5575043866112c1600185613577565b815481106112d1576112d161358e565b60009182526020909120015463ffffffff16145b15611345576112f385611229565b866112ff600185613577565b8154811061130f5761130f61358e565b9060005260206000200160000160046101000a8154816001600160e01b0302191690836001600160e01b031602179055506113b3565b85600001604051806040016040528061135d4361141d565b63ffffffff16815260200161137188611229565b6001600160e01b0390811690915282546001810184556000938452602093849020835194909301519091166401000000000263ffffffff909316929092179101555b9250839150505b9250929050565b8054600090801561140a57826113d8600183613577565b815481106113e8576113e861358e565b60009182526020909120015464010000000090046001600160e01b031661140d565b60005b6001600160e01b03169392505050565b600063ffffffff8211156112925760405162461bcd60e51b815260206004820152602660248201527f53616665436173743a2076616c756520646f65736e27742066697420696e203360448201526532206269747360d01b6064820152608401610973565b60006001600160e01b03198216636e665ced60e01b148061083d575061083d82612035565b600061083d6114b46120a0565b8360405161190160f01b6020820152602281018390526042810182905260009060620160405160208183030381529060405280519060200120905092915050565b6000806000611506878787876121c7565b91509150610d43816122b4565b600085815260016020819052604082209061152d88610dfa565b600781111561153e5761153e612ef6565b146115975760405162461bcd60e51b815260206004820152602360248201527f476f7665726e6f723a20766f7465206e6f742063757272656e746c792061637460448201526269766560e81b6064820152608401610973565b604080516020810190915281546001600160401b0316908190526000906115c090889086611e66565b90506115cf888888848861246a565b835160000361162457866001600160a01b03167fb8e138887d0aa13bab447e82de9d5c1777041ecd21ca36ba824ff1e6c07ddda48988848960405161161794939291906135ef565b60405180910390a2610def565b866001600160a01b03167fe2babfbac5889a709b63bb7f598b324e08bc5a4fb9ec647fb3cbc9ec07eb87128988848989604051611665959493929190613617565b60405180910390a2979650505050505050565b60006116938254600f81810b600160801b909204900b131590565b156116b157604051631ed9509560e11b815260040160405180910390fd5b508054600f0b6000818152600180840160205260408220805492905583546fffffffffffffffffffffffffffffffff191692016001600160801b03169190911790915590565b606481111561177a5760405162461bcd60e51b815260206004820152604360248201527f476f7665726e6f72566f74657351756f72756d4672616374696f6e3a2071756f60448201527f72756d4e756d657261746f72206f7665722071756f72756d44656e6f6d696e616064820152623a37b960e91b608482015260a401610973565b6000611784610f90565b905080158015906117955750600654155b156117fa576040805180820190915260008152600690602081016117b884611229565b6001600160e01b0390811690915282546001810184556000938452602093849020835194909301519091166401000000000263ffffffff909316929092179101555b611805600683611296565b505060408051828152602081018490527f0553476bf02ef2726e8ce5ced78d63e26e602e4a2257b1f559418e24b4633997910160405180910390a15050565b3061184d610819565b6001600160a01b0316146111bc5760005b84518110156118dd57306001600160a01b03168582815181106118835761188361358e565b60200260200101516001600160a01b0316036118cd576118cd8382815181106118ae576118ae61358e565b60200260200101518051906020012060026125e490919063ffffffff16565b6118d68161365d565b905061185e565b505050505050565b6111bc8585858585612620565b306118fb610819565b6001600160a01b0316146111bc57600254600f81810b600160801b909204900b13156111bc5760006002556111bc565b6000610f708585858561194960408051602081019091526000815290565b611513565b60008061195a83612694565b9050600481600781111561197057611970612ef6565b1461197b5792915050565b60008381526008602052604090205480611996575092915050565b600754604051632ab0f52960e01b8152600481018390526001600160a01b0390911690632ab0f52990602401602060405180830381865afa1580156119df573d6000803e3d6000fd5b505050506040513d601f19601f82011682018060405250810190611a039190613676565b15611a12575060079392505050565b600754604051632c258a9f60e11b8152600481018390526001600160a01b039091169063584b153e90602401602060405180830381865afa158015611a5b573d6000803e3d6000fd5b505050506040513d601f19601f82011682018060405250810190611a7f9190613676565b15611a8e575060059392505050565b5060029392505050565b6000438210611ae95760405162461bcd60e51b815260206004820181905260248201527f436865636b706f696e74733a20626c6f636b206e6f7420796574206d696e65646044820152606401610973565b825460005b81811015611b4e576000611b0282846127a3565b905084866000018281548110611b1a57611b1a61358e565b60009182526020909120015463ffffffff161115611b3a57809250611b48565b611b4581600161355f565b91505b50611aee565b8115611b925784611b60600184613577565b81548110611b7057611b7061358e565b60009182526020909120015464010000000090046001600160e01b0316611b95565b60005b6001600160e01b031695945050505050565b600068056bc75e2d63100000611bc233610794600143613577565b1015611c2a5760405162461bcd60e51b815260206004820152603160248201527f476f7665726e6f723a2070726f706f73657220766f7465732062656c6f7720706044820152701c9bdc1bdcd85b081d1a1c995cda1bdb19607a1b6064820152608401610973565b6000611c3f86868686805190602001206111c3565b90508451865114611c625760405162461bcd60e51b815260040161097390613698565b8351865114611c835760405162461bcd60e51b815260040161097390613698565b6000865111611cd45760405162461bcd60e51b815260206004820152601860248201527f476f7665726e6f723a20656d7074792070726f706f73616c00000000000000006044820152606401610973565b600081815260016020908152604091829020825191820190925281546001600160401b03169081905215611d545760405162461bcd60e51b815260206004820152602160248201527f476f7665726e6f723a2070726f706f73616c20616c72656164792065786973746044820152607360f81b6064820152608401610973565b6000611d6060016127be565b611d69436127be565b611d7391906136d9565b90506000611d8261b2fa6127be565b611d8c90836136d9565b835467ffffffffffffffff19166001600160401b038416178455905060018301805467ffffffffffffffff19166001600160401b0383161790557f7d84a6263ae0d98d3329bd7b46bb4e8d6f98cd35a7adb45c274c8b7fd5ebd5e084338b8b8d516001600160401b03811115611e0457611e04612a3d565b604051908082528060200260200182016040528015611e3757816020015b6060815260200190600190039081611e225790505b508c88888e604051611e5199989796959493929190613704565b60405180910390a15091979650505050505050565b604051630748d63560e31b81526001600160a01b038481166004830152602482018490526000917f000000000000000000000000000000000000000000000000000000000000000090911690633a46b1a890604401602060405180830381865afa158015611ed8573d6000803e3d6000fd5b505050506040513d601f19601f82011682018060405250810190610f8691906133c1565b600754604080516001600160a01b03928316815291831660208301527f08f74ea46ef7894f65eabfb5e6e695de773a000b47c529ab559178069b226401910160405180910390a1600780546001600160a01b0319166001600160a01b0392909216919091179055565b6060610f8684848460405180606001604052806029815260200161385160299139612826565b60006064611f9883610e78565b604051632394e7a360e21b8152600481018590527f00000000000000000000000000000000000000000000000000000000000000006001600160a01b031690638e539e8c90602401602060405180830381865afa158015611ffd573d6000803e3d6000fd5b505050506040513d601f19601f8201168201806040525081019061202191906133c1565b61202b91906137f3565b61083d9190613812565b60006001600160e01b0319821663bf26d89760e01b148061206657506001600160e01b031982166379dd796f60e01b145b8061208157506001600160e01b03198216630271189760e51b145b8061083d57506301ffc9a760e01b6001600160e01b031983161461083d565b6000306001600160a01b037f0000000000000000000000000000000000000000000000000000000000000000161480156120f957507f000000000000000000000000000000000000000000000000000000000000000046145b1561212357507f000000000000000000000000000000000000000000000000000000000000000090565b50604080517f00000000000000000000000000000000000000000000000000000000000000006020808301919091527f0000000000000000000000000000000000000000000000000000000000000000828401527f000000000000000000000000000000000000000000000000000000000000000060608301524660808301523060a0808401919091528351808403909101815260c0909201909252805191012090565b6000807f7fffffffffffffffffffffffffffffff5d576e7357a4501ddfe92f46681b20a08311156121fe57506000905060036122ab565b8460ff16601b1415801561221657508460ff16601c14155b1561222757506000905060046122ab565b6040805160008082526020820180845289905260ff881692820192909252606081018690526080810185905260019060a0016020604051602081039080840390855afa15801561227b573d6000803e3d6000fd5b5050604051601f1901519150506001600160a01b0381166122a4576000600192509250506122ab565b9150600090505b94509492505050565b60008160048111156122c8576122c8612ef6565b036122d05750565b60018160048111156122e4576122e4612ef6565b036123315760405162461bcd60e51b815260206004820152601860248201527f45434453413a20696e76616c6964207369676e617475726500000000000000006044820152606401610973565b600281600481111561234557612345612ef6565b036123925760405162461bcd60e51b815260206004820152601f60248201527f45434453413a20696e76616c6964207369676e6174757265206c656e677468006044820152606401610973565b60038160048111156123a6576123a6612ef6565b036123fe5760405162461bcd60e51b815260206004820152602260248201527f45434453413a20696e76616c6964207369676e6174757265202773272076616c604482015261756560f01b6064820152608401610973565b600481600481111561241257612412612ef6565b036109cb5760405162461bcd60e51b815260206004820152602260248201527f45434453413a20696e76616c6964207369676e6174757265202776272076616c604482015261756560f01b6064820152608401610973565b60008581526004602090815260408083206001600160a01b0388168452600381019092529091205460ff16156124f25760405162461bcd60e51b815260206004820152602760248201527f476f7665726e6f72566f74696e6753696d706c653a20766f746520616c726561604482015266191e4818d85cdd60ca1b6064820152608401610973565b6001600160a01b03851660009081526003820160205260409020805460ff1916600117905560ff841661253e5782816000016000828254612533919061355f565b909155506118dd9050565b60001960ff85160161255e5782816001016000828254612533919061355f565b60011960ff85160161257e5782816002016000828254612533919061355f565b60405162461bcd60e51b815260206004820152603560248201527f476f7665726e6f72566f74696e6753696d706c653a20696e76616c69642076616044820152746c756520666f7220656e756d20566f74655479706560581b6064820152608401610973565b8154600160801b90819004600f0b6000818152600180860160205260409091209390935583546001600160801b03908116939091011602179055565b60075460405163e38335e560e01b81526001600160a01b039091169063e38335e590349061265b9088908890889060009089906004016134a3565b6000604051808303818588803b15801561267457600080fd5b505af1158015612688573d6000803e3d6000fd5b50505050505050505050565b6000818152600160205260408120600281015460ff16156126b85750600792915050565b6002810154610100900460ff16156126d35750600292915050565b60006126de84610d4d565b9050806000036127305760405162461bcd60e51b815260206004820152601d60248201527f476f7665726e6f723a20756e6b6e6f776e2070726f706f73616c2069640000006044820152606401610973565b438110612741575060009392505050565b600061274c856110cd565b905043811061276057506001949350505050565b6127698561294c565b8015612788575060008581526004602052604090208054600190910154115b1561279857506004949350505050565b506003949350505050565b60006127b26002848418613812565b610f899084841661355f565b60006001600160401b038211156112925760405162461bcd60e51b815260206004820152602660248201527f53616665436173743a2076616c756520646f65736e27742066697420696e203660448201526534206269747360d01b6064820152608401610973565b6060824710156128875760405162461bcd60e51b815260206004820152602660248201527f416464726573733a20696e73756666696369656e742062616c616e636520666f6044820152651c8818d85b1b60d21b6064820152608401610973565b6001600160a01b0385163b6128de5760405162461bcd60e51b815260206004820152601d60248201527f416464726573733a2063616c6c20746f206e6f6e2d636f6e74726163740000006044820152606401610973565b600080866001600160a01b031685876040516128fa9190613834565b60006040518083038185875af1925050503d8060008114612937576040519150601f19603f3d011682016040523d82523d6000602084013e61293c565b606091505b5091509150610def828286612983565b60008181526004602052604081206002810154600182015461296e919061355f565b61297a6107e085610d4d565b11159392505050565b60608315612992575081610f89565b8251156129a25782518084602001fd5b8160405162461bcd60e51b81526004016109739190612c15565b6000602082840312156129ce57600080fd5b81356001600160e01b031981168114610f8957600080fd5b803560ff811681146129f757600080fd5b919050565b60008083601f840112612a0e57600080fd5b5081356001600160401b03811115612a2557600080fd5b6020830191508360208285010111156113ba57600080fd5b634e487b7160e01b600052604160045260246000fd5b604051601f8201601f191681016001600160401b0381118282101715612a7b57612a7b612a3d565b604052919050565b60006001600160401b03831115612a9c57612a9c612a3d565b612aaf601f8401601f1916602001612a53565b9050828152838383011115612ac357600080fd5b828260208301376000602084830101529392505050565b600082601f830112612aeb57600080fd5b610f8983833560208501612a83565b60008060008060008060008060e0898b031215612b1657600080fd5b88359750612b2660208a016129e6565b965060408901356001600160401b0380821115612b4257600080fd5b612b4e8c838d016129fc565b909850965060608b0135915080821115612b6757600080fd5b50612b748b828c01612ada565b945050612b8360808a016129e6565b925060a0890135915060c089013590509295985092959890939650565b600060208284031215612bb257600080fd5b5035919050565b60005b83811015612bd4578181015183820152602001612bbc565b83811115612be3576000848401525b50505050565b60008151808452612c01816020860160208601612bb9565b601f01601f19169290920160200192915050565b602081526000610f896020830184612be9565b6001600160a01b03811681146109cb57600080fd5b60008060008060808587031215612c5357600080fd5b8435612c5e81612c28565b93506020850135612c6e81612c28565b92506040850135915060608501356001600160401b03811115612c9057600080fd5b612c9c87828801612ada565b91505092959194509250565b60006001600160401b03821115612cc157612cc1612a3d565b5060051b60200190565b600082601f830112612cdc57600080fd5b81356020612cf1612cec83612ca8565b612a53565b82815260059290921b84018101918181019086841115612d1057600080fd5b8286015b84811015612d34578035612d2781612c28565b8352918301918301612d14565b509695505050505050565b600082601f830112612d5057600080fd5b81356020612d60612cec83612ca8565b82815260059290921b84018101918181019086841115612d7f57600080fd5b8286015b84811015612d345780358352918301918301612d83565b600082601f830112612dab57600080fd5b81356020612dbb612cec83612ca8565b82815260059290921b84018101918181019086841115612dda57600080fd5b8286015b84811015612d345780356001600160401b03811115612dfd5760008081fd5b612e0b8986838b0101612ada565b845250918301918301612dde565b60008060008060808587031215612e2f57600080fd5b84356001600160401b0380821115612e4657600080fd5b612e5288838901612ccb565b95506020870135915080821115612e6857600080fd5b612e7488838901612d3f565b94506040870135915080821115612e8a57600080fd5b50612e9787828801612d9a565b949793965093946060013593505050565b600080600080600060a08688031215612ec057600080fd5b85359450612ed0602087016129e6565b9350612ede604087016129e6565b94979396509394606081013594506080013592915050565b634e487b7160e01b600052602160045260246000fd5b6020810160088310612f2e57634e487b7160e01b600052602160045260246000fd5b91905290565b60008060408385031215612f4757600080fd5b823591506020830135612f5981612c28565b809150509250929050565b60008060408385031215612f7757600080fd5b82359150612f87602084016129e6565b90509250929050565b600080600080600060808688031215612fa857600080fd5b85359450612fb8602087016129e6565b935060408601356001600160401b0380821115612fd457600080fd5b612fe089838a016129fc565b90955093506060880135915080821115612ff957600080fd5b5061300688828901612ada565b9150509295509295909350565b6000806000806060858703121561302957600080fd5b84359350613039602086016129e6565b925060408501356001600160401b0381111561305457600080fd5b613060878288016129fc565b95989497509550505050565b6000806000806080858703121561308257600080fd5b84356001600160401b038082111561309957600080fd5b6130a588838901612ccb565b955060208701359150808211156130bb57600080fd5b6130c788838901612d3f565b945060408701359150808211156130dd57600080fd5b6130e988838901612d9a565b935060608701359150808211156130ff57600080fd5b508501601f8101871361311157600080fd5b612c9c87823560208401612a83565b60008060006060848603121561313557600080fd5b833561314081612c28565b92506020840135915060408401356001600160401b0381111561316257600080fd5b61316e86828701612ada565b9150509250925092565b60006020828403121561318a57600080fd5b8135610f8981612c28565b600080600080600060a086880312156131ad57600080fd5b85356131b881612c28565b945060208601356131c881612c28565b935060408601356001600160401b03808211156131e457600080fd5b6131f089838a01612d3f565b9450606088013591508082111561320657600080fd5b61321289838a01612d3f565b93506080880135915080821115612ff957600080fd5b6000806000806060858703121561323e57600080fd5b843561324981612c28565b93506020850135925060408501356001600160401b0381111561305457600080fd5b6000806040838503121561327e57600080fd5b823561328981612c28565b946020939093013593505050565b600080600080600060a086880312156132af57600080fd5b85356132ba81612c28565b945060208601356132ca81612c28565b9350604086013592506060860135915060808601356001600160401b038111156132f357600080fd5b61300688828901612ada565b8183823760009101908152919050565b60208082526018908201527f476f7665726e6f723a206f6e6c79476f7665726e616e63650000000000000000604082015260600190565b600181811c9082168061335a57607f821691505b60208210810361337a57634e487b7160e01b600052602260045260246000fd5b50919050565b60208082526021908201527f476f7665726e6f723a2070726f706f73616c206e6f74207375636365737366756040820152601b60fa1b606082015260800190565b6000602082840312156133d357600080fd5b5051919050565b600081518084526020808501945080840160005b838110156134135781516001600160a01b0316875295820195908201906001016133ee565b509495945050505050565b600081518084526020808501945080840160005b8381101561341357815187529582019590820190600101613432565b600081518084526020808501808196508360051b8101915082860160005b85811015613496578284038952613484848351612be9565b9885019893509084019060010161346c565b5091979650505050505050565b60a0815260006134b660a08301886133da565b82810360208401526134c8818861341e565b905082810360408401526134dc818761344e565b60608401959095525050608001529392505050565b60c08152600061350460c08301896133da565b8281036020840152613516818961341e565b9050828103604084015261352a818861344e565b60608401969096525050608081019290925260a0909101529392505050565b634e487b7160e01b600052601160045260246000fd5b6000821982111561357257613572613549565b500190565b60008282101561358957613589613549565b500390565b634e487b7160e01b600052603260045260246000fd5b6080815260006135b760808301876133da565b82810360208401526135c9818761341e565b905082810360408401526135dd818661344e565b91505082606083015295945050505050565b84815260ff84166020820152826040820152608060608201526000610f586080830184612be9565b85815260ff8516602082015283604082015260a06060820152600061363f60a0830185612be9565b82810360808401526136518185612be9565b98975050505050505050565b60006001820161366f5761366f613549565b5060010190565b60006020828403121561368857600080fd5b81518015158114610f8957600080fd5b60208082526021908201527f476f7665726e6f723a20696e76616c69642070726f706f73616c206c656e67746040820152600d60fb1b606082015260800190565b60006001600160401b038083168185168083038211156136fb576136fb613549565b01949350505050565b60006101208b8352602060018060a01b038c168185015281604085015261372d8285018c6133da565b91508382036060850152613741828b61341e565b915083820360808501528189518084528284019150828160051b850101838c0160005b8381101561379257601f19878403018552613780838351612be9565b94860194925090850190600101613764565b505086810360a08801526137a6818c61344e565b9450505050506137c160c08401876001600160401b03169052565b6001600160401b03851660e08401528281036101008401526137e38185612be9565b9c9b505050505050505050505050565b600081600019048311821515161561380d5761380d613549565b500290565b60008261382f57634e487b7160e01b600052601260045260246000fd5b500490565b60008251613846818460208701612bb9565b919091019291505056fe416464726573733a206c6f772d6c6576656c2063616c6c20776974682076616c7565206661696c6564a26469706673582212209bd71b2b70010ddeb3a532d6a7b506176145b2fbe38292a68d7905ac2de7a3b964736f6c634300080d0033a264697066735822122050ddbecc06540e269d4844cf82e7268064aa186814f3f6a51b92d5852ffa2dcf64736f6c634300080d0033",
  "immutableReferences": {},
  "source": "// SPDX-License-Identifier: GPL-3.0\npragma solidity ^0.8.0;\n\n// import \"@openzeppelin/contracts@4.7.1/token/ERC20/ERC20.sol\";\nimport \"@openzeppelin/contracts/access/Ownable.sol\";\nimport \"@openzeppelin/contracts/governance/TimelockController.sol\";\nimport \"@openzeppelin/contracts/governance/extensions/GovernorVotes.sol\";\nimport \"./MyGovernor.sol\";\n\ncontract GovernorFactory is Ownable {\n\n    function createTimelock(address[] calldata proposers, address[] calldata executors) public returns(address) {\n        return address(new TimelockController(3600, proposers, executors));\n    }\n\n    function createGovernor(IVotes _token, TimelockController _timelock) public returns(address){\n        return address(new MyGovernor(_token, _timelock));\n    }\n}",
  "sourcePath": "/Users/yaksheshgupta/Desktop/equistart-1/contracts/contracts/GovernorFactory.sol",
  "compiler": {
    "name": "solc",
    "version": "0.8.13+commit.abaa5c0e.Emscripten.clang"
  },
  "schemaVersion": "3.4.7",
  "updatedAt": "2022-09-09T13:44:47.324Z",
  "devdoc": {
    "kind": "dev",
    "methods": {
      "owner()": {
        "details": "Returns the address of the current owner."
      },
      "renounceOwnership()": {
        "details": "Leaves the contract without owner. It will not be possible to call `onlyOwner` functions anymore. Can only be called by the current owner. NOTE: Renouncing ownership will leave the contract without an owner, thereby removing any functionality that is only available to the owner."
      },
      "transferOwnership(address)": {
        "details": "Transfers ownership of the contract to a new account (`newOwner`). Can only be called by the current owner."
      }
    },
    "version": 1
  },
  "userdoc": {
    "kind": "user",
    "methods": {},
    "version": 1
  }
}