{
  "contractName": "GovernorFactory",
  "abi": [
    {
      "anonymous": false,
      "inputs": [
        {
          "indexed": true,
          "internalType": "address",
          "name": "previousOwner",
          "type": "address"
        },
        {
          "indexed": true,
          "internalType": "address",
          "name": "newOwner",
          "type": "address"
        }
      ],
      "name": "OwnershipTransferred",
      "type": "event"
    },
    {
      "inputs": [],
      "name": "owner",
      "outputs": [
        {
          "internalType": "address",
          "name": "",
          "type": "address"
        }
      ],
      "stateMutability": "view",
      "type": "function"
    },
    {
      "inputs": [],
      "name": "renounceOwnership",
      "outputs": [],
      "stateMutability": "nonpayable",
      "type": "function"
    },
    {
      "inputs": [
        {
          "internalType": "address",
          "name": "newOwner",
          "type": "address"
        }
      ],
      "name": "transferOwnership",
      "outputs": [],
      "stateMutability": "nonpayable",
      "type": "function"
    },
    {
      "inputs": [
        {
          "internalType": "address[]",
          "name": "proposers",
          "type": "address[]"
        },
        {
          "internalType": "address[]",
          "name": "executors",
          "type": "address[]"
        }
      ],
      "name": "createTimelock",
      "outputs": [
        {
          "internalType": "address",
          "name": "",
          "type": "address"
        }
      ],
      "stateMutability": "nonpayable",
      "type": "function"
    },
    {
      "inputs": [
        {
          "internalType": "contract IVotes",
          "name": "_token",
          "type": "address"
        },
        {
          "internalType": "contract TimelockController",
          "name": "_timelock",
          "type": "address"
        }
      ],
      "name": "createGovernor",
      "outputs": [
        {
          "internalType": "address",
          "name": "",
          "type": "address"
        }
      ],
      "stateMutability": "nonpayable",
      "type": "function"
    }
  ],
  "bytecode": "0x608060405234801561001057600080fd5b5061002d61002261003260201b60201c565b61003a60201b60201c565b6100fe565b600033905090565b60008060009054906101000a900473ffffffffffffffffffffffffffffffffffffffff169050816000806101000a81548173ffffffffffffffffffffffffffffffffffffffff021916908373ffffffffffffffffffffffffffffffffffffffff1602179055508173ffffffffffffffffffffffffffffffffffffffff168173ffffffffffffffffffffffffffffffffffffffff167f8be0079c531659141344cd1fd0a4f28419497f9722a3daafe3b4186f6b6457e060405160405180910390a35050565b61baa8806200010e6000396000f3fe60806040523480156200001157600080fd5b50600436106200005e5760003560e01c80630378918c1462000063578063715018a6146200009957806384c1eac614620000a55780638da5cb5b14620000db578063f2fde38b14620000fd575b600080fd5b6200008160048036038101906200007b919062000461565b6200011d565b60405162000090919062000534565b60405180910390f35b620000a36200016c565b005b620000c36004803603810190620000bd9190620005ef565b62000184565b604051620000d2919062000534565b60405180910390f35b620000e5620001c9565b604051620000f4919062000534565b60405180910390f35b6200011b600480360381019062000115919062000667565b620001f2565b005b6000610e10858585856040516200013490620003cd565b62000144959493929190620007c5565b604051809103906000f08015801562000161573d6000803e3d6000fd5b509050949350505050565b620001766200027c565b62000182600062000301565b565b600082826040516200019690620003db565b620001a3929190620008ae565b604051809103906000f080158015620001c0573d6000803e3d6000fd5b50905092915050565b60008060009054906101000a900473ffffffffffffffffffffffffffffffffffffffff16905090565b620001fc6200027c565b600073ffffffffffffffffffffffffffffffffffffffff168173ffffffffffffffffffffffffffffffffffffffff16036200026e576040517f08c379a0000000000000000000000000000000000000000000000000000000008152600401620002659062000962565b60405180910390fd5b620002798162000301565b50565b62000286620003c5565b73ffffffffffffffffffffffffffffffffffffffff16620002a6620001c9565b73ffffffffffffffffffffffffffffffffffffffff1614620002ff576040517f08c379a0000000000000000000000000000000000000000000000000000000008152600401620002f690620009d4565b60405180910390fd5b565b60008060009054906101000a900473ffffffffffffffffffffffffffffffffffffffff169050816000806101000a81548173ffffffffffffffffffffffffffffffffffffffff021916908373ffffffffffffffffffffffffffffffffffffffff1602179055508173ffffffffffffffffffffffffffffffffffffffff168173ffffffffffffffffffffffffffffffffffffffff167f8be0079c531659141344cd1fd0a4f28419497f9722a3daafe3b4186f6b6457e060405160405180910390a35050565b600033905090565b613c0c80620009f783390190565b617470806200460383390190565b600080fd5b600080fd5b600080fd5b600080fd5b600080fd5b60008083601f8401126200041b576200041a620003f3565b5b8235905067ffffffffffffffff8111156200043b576200043a620003f8565b5b6020830191508360208202830111156200045a5762000459620003fd565b5b9250929050565b600080600080604085870312156200047e576200047d620003e9565b5b600085013567ffffffffffffffff8111156200049f576200049e620003ee565b5b620004ad8782880162000402565b9450945050602085013567ffffffffffffffff811115620004d357620004d2620003ee565b5b620004e18782880162000402565b925092505092959194509250565b600073ffffffffffffffffffffffffffffffffffffffff82169050919050565b60006200051c82620004ef565b9050919050565b6200052e816200050f565b82525050565b60006020820190506200054b600083018462000523565b92915050565b60006200055e826200050f565b9050919050565b620005708162000551565b81146200057c57600080fd5b50565b600081359050620005908162000565565b92915050565b6000620005a382620004ef565b9050919050565b6000620005b78262000596565b9050919050565b620005c981620005aa565b8114620005d557600080fd5b50565b600081359050620005e981620005be565b92915050565b60008060408385031215620006095762000608620003e9565b5b600062000619858286016200057f565b92505060206200062c85828601620005d8565b9150509250929050565b62000641816200050f565b81146200064d57600080fd5b50565b600081359050620006618162000636565b92915050565b60006020828403121562000680576200067f620003e9565b5b6000620006908482850162000650565b91505092915050565b6000819050919050565b6000819050919050565b6000819050919050565b6000620006d8620006d2620006cc8462000699565b620006ad565b620006a3565b9050919050565b620006ea81620006b7565b82525050565b600082825260208201905092915050565b6000819050919050565b62000716816200050f565b82525050565b60006200072a83836200070b565b60208301905092915050565b600062000747602084018462000650565b905092915050565b6000602082019050919050565b60006200076a8385620006f0565b9350620007778262000701565b8060005b85811015620007b85762000790828462000736565b6200079c88826200071c565b9750620007a9836200074f565b9250506001810190506200077b565b5085925050509392505050565b6000606082019050620007dc6000830188620006df565b8181036020830152620007f18186886200075c565b90508181036040830152620008088184866200075c565b90509695505050505050565b6000620008356200082f6200082984620004ef565b620006ad565b620004ef565b9050919050565b6000620008498262000814565b9050919050565b60006200085d826200083c565b9050919050565b6200086f8162000850565b82525050565b6000620008828262000814565b9050919050565b6000620008968262000875565b9050919050565b620008a88162000889565b82525050565b6000604082019050620008c5600083018562000864565b620008d460208301846200089d565b9392505050565b600082825260208201905092915050565b7f4f776e61626c653a206e6577206f776e657220697320746865207a65726f206160008201527f6464726573730000000000000000000000000000000000000000000000000000602082015250565b60006200094a602683620008db565b91506200095782620008ec565b604082019050919050565b600060208201905081810360008301526200097d816200093b565b9050919050565b7f4f776e61626c653a2063616c6c6572206973206e6f7420746865206f776e6572600082015250565b6000620009bc602083620008db565b9150620009c98262000984565b602082019050919050565b60006020820190508181036000830152620009ef81620009ad565b905091905056fe60806040523480156200001157600080fd5b5060405162003c0c38038062003c0c833981810160405281019062000037919062000773565b620000697f5f58e3a2316349923ce3780f8d587db2d72378aed66a8261c916544fa6846ca5806200034f60201b60201c565b620000bb7fb09aa5aeb3702cfd50b6b62bc4532604938f21248a27a1d5ca736082b6819cc17f5f58e3a2316349923ce3780f8d587db2d72378aed66a8261c916544fa6846ca56200034f60201b60201c565b6200010d7fd8aa0f3194971a2a116679f7c2090f6939c8d4e01a2a8d7e41d55e5351469e637f5f58e3a2316349923ce3780f8d587db2d72378aed66a8261c916544fa6846ca56200034f60201b60201c565b6200015f7ffd643c72710c63c0180259aba6b2d05451e3591a24e58b62239378085726f7837f5f58e3a2316349923ce3780f8d587db2d72378aed66a8261c916544fa6846ca56200034f60201b60201c565b620001a07f5f58e3a2316349923ce3780f8d587db2d72378aed66a8261c916544fa6846ca562000194620003b260201b60201c565b620003ba60201b60201c565b620001d27f5f58e3a2316349923ce3780f8d587db2d72378aed66a8261c916544fa6846ca530620003ba60201b60201c565b60005b825181101562000291576200022e7fb09aa5aeb3702cfd50b6b62bc4532604938f21248a27a1d5ca736082b6819cc18483815181106200021a57620002196200080d565b5b6020026020010151620003ba60201b60201c565b6200027d7ffd643c72710c63c0180259aba6b2d05451e3591a24e58b62239378085726f7838483815181106200026957620002686200080d565b5b6020026020010151620003ba60201b60201c565b8062000289906200086b565b9050620001d5565b5060005b81518110156200030257620002ee7fd8aa0f3194971a2a116679f7c2090f6939c8d4e01a2a8d7e41d55e5351469e63838381518110620002da57620002d96200080d565b5b6020026020010151620003ba60201b60201c565b80620002fa906200086b565b905062000295565b50826002819055507f11c24f4ead16507c69ac467fbd5e4eed5fb5c699626d2cc6d66421df253886d56000846040516200033e92919062000916565b60405180910390a150505062000943565b60006200036283620003d060201b60201c565b905081600080858152602001908152602001600020600101819055508181847fbd79b86ffe0ab8e8776151514217cd7cacd52c909f66475c3af44e129f0b00ff60405160405180910390a4505050565b600033905090565b620003cc8282620003ef60201b60201c565b5050565b6000806000838152602001908152602001600020600101549050919050565b620004018282620004e060201b60201c565b620004dc57600160008084815260200190815260200160002060000160008373ffffffffffffffffffffffffffffffffffffffff1673ffffffffffffffffffffffffffffffffffffffff16815260200190815260200160002060006101000a81548160ff02191690831515021790555062000481620003b260201b60201c565b73ffffffffffffffffffffffffffffffffffffffff168173ffffffffffffffffffffffffffffffffffffffff16837f2f8788117e7eff1d82e926ec794901d17c78024a50270940304540a733656f0d60405160405180910390a45b5050565b600080600084815260200190815260200160002060000160008373ffffffffffffffffffffffffffffffffffffffff1673ffffffffffffffffffffffffffffffffffffffff16815260200190815260200160002060009054906101000a900460ff16905092915050565b6000604051905090565b600080fd5b600080fd5b6000819050919050565b62000573816200055e565b81146200057f57600080fd5b50565b600081519050620005938162000568565b92915050565b600080fd5b6000601f19601f8301169050919050565b7f4e487b7100000000000000000000000000000000000000000000000000000000600052604160045260246000fd5b620005e9826200059e565b810181811067ffffffffffffffff821117156200060b576200060a620005af565b5b80604052505050565b6000620006206200054a565b90506200062e8282620005de565b919050565b600067ffffffffffffffff821115620006515762000650620005af565b5b602082029050602081019050919050565b600080fd5b600073ffffffffffffffffffffffffffffffffffffffff82169050919050565b6000620006948262000667565b9050919050565b620006a68162000687565b8114620006b257600080fd5b50565b600081519050620006c6816200069b565b92915050565b6000620006e3620006dd8462000633565b62000614565b9050808382526020820190506020840283018581111562000709576200070862000662565b5b835b81811015620007365780620007218882620006b5565b8452602084019350506020810190506200070b565b5050509392505050565b600082601f83011262000758576200075762000599565b5b81516200076a848260208601620006cc565b91505092915050565b6000806000606084860312156200078f576200078e62000554565b5b60006200079f8682870162000582565b935050602084015167ffffffffffffffff811115620007c357620007c262000559565b5b620007d18682870162000740565b925050604084015167ffffffffffffffff811115620007f557620007f462000559565b5b620008038682870162000740565b9150509250925092565b7f4e487b7100000000000000000000000000000000000000000000000000000000600052603260045260246000fd5b7f4e487b7100000000000000000000000000000000000000000000000000000000600052601160045260246000fd5b600062000878826200055e565b91507fffffffffffffffffffffffffffffffffffffffffffffffffffffffffffffffff8203620008ad57620008ac6200083c565b5b600182019050919050565b6000819050919050565b6000819050919050565b6000620008ed620008e7620008e184620008b8565b620008c2565b6200055e565b9050919050565b620008ff81620008cc565b82525050565b62000910816200055e565b82525050565b60006040820190506200092d6000830185620008f4565b6200093c602083018462000905565b9392505050565b6132b980620009536000396000f3fe6080604052600436106101bb5760003560e01c80638065657f116100ec578063bc197c811161008a578063d547741f11610064578063d547741f1461068c578063e38335e5146106b5578063f23a6e61146106d1578063f27a0c921461070e576101c2565b8063bc197c81146105e9578063c4d252f514610626578063d45c44351461064f576101c2565b806391d14854116100c657806391d1485414610519578063a217fddf14610556578063b08e51c014610581578063b1c5f427146105ac576101c2565b80638065657f146104885780638f2a0bb0146104c55780638f61f4f5146104ee576101c2565b8063248a9ca31161015957806331d507501161013357806331d50750146103bc57806336568abe146103f9578063584b153e1461042257806364d623531461045f576101c2565b8063248a9ca3146103195780632ab0f529146103565780632f2ff15d14610393576101c2565b80630d3cf6fc116101955780630d3cf6fc14610258578063134008d31461028357806313bc9f201461029f578063150b7a02146102dc576101c2565b806301d5062a146101c757806301ffc9a7146101f057806307bd02651461022d576101c2565b366101c257005b600080fd5b3480156101d357600080fd5b506101ee60048036038101906101e99190611a8b565b610739565b005b3480156101fc57600080fd5b5061021760048036038101906102129190611b92565b6107ce565b6040516102249190611bda565b60405180910390f35b34801561023957600080fd5b50610242610848565b60405161024f9190611c04565b60405180910390f35b34801561026457600080fd5b5061026d61086c565b60405161027a9190611c04565b60405180910390f35b61029d60048036038101906102989190611c1f565b610890565b005b3480156102ab57600080fd5b506102c660048036038101906102c19190611cb9565b61094d565b6040516102d39190611bda565b60405180910390f35b3480156102e857600080fd5b5061030360048036038101906102fe9190611e27565b610973565b6040516103109190611eb9565b60405180910390f35b34801561032557600080fd5b50610340600480360381019061033b9190611cb9565b610987565b60405161034d9190611c04565b60405180910390f35b34801561036257600080fd5b5061037d60048036038101906103789190611cb9565b6109a6565b60405161038a9190611bda565b60405180910390f35b34801561039f57600080fd5b506103ba60048036038101906103b59190611ed4565b6109bb565b005b3480156103c857600080fd5b506103e360048036038101906103de9190611cb9565b6109dc565b6040516103f09190611bda565b60405180910390f35b34801561040557600080fd5b50610420600480360381019061041b9190611ed4565b6109f0565b005b34801561042e57600080fd5b5061044960048036038101906104449190611cb9565b610a73565b6040516104569190611bda565b60405180910390f35b34801561046b57600080fd5b5061048660048036038101906104819190611f14565b610a88565b005b34801561049457600080fd5b506104af60048036038101906104aa9190611c1f565b610b3b565b6040516104bc9190611c04565b60405180910390f35b3480156104d157600080fd5b506104ec60048036038101906104e79190612043565b610b7a565b005b3480156104fa57600080fd5b50610503610d25565b6040516105109190611c04565b60405180910390f35b34801561052557600080fd5b50610540600480360381019061053b9190611ed4565b610d49565b60405161054d9190611bda565b60405180910390f35b34801561056257600080fd5b5061056b610db3565b6040516105789190611c04565b60405180910390f35b34801561058d57600080fd5b50610596610dba565b6040516105a39190611c04565b60405180910390f35b3480156105b857600080fd5b506105d360048036038101906105ce9190612132565b610dde565b6040516105e09190611c04565b60405180910390f35b3480156105f557600080fd5b50610610600480360381019061060b91906122d1565b610e23565b60405161061d9190611eb9565b60405180910390f35b34801561063257600080fd5b5061064d60048036038101906106489190611cb9565b610e38565b005b34801561065b57600080fd5b5061067660048036038101906106719190611cb9565b610ef2565b60405161068391906123af565b60405180910390f35b34801561069857600080fd5b506106b360048036038101906106ae9190611ed4565b610f0f565b005b6106cf60048036038101906106ca9190612132565b610f30565b005b3480156106dd57600080fd5b506106f860048036038101906106f391906123ca565b61111a565b6040516107059190611eb9565b60405180910390f35b34801561071a57600080fd5b5061072361112f565b60405161073091906123af565b60405180910390f35b7fb09aa5aeb3702cfd50b6b62bc4532604938f21248a27a1d5ca736082b6819cc161076381611139565b6000610773898989898989610b3b565b905061077f818461114d565b6000817f4cf4410cc57040e44862ef0f45f3dd5a5e02db8eb8add648d4b0e236f1d07dca8b8b8b8b8b8a6040516107bb969594939291906124ae565b60405180910390a3505050505050505050565b60007f4e2312e0000000000000000000000000000000000000000000000000000000007bffffffffffffffffffffffffffffffffffffffffffffffffffffffff1916827bffffffffffffffffffffffffffffffffffffffffffffffffffffffff19161480610841575061084082611207565b5b9050919050565b7fd8aa0f3194971a2a116679f7c2090f6939c8d4e01a2a8d7e41d55e5351469e6381565b7f5f58e3a2316349923ce3780f8d587db2d72378aed66a8261c916544fa6846ca581565b7fd8aa0f3194971a2a116679f7c2090f6939c8d4e01a2a8d7e41d55e5351469e636108bc816000610d49565b6108d2576108d1816108cc611281565b611289565b5b60006108e2888888888888610b3b565b90506108ee8185611326565b6108fa888888886113c7565b6000817fc2617efa69bab66782fa219543714338489c4e9e178271560a91b82c3f612b588a8a8a8a604051610932949392919061250a565b60405180910390a36109438161147e565b5050505050505050565b60008061095983610ef2565b905060018111801561096b5750428111155b915050919050565b600063150b7a0260e01b9050949350505050565b6000806000838152602001908152602001600020600101549050919050565b600060016109b383610ef2565b149050919050565b6109c482610987565b6109cd81611139565b6109d783836114e1565b505050565b6000806109e883610ef2565b119050919050565b6109f8611281565b73ffffffffffffffffffffffffffffffffffffffff168173ffffffffffffffffffffffffffffffffffffffff1614610a65576040517f08c379a0000000000000000000000000000000000000000000000000000000008152600401610a5c906125cd565b60405180910390fd5b610a6f82826115c1565b5050565b60006001610a8083610ef2565b119050919050565b3073ffffffffffffffffffffffffffffffffffffffff163373ffffffffffffffffffffffffffffffffffffffff1614610af6576040517f08c379a0000000000000000000000000000000000000000000000000000000008152600401610aed9061265f565b60405180910390fd5b7f11c24f4ead16507c69ac467fbd5e4eed5fb5c699626d2cc6d66421df253886d560025482604051610b2992919061267f565b60405180910390a18060028190555050565b6000868686868686604051602001610b58969594939291906126a8565b6040516020818303038152906040528051906020012090509695505050505050565b7fb09aa5aeb3702cfd50b6b62bc4532604938f21248a27a1d5ca736082b6819cc1610ba481611139565b878790508a8a905014610bec576040517f08c379a0000000000000000000000000000000000000000000000000000000008152600401610be390612776565b60405180910390fd5b858590508a8a905014610c34576040517f08c379a0000000000000000000000000000000000000000000000000000000008152600401610c2b90612776565b60405180910390fd5b6000610c468b8b8b8b8b8b8b8b610dde565b9050610c52818461114d565b60005b8b8b9050811015610d175780827f4cf4410cc57040e44862ef0f45f3dd5a5e02db8eb8add648d4b0e236f1d07dca8e8e85818110610c9657610c95612796565b5b9050602002016020810190610cab91906127c5565b8d8d86818110610cbe57610cbd612796565b5b905060200201358c8c87818110610cd857610cd7612796565b5b9050602002810190610cea9190612801565b8c8b604051610cfe969594939291906124ae565b60405180910390a380610d1090612893565b9050610c55565b505050505050505050505050565b7fb09aa5aeb3702cfd50b6b62bc4532604938f21248a27a1d5ca736082b6819cc181565b600080600084815260200190815260200160002060000160008373ffffffffffffffffffffffffffffffffffffffff1673ffffffffffffffffffffffffffffffffffffffff16815260200190815260200160002060009054906101000a900460ff16905092915050565b6000801b81565b7ffd643c72710c63c0180259aba6b2d05451e3591a24e58b62239378085726f78381565b60008888888888888888604051602001610dff989796959493929190612b74565b60405160208183030381529060405280519060200120905098975050505050505050565b600063bc197c8160e01b905095945050505050565b7ffd643c72710c63c0180259aba6b2d05451e3591a24e58b62239378085726f783610e6281611139565b610e6b82610a73565b610eaa576040517f08c379a0000000000000000000000000000000000000000000000000000000008152600401610ea190612c54565b60405180910390fd5b6001600083815260200190815260200160002060009055817fbaa1eb22f2a492ba1a5fea61b8df4d27c6c8b5f3971e63bb58fa14ff72eedb7060405160405180910390a25050565b600060016000838152602001908152602001600020549050919050565b610f1882610987565b610f2181611139565b610f2b83836115c1565b505050565b7fd8aa0f3194971a2a116679f7c2090f6939c8d4e01a2a8d7e41d55e5351469e63610f5c816000610d49565b610f7257610f7181610f6c611281565b611289565b5b868690508989905014610fba576040517f08c379a0000000000000000000000000000000000000000000000000000000008152600401610fb190612776565b60405180910390fd5b848490508989905014611002576040517f08c379a0000000000000000000000000000000000000000000000000000000008152600401610ff990612776565b60405180910390fd5b60006110148a8a8a8a8a8a8a8a610dde565b90506110208185611326565b60005b8a8a90508110156111045760008b8b8381811061104357611042612796565b5b905060200201602081019061105891906127c5565b905060008a8a8481811061106f5761106e612796565b5b9050602002013590503660008a8a8681811061108e5761108d612796565b5b90506020028101906110a09190612801565b915091506110b0848484846113c7565b84867fc2617efa69bab66782fa219543714338489c4e9e178271560a91b82c3f612b58868686866040516110e7949392919061250a565b60405180910390a350505050806110fd90612893565b9050611023565b5061110e8161147e565b50505050505050505050565b600063f23a6e6160e01b905095945050505050565b6000600254905090565b61114a81611145611281565b611289565b50565b611156826109dc565b15611196576040517f08c379a000000000000000000000000000000000000000000000000000000000815260040161118d90612ce6565b60405180910390fd5b61119e61112f565b8110156111e0576040517f08c379a00000000000000000000000000000000000000000000000000000000081526004016111d790612d78565b60405180910390fd5b80426111ec9190612d98565b60016000848152602001908152602001600020819055505050565b60007f7965db0b000000000000000000000000000000000000000000000000000000007bffffffffffffffffffffffffffffffffffffffffffffffffffffffff1916827bffffffffffffffffffffffffffffffffffffffffffffffffffffffff1916148061127a5750611279826116a2565b5b9050919050565b600033905090565b6112938282610d49565b611322576112b88173ffffffffffffffffffffffffffffffffffffffff16601461170c565b6112c68360001c602061170c565b6040516020016112d7929190612f00565b6040516020818303038152906040526040517f08c379a00000000000000000000000000000000000000000000000000000000081526004016113199190612f73565b60405180910390fd5b5050565b61132f8261094d565b61136e576040517f08c379a000000000000000000000000000000000000000000000000000000000815260040161136590613007565b60405180910390fd5b6000801b8114806113845750611383816109a6565b5b6113c3576040517f08c379a00000000000000000000000000000000000000000000000000000000081526004016113ba90613099565b60405180910390fd5b5050565b60008473ffffffffffffffffffffffffffffffffffffffff168484846040516113f19291906130e9565b60006040518083038185875af1925050503d806000811461142e576040519150601f19603f3d011682016040523d82523d6000602084013e611433565b606091505b5050905080611477576040517f08c379a000000000000000000000000000000000000000000000000000000000815260040161146e90613174565b60405180910390fd5b5050505050565b6114878161094d565b6114c6576040517f08c379a00000000000000000000000000000000000000000000000000000000081526004016114bd90613007565b60405180910390fd5b60018060008381526020019081526020016000208190555050565b6114eb8282610d49565b6115bd57600160008084815260200190815260200160002060000160008373ffffffffffffffffffffffffffffffffffffffff1673ffffffffffffffffffffffffffffffffffffffff16815260200190815260200160002060006101000a81548160ff021916908315150217905550611562611281565b73ffffffffffffffffffffffffffffffffffffffff168173ffffffffffffffffffffffffffffffffffffffff16837f2f8788117e7eff1d82e926ec794901d17c78024a50270940304540a733656f0d60405160405180910390a45b5050565b6115cb8282610d49565b1561169e57600080600084815260200190815260200160002060000160008373ffffffffffffffffffffffffffffffffffffffff1673ffffffffffffffffffffffffffffffffffffffff16815260200190815260200160002060006101000a81548160ff021916908315150217905550611643611281565b73ffffffffffffffffffffffffffffffffffffffff168173ffffffffffffffffffffffffffffffffffffffff16837ff6391f5c32d9c69d2a47ea670b442974b53935d1edc7fd64eb21e047a839171b60405160405180910390a45b5050565b60007f01ffc9a7000000000000000000000000000000000000000000000000000000007bffffffffffffffffffffffffffffffffffffffffffffffffffffffff1916827bffffffffffffffffffffffffffffffffffffffffffffffffffffffff1916149050919050565b60606000600283600261171f9190613194565b6117299190612d98565b67ffffffffffffffff81111561174257611741611cfc565b5b6040519080825280601f01601f1916602001820160405280156117745781602001600182028036833780820191505090505b5090507f3000000000000000000000000000000000000000000000000000000000000000816000815181106117ac576117ab612796565b5b60200101907effffffffffffffffffffffffffffffffffffffffffffffffffffffffffffff1916908160001a9053507f7800000000000000000000000000000000000000000000000000000000000000816001815181106118105761180f612796565b5b60200101907effffffffffffffffffffffffffffffffffffffffffffffffffffffffffffff1916908160001a905350600060018460026118509190613194565b61185a9190612d98565b90505b60018111156118fa577f3031323334353637383961626364656600000000000000000000000000000000600f86166010811061189c5761189b612796565b5b1a60f81b8282815181106118b3576118b2612796565b5b60200101907effffffffffffffffffffffffffffffffffffffffffffffffffffffffffffff1916908160001a905350600485901c9450806118f3906131ee565b905061185d565b506000841461193e576040517f08c379a000000000000000000000000000000000000000000000000000000000815260040161193590613263565b60405180910390fd5b8091505092915050565b6000604051905090565b600080fd5b600080fd5b600073ffffffffffffffffffffffffffffffffffffffff82169050919050565b60006119878261195c565b9050919050565b6119978161197c565b81146119a257600080fd5b50565b6000813590506119b48161198e565b92915050565b6000819050919050565b6119cd816119ba565b81146119d857600080fd5b50565b6000813590506119ea816119c4565b92915050565b600080fd5b600080fd5b600080fd5b60008083601f840112611a1557611a146119f0565b5b8235905067ffffffffffffffff811115611a3257611a316119f5565b5b602083019150836001820283011115611a4e57611a4d6119fa565b5b9250929050565b6000819050919050565b611a6881611a55565b8114611a7357600080fd5b50565b600081359050611a8581611a5f565b92915050565b600080600080600080600060c0888a031215611aaa57611aa9611952565b5b6000611ab88a828b016119a5565b9750506020611ac98a828b016119db565b965050604088013567ffffffffffffffff811115611aea57611ae9611957565b5b611af68a828b016119ff565b95509550506060611b098a828b01611a76565b9350506080611b1a8a828b01611a76565b92505060a0611b2b8a828b016119db565b91505092959891949750929550565b60007fffffffff0000000000000000000000000000000000000000000000000000000082169050919050565b611b6f81611b3a565b8114611b7a57600080fd5b50565b600081359050611b8c81611b66565b92915050565b600060208284031215611ba857611ba7611952565b5b6000611bb684828501611b7d565b91505092915050565b60008115159050919050565b611bd481611bbf565b82525050565b6000602082019050611bef6000830184611bcb565b92915050565b611bfe81611a55565b82525050565b6000602082019050611c196000830184611bf5565b92915050565b60008060008060008060a08789031215611c3c57611c3b611952565b5b6000611c4a89828a016119a5565b9650506020611c5b89828a016119db565b955050604087013567ffffffffffffffff811115611c7c57611c7b611957565b5b611c8889828a016119ff565b94509450506060611c9b89828a01611a76565b9250506080611cac89828a01611a76565b9150509295509295509295565b600060208284031215611ccf57611cce611952565b5b6000611cdd84828501611a76565b91505092915050565b600080fd5b6000601f19601f8301169050919050565b7f4e487b7100000000000000000000000000000000000000000000000000000000600052604160045260246000fd5b611d3482611ceb565b810181811067ffffffffffffffff82111715611d5357611d52611cfc565b5b80604052505050565b6000611d66611948565b9050611d728282611d2b565b919050565b600067ffffffffffffffff821115611d9257611d91611cfc565b5b611d9b82611ceb565b9050602081019050919050565b82818337600083830152505050565b6000611dca611dc584611d77565b611d5c565b905082815260208101848484011115611de657611de5611ce6565b5b611df1848285611da8565b509392505050565b600082601f830112611e0e57611e0d6119f0565b5b8135611e1e848260208601611db7565b91505092915050565b60008060008060808587031215611e4157611e40611952565b5b6000611e4f878288016119a5565b9450506020611e60878288016119a5565b9350506040611e71878288016119db565b925050606085013567ffffffffffffffff811115611e9257611e91611957565b5b611e9e87828801611df9565b91505092959194509250565b611eb381611b3a565b82525050565b6000602082019050611ece6000830184611eaa565b92915050565b60008060408385031215611eeb57611eea611952565b5b6000611ef985828601611a76565b9250506020611f0a858286016119a5565b9150509250929050565b600060208284031215611f2a57611f29611952565b5b6000611f38848285016119db565b91505092915050565b60008083601f840112611f5757611f566119f0565b5b8235905067ffffffffffffffff811115611f7457611f736119f5565b5b602083019150836020820283011115611f9057611f8f6119fa565b5b9250929050565b60008083601f840112611fad57611fac6119f0565b5b8235905067ffffffffffffffff811115611fca57611fc96119f5565b5b602083019150836020820283011115611fe657611fe56119fa565b5b9250929050565b60008083601f840112612003576120026119f0565b5b8235905067ffffffffffffffff8111156120205761201f6119f5565b5b60208301915083602082028301111561203c5761203b6119fa565b5b9250929050565b600080600080600080600080600060c08a8c03121561206557612064611952565b5b60008a013567ffffffffffffffff81111561208357612082611957565b5b61208f8c828d01611f41565b995099505060208a013567ffffffffffffffff8111156120b2576120b1611957565b5b6120be8c828d01611f97565b975097505060408a013567ffffffffffffffff8111156120e1576120e0611957565b5b6120ed8c828d01611fed565b955095505060606121008c828d01611a76565b93505060806121118c828d01611a76565b92505060a06121228c828d016119db565b9150509295985092959850929598565b60008060008060008060008060a0898b03121561215257612151611952565b5b600089013567ffffffffffffffff8111156121705761216f611957565b5b61217c8b828c01611f41565b9850985050602089013567ffffffffffffffff81111561219f5761219e611957565b5b6121ab8b828c01611f97565b9650965050604089013567ffffffffffffffff8111156121ce576121cd611957565b5b6121da8b828c01611fed565b945094505060606121ed8b828c01611a76565b92505060806121fe8b828c01611a76565b9150509295985092959890939650565b600067ffffffffffffffff82111561222957612228611cfc565b5b602082029050602081019050919050565b600061224d6122488461220e565b611d5c565b905080838252602082019050602084028301858111156122705761226f6119fa565b5b835b81811015612299578061228588826119db565b845260208401935050602081019050612272565b5050509392505050565b600082601f8301126122b8576122b76119f0565b5b81356122c884826020860161223a565b91505092915050565b600080600080600060a086880312156122ed576122ec611952565b5b60006122fb888289016119a5565b955050602061230c888289016119a5565b945050604086013567ffffffffffffffff81111561232d5761232c611957565b5b612339888289016122a3565b935050606086013567ffffffffffffffff81111561235a57612359611957565b5b612366888289016122a3565b925050608086013567ffffffffffffffff81111561238757612386611957565b5b61239388828901611df9565b9150509295509295909350565b6123a9816119ba565b82525050565b60006020820190506123c460008301846123a0565b92915050565b600080600080600060a086880312156123e6576123e5611952565b5b60006123f4888289016119a5565b9550506020612405888289016119a5565b9450506040612416888289016119db565b9350506060612427888289016119db565b925050608086013567ffffffffffffffff81111561244857612447611957565b5b61245488828901611df9565b9150509295509295909350565b61246a8161197c565b82525050565b600082825260208201905092915050565b600061248d8385612470565b935061249a838584611da8565b6124a383611ceb565b840190509392505050565b600060a0820190506124c36000830189612461565b6124d060208301886123a0565b81810360408301526124e3818688612481565b90506124f26060830185611bf5565b6124ff60808301846123a0565b979650505050505050565b600060608201905061251f6000830187612461565b61252c60208301866123a0565b818103604083015261253f818486612481565b905095945050505050565b600082825260208201905092915050565b7f416363657373436f6e74726f6c3a2063616e206f6e6c792072656e6f756e636560008201527f20726f6c657320666f722073656c660000000000000000000000000000000000602082015250565b60006125b7602f8361254a565b91506125c28261255b565b604082019050919050565b600060208201905081810360008301526125e6816125aa565b9050919050565b7f54696d656c6f636b436f6e74726f6c6c65723a2063616c6c6572206d7573742060008201527f62652074696d656c6f636b000000000000000000000000000000000000000000602082015250565b6000612649602b8361254a565b9150612654826125ed565b604082019050919050565b600060208201905081810360008301526126788161263c565b9050919050565b600060408201905061269460008301856123a0565b6126a160208301846123a0565b9392505050565b600060a0820190506126bd6000830189612461565b6126ca60208301886123a0565b81810360408301526126dd818688612481565b90506126ec6060830185611bf5565b6126f96080830184611bf5565b979650505050505050565b7f54696d656c6f636b436f6e74726f6c6c65723a206c656e677468206d69736d6160008201527f7463680000000000000000000000000000000000000000000000000000000000602082015250565b600061276060238361254a565b915061276b82612704565b604082019050919050565b6000602082019050818103600083015261278f81612753565b9050919050565b7f4e487b7100000000000000000000000000000000000000000000000000000000600052603260045260246000fd5b6000602082840312156127db576127da611952565b5b60006127e9848285016119a5565b91505092915050565b600080fd5b600080fd5b600080fd5b6000808335600160200384360303811261281e5761281d6127f2565b5b80840192508235915067ffffffffffffffff8211156128405761283f6127f7565b5b60208301925060018202360383131561285c5761285b6127fc565b5b509250929050565b7f4e487b7100000000000000000000000000000000000000000000000000000000600052601160045260246000fd5b600061289e826119ba565b91507fffffffffffffffffffffffffffffffffffffffffffffffffffffffffffffffff82036128d0576128cf612864565b5b600182019050919050565b600082825260208201905092915050565b6000819050919050565b6128ff8161197c565b82525050565b600061291183836128f6565b60208301905092915050565b600061292c60208401846119a5565b905092915050565b6000602082019050919050565b600061294d83856128db565b9350612958826128ec565b8060005b858110156129915761296e828461291d565b6129788882612905565b975061298383612934565b92505060018101905061295c565b5085925050509392505050565b600082825260208201905092915050565b600080fd5b60006129c0838561299e565b93507f07ffffffffffffffffffffffffffffffffffffffffffffffffffffffffffffff8311156129f3576129f26129af565b5b602083029250612a04838584611da8565b82840190509392505050565b600082825260208201905092915050565b6000819050919050565b600082825260208201905092915050565b6000612a488385612a2b565b9350612a55838584611da8565b612a5e83611ceb565b840190509392505050565b6000612a76848484612a3c565b90509392505050565b600080fd5b600080fd5b600080fd5b60008083356001602003843603038112612aab57612aaa612a89565b5b83810192508235915060208301925067ffffffffffffffff821115612ad357612ad2612a7f565b5b600182023603841315612ae957612ae8612a84565b5b509250929050565b6000602082019050919050565b6000612b0a8385612a10565b935083602084028501612b1c84612a21565b8060005b87811015612b62578484038952612b378284612a8e565b612b42868284612a69565b9550612b4d84612af1565b935060208b019a505050600181019050612b20565b50829750879450505050509392505050565b600060a0820190508181036000830152612b8f818a8c612941565b90508181036020830152612ba481888a6129b4565b90508181036040830152612bb9818688612afe565b9050612bc86060830185611bf5565b612bd56080830184611bf5565b9998505050505050505050565b7f54696d656c6f636b436f6e74726f6c6c65723a206f7065726174696f6e20636160008201527f6e6e6f742062652063616e63656c6c6564000000000000000000000000000000602082015250565b6000612c3e60318361254a565b9150612c4982612be2565b604082019050919050565b60006020820190508181036000830152612c6d81612c31565b9050919050565b7f54696d656c6f636b436f6e74726f6c6c65723a206f7065726174696f6e20616c60008201527f7265616479207363686564756c65640000000000000000000000000000000000602082015250565b6000612cd0602f8361254a565b9150612cdb82612c74565b604082019050919050565b60006020820190508181036000830152612cff81612cc3565b9050919050565b7f54696d656c6f636b436f6e74726f6c6c65723a20696e73756666696369656e7460008201527f2064656c61790000000000000000000000000000000000000000000000000000602082015250565b6000612d6260268361254a565b9150612d6d82612d06565b604082019050919050565b60006020820190508181036000830152612d9181612d55565b9050919050565b6000612da3826119ba565b9150612dae836119ba565b9250827fffffffffffffffffffffffffffffffffffffffffffffffffffffffffffffffff03821115612de357612de2612864565b5b828201905092915050565b600081905092915050565b7f416363657373436f6e74726f6c3a206163636f756e7420000000000000000000600082015250565b6000612e2f601783612dee565b9150612e3a82612df9565b601782019050919050565b600081519050919050565b60005b83811015612e6e578082015181840152602081019050612e53565b83811115612e7d576000848401525b50505050565b6000612e8e82612e45565b612e988185612dee565b9350612ea8818560208601612e50565b80840191505092915050565b7f206973206d697373696e6720726f6c6520000000000000000000000000000000600082015250565b6000612eea601183612dee565b9150612ef582612eb4565b601182019050919050565b6000612f0b82612e22565b9150612f178285612e83565b9150612f2282612edd565b9150612f2e8284612e83565b91508190509392505050565b6000612f4582612e45565b612f4f818561254a565b9350612f5f818560208601612e50565b612f6881611ceb565b840191505092915050565b60006020820190508181036000830152612f8d8184612f3a565b905092915050565b7f54696d656c6f636b436f6e74726f6c6c65723a206f7065726174696f6e20697360008201527f206e6f7420726561647900000000000000000000000000000000000000000000602082015250565b6000612ff1602a8361254a565b9150612ffc82612f95565b604082019050919050565b6000602082019050818103600083015261302081612fe4565b9050919050565b7f54696d656c6f636b436f6e74726f6c6c65723a206d697373696e67206465706560008201527f6e64656e63790000000000000000000000000000000000000000000000000000602082015250565b600061308360268361254a565b915061308e82613027565b604082019050919050565b600060208201905081810360008301526130b281613076565b9050919050565b600081905092915050565b60006130d083856130b9565b93506130dd838584611da8565b82840190509392505050565b60006130f68284866130c4565b91508190509392505050565b7f54696d656c6f636b436f6e74726f6c6c65723a20756e6465726c79696e67207460008201527f72616e73616374696f6e20726576657274656400000000000000000000000000602082015250565b600061315e60338361254a565b915061316982613102565b604082019050919050565b6000602082019050818103600083015261318d81613151565b9050919050565b600061319f826119ba565b91506131aa836119ba565b9250817fffffffffffffffffffffffffffffffffffffffffffffffffffffffffffffffff04831182151516156131e3576131e2612864565b5b828202905092915050565b60006131f9826119ba565b91506000820361320c5761320b612864565b5b600182039050919050565b7f537472696e67733a20686578206c656e67746820696e73756666696369656e74600082015250565b600061324d60208361254a565b915061325882613217565b602082019050919050565b6000602082019050818103600083015261327c81613240565b905091905056fea2646970667358221220681126c6f18714a7cd85f5252441eaad6b55f9969c53565c1406cf8b6d285d6164736f6c634300080d00336101606040523480156200001257600080fd5b506040516200747038038062007470833981810160405281019062000038919062000a16565b80600a836040518060400160405280600a81526020017f4d79476f7665726e6f72000000000000000000000000000000000000000000008152508062000083620001b160201b60201c565b60008280519060200120905060008280519060200120905060007f8b73c3c69bb8fe3d512ecc4cf759cc79239f7b179b0ffacaa9a75d522b39400f90508260e081815250508161010081815250504660a08181525050620000ec818484620001ee60201b60201c565b608081815250503073ffffffffffffffffffffffffffffffffffffffff1660c08173ffffffffffffffffffffffffffffffffffffffff1681525050806101208181525050505050505080600090805190602001906200014d9291906200088f565b50508073ffffffffffffffffffffffffffffffffffffffff166101408173ffffffffffffffffffffffffffffffffffffffff16815250505062000196816200022a60201b60201c565b50620001a8816200040960201b60201c565b50505062000e57565b60606040518060400160405280600181526020017f3100000000000000000000000000000000000000000000000000000000000000815250905090565b600083838346306040516020016200020b95949392919062000aa4565b6040516020818303038152906040528051906020012090509392505050565b6200023a620004aa60201b60201c565b8111156200027f576040517f08c379a0000000000000000000000000000000000000000000000000000000008152600401620002769062000bae565b60405180910390fd5b600062000291620004b360201b60201c565b905060008114158015620002ad57506000600660000180549050145b15620003ad5760066000016040518060400160405280600063ffffffff168152602001620002e684620004eb60201b62001aa41760201c565b7bffffffffffffffffffffffffffffffffffffffffffffffffffffffff168152509080600181540180825580915050600190039060005260206000200160009091909190915060008201518160000160006101000a81548163ffffffff021916908363ffffffff16021790555060208201518160000160046101000a8154817bffffffffffffffffffffffffffffffffffffffffffffffffffffffff02191690837bffffffffffffffffffffffffffffffffffffffffffffffffffffffff16021790555050505b620003c88260066200055960201b62001b0f1790919060201c565b50507f0553476bf02ef2726e8ce5ced78d63e26e602e4a2257b1f559418e24b46339978183604051620003fd92919062000bd0565b60405180910390a15050565b7f08f74ea46ef7894f65eabfb5e6e695de773a000b47c529ab559178069b226401600760009054906101000a900473ffffffffffffffffffffffffffffffffffffffff16826040516200045e92919062000bfd565b60405180910390a180600760006101000a81548173ffffffffffffffffffffffffffffffffffffffff021916908373ffffffffffffffffffffffffffffffffffffffff16021790555050565b60006064905090565b60008060066000018054905014620004e257620004dc60066200079760201b62001d111760201c565b620004e6565b6005545b905090565b60007bffffffffffffffffffffffffffffffffffffffffffffffffffffffff801682111562000551576040517f08c379a0000000000000000000000000000000000000000000000000000000008152600401620005489062000ca0565b60405180910390fd5b819050919050565b60008060008460000180549050905060006200057b866200079760201b60201c565b9050600082118015620005d7575043866000016001846200059d919062000cf1565b81548110620005b157620005b062000d2c565b5b9060005260206000200160000160009054906101000a900463ffffffff1663ffffffff16145b156200067b57620005f385620004eb60201b62001aa41760201c565b8660000160018462000606919062000cf1565b815481106200061a576200061962000d2c565b5b9060005260206000200160000160046101000a8154817bffffffffffffffffffffffffffffffffffffffffffffffffffffffff02191690837bffffffffffffffffffffffffffffffffffffffffffffffffffffffff16021790555062000788565b856000016040518060400160405280620006a0436200083960201b62001dac1760201c565b63ffffffff168152602001620006c188620004eb60201b62001aa41760201c565b7bffffffffffffffffffffffffffffffffffffffffffffffffffffffff168152509080600181540180825580915050600190039060005260206000200160009091909190915060008201518160000160006101000a81548163ffffffff021916908363ffffffff16021790555060208201518160000160046101000a8154817bffffffffffffffffffffffffffffffffffffffffffffffffffffffff02191690837bffffffffffffffffffffffffffffffffffffffffffffffffffffffff16021790555050505b80859350935050509250929050565b6000808260000180549050905060008114620008105782600001600182620007c0919062000cf1565b81548110620007d457620007d362000d2c565b5b9060005260206000200160000160049054906101000a90047bffffffffffffffffffffffffffffffffffffffffffffffffffffffff1662000813565b60005b7bffffffffffffffffffffffffffffffffffffffffffffffffffffffff16915050919050565b600063ffffffff801682111562000887576040517f08c379a00000000000000000000000000000000000000000000000000000000081526004016200087e9062000dd1565b60405180910390fd5b819050919050565b8280546200089d9062000e22565b90600052602060002090601f016020900481019282620008c157600085556200090d565b82601f10620008dc57805160ff19168380011785556200090d565b828001600101855582156200090d579182015b828111156200090c578251825591602001919060010190620008ef565b5b5090506200091c919062000920565b5090565b5b808211156200093b57600081600090555060010162000921565b5090565b600080fd5b600073ffffffffffffffffffffffffffffffffffffffff82169050919050565b6000620009718262000944565b9050919050565b6000620009858262000964565b9050919050565b620009978162000978565b8114620009a357600080fd5b50565b600081519050620009b7816200098c565b92915050565b6000620009ca8262000944565b9050919050565b6000620009de82620009bd565b9050919050565b620009f081620009d1565b8114620009fc57600080fd5b50565b60008151905062000a1081620009e5565b92915050565b6000806040838503121562000a305762000a2f6200093f565b5b600062000a4085828601620009a6565b925050602062000a5385828601620009ff565b9150509250929050565b6000819050919050565b62000a728162000a5d565b82525050565b6000819050919050565b62000a8d8162000a78565b82525050565b62000a9e8162000964565b82525050565b600060a08201905062000abb600083018862000a67565b62000aca602083018762000a67565b62000ad9604083018662000a67565b62000ae8606083018562000a82565b62000af7608083018462000a93565b9695505050505050565b600082825260208201905092915050565b7f476f7665726e6f72566f74657351756f72756d4672616374696f6e3a2071756f60008201527f72756d4e756d657261746f72206f7665722071756f72756d44656e6f6d696e6160208201527f746f720000000000000000000000000000000000000000000000000000000000604082015250565b600062000b9660438362000b01565b915062000ba38262000b12565b606082019050919050565b6000602082019050818103600083015262000bc98162000b87565b9050919050565b600060408201905062000be7600083018562000a82565b62000bf6602083018462000a82565b9392505050565b600060408201905062000c14600083018562000a93565b62000c23602083018462000a93565b9392505050565b7f53616665436173743a2076616c756520646f65736e27742066697420696e203260008201527f3234206269747300000000000000000000000000000000000000000000000000602082015250565b600062000c8860278362000b01565b915062000c958262000c2a565b604082019050919050565b6000602082019050818103600083015262000cbb8162000c79565b9050919050565b7f4e487b7100000000000000000000000000000000000000000000000000000000600052601160045260246000fd5b600062000cfe8262000a78565b915062000d0b8362000a78565b92508282101562000d215762000d2062000cc2565b5b828203905092915050565b7f4e487b7100000000000000000000000000000000000000000000000000000000600052603260045260246000fd5b7f53616665436173743a2076616c756520646f65736e27742066697420696e203360008201527f3220626974730000000000000000000000000000000000000000000000000000602082015250565b600062000db960268362000b01565b915062000dc68262000d5b565b604082019050919050565b6000602082019050818103600083015262000dec8162000daa565b9050919050565b7f4e487b7100000000000000000000000000000000000000000000000000000000600052602260045260246000fd5b6000600282049050600182168062000e3b57607f821691505b60208210810362000e515762000e5062000df3565b5b50919050565b60805160a05160c05160e0516101005161012051610140516165b062000ec060003960008181611a8201528181612aff0152612c9c01526000612f6201526000612fa401526000612f8301526000612eb801526000612f0e01526000612f3701526165b06000f3fe6080604052600436106102295760003560e01c80637b3c71d311610123578063c01f9e37116100ab578063deaaa7cc1161006f578063deaaa7cc14610956578063eb9019d414610981578063f23a6e61146109be578063f8ce560a146109fb578063fc0c546a14610a385761026f565b8063c01f9e371461085d578063c28bc2fa1461089a578063c59057e4146108c3578063d33219b414610900578063dd4e2ba51461092b5761026f565b8063a7713a70116100f2578063a7713a7014610764578063a890c9101461078f578063ab58fb8e146107b8578063b58131b0146107f5578063bc197c81146108205761026f565b80637b3c71d3146106825780637d5e81e2146106bf57806397c3d334146106fc5780639a802a6d146107275761026f565b80632fe3e261116101b1578063544ffc9c11610175578063544ffc9c1461056157806354fd4d50146105a057806356781388146105cb5780635f398a141461060857806360c4247f146106455761026f565b80632fe3e261146104545780633932abb11461047f5780633bccf4fd146104aa5780633e4f49e6146104e757806343859632146105245761026f565b806306fdde03116101f857806306fdde0314610342578063150b7a021461036d578063160cbed7146103aa5780632656227d146103e75780632d63f693146104175761026f565b806301ffc9a71461027457806302a251a3146102b157806303420181146102dc57806306f3f9e6146103195761026f565b3661026f573073ffffffffffffffffffffffffffffffffffffffff1661024d610a63565b73ffffffffffffffffffffffffffffffffffffffff161461026d57600080fd5b005b600080fd5b34801561028057600080fd5b5061029b60048036038101906102969190613ba7565b610a72565b6040516102a89190613bef565b60405180910390f35b3480156102bd57600080fd5b506102c6610a84565b6040516102d39190613c23565b60405180910390f35b3480156102e857600080fd5b5061030360048036038101906102fe9190613e7f565b610a8e565b6040516103109190613c23565b60405180910390f35b34801561032557600080fd5b50610340600480360381019061033b9190613f5d565b610b73565b005b34801561034e57600080fd5b50610357610c6a565b6040516103649190614012565b60405180910390f35b34801561037957600080fd5b50610394600480360381019061038f9190614092565b610cfc565b6040516103a19190614124565b60405180910390f35b3480156103b657600080fd5b506103d160048036038101906103cc91906143a6565b610d10565b6040516103de9190613c23565b60405180910390f35b61040160048036038101906103fc91906143a6565b610fca565b60405161040e9190613c23565b60405180910390f35b34801561042357600080fd5b5061043e60048036038101906104399190613f5d565b611117565b60405161044b9190613c23565b60405180910390f35b34801561046057600080fd5b50610469611185565b6040516104769190614470565b60405180910390f35b34801561048b57600080fd5b506104946111a9565b6040516104a19190613c23565b60405180910390f35b3480156104b657600080fd5b506104d160048036038101906104cc919061448b565b6111b2565b6040516104de9190613c23565b60405180910390f35b3480156104f357600080fd5b5061050e60048036038101906105099190613f5d565b61123c565b60405161051b919061457d565b60405180910390f35b34801561053057600080fd5b5061054b60048036038101906105469190614598565b61124e565b6040516105589190613bef565b60405180910390f35b34801561056d57600080fd5b5061058860048036038101906105839190613f5d565b6112b9565b604051610597939291906145d8565b60405180910390f35b3480156105ac57600080fd5b506105b56112f1565b6040516105c29190614012565b60405180910390f35b3480156105d757600080fd5b506105f260048036038101906105ed919061460f565b61132e565b6040516105ff9190613c23565b60405180910390f35b34801561061457600080fd5b5061062f600480360381019061062a919061464f565b61135f565b60405161063c9190613c23565b60405180910390f35b34801561065157600080fd5b5061066c60048036038101906106679190613f5d565b6113c9565b6040516106799190613c23565b60405180910390f35b34801561068e57600080fd5b506106a960048036038101906106a491906146f3565b611515565b6040516106b69190613c23565b60405180910390f35b3480156106cb57600080fd5b506106e660048036038101906106e19190614808565b61157d565b6040516106f39190613c23565b60405180910390f35b34801561070857600080fd5b50610711611595565b60405161071e9190613c23565b60405180910390f35b34801561073357600080fd5b5061074e600480360381019061074991906148df565b61159e565b60405161075b9190613c23565b60405180910390f35b34801561077057600080fd5b506107796115b4565b6040516107869190613c23565b60405180910390f35b34801561079b57600080fd5b506107b660048036038101906107b1919061499e565b6115dd565b005b3480156107c457600080fd5b506107df60048036038101906107da9190613f5d565b6116d4565b6040516107ec9190613c23565b60405180910390f35b34801561080157600080fd5b5061080a6117a1565b6040516108179190613c23565b60405180910390f35b34801561082c57600080fd5b50610847600480360381019061084291906149cb565b6117b2565b6040516108549190614124565b60405180910390f35b34801561086957600080fd5b50610884600480360381019061087f9190613f5d565b6117c7565b6040516108919190613c23565b60405180910390f35b3480156108a657600080fd5b506108c160048036038101906108bc9190614af0565b611835565b005b3480156108cf57600080fd5b506108ea60048036038101906108e591906143a6565b611976565b6040516108f79190613c23565b60405180910390f35b34801561090c57600080fd5b506109156119b2565b6040516109229190614b73565b60405180910390f35b34801561093757600080fd5b506109406119dc565b60405161094d9190614012565b60405180910390f35b34801561096257600080fd5b5061096b611a19565b6040516109789190614470565b60405180910390f35b34801561098d57600080fd5b506109a860048036038101906109a39190614b8e565b611a3d565b6040516109b59190613c23565b60405180910390f35b3480156109ca57600080fd5b506109e560048036038101906109e09190614bce565b611a59565b6040516109f29190614124565b60405180910390f35b348015610a0757600080fd5b50610a226004803603810190610a1d9190613f5d565b611a6e565b604051610a2f9190613c23565b60405180910390f35b348015610a4457600080fd5b50610a4d611a80565b604051610a5a9190614cc4565b60405180910390f35b6000610a6d611dff565b905090565b6000610a7d82611e29565b9050919050565b600061b2fa905090565b600080610b11610b097fb3b3f3b703cd84ce352197dcff232b1b5d3cfb2025ce47cf04742d0651f1af888c8c8c8c604051610aca929190614d0f565b60405180910390208b80519060200120604051602001610aee959493929190614d37565b60405160208183030381529060405280519060200120611ea3565b868686611ebd565b9050610b648a828b8b8b8080601f016020809104026020016040519081016040528093929190818152602001838380828437600081840152601f19601f820116905080830192505050505050508a611ee8565b91505098975050505050505050565b610b7b610a63565b73ffffffffffffffffffffffffffffffffffffffff16610b996120a4565b73ffffffffffffffffffffffffffffffffffffffff1614610bef576040517f08c379a0000000000000000000000000000000000000000000000000000000008152600401610be690614dd6565b60405180910390fd5b3073ffffffffffffffffffffffffffffffffffffffff16610c0e610a63565b73ffffffffffffffffffffffffffffffffffffffff1614610c5e576000610c336120ac565b604051610c41929190614d0f565b604051809103902090505b80610c5760026120b9565b03610c4c57505b610c6781612195565b50565b606060008054610c7990614e25565b80601f0160208091040260200160405190810160405280929190818152602001828054610ca590614e25565b8015610cf25780601f10610cc757610100808354040283529160200191610cf2565b820191906000526020600020905b815481529060010190602001808311610cd557829003601f168201915b5050505050905090565b600063150b7a0260e01b9050949350505050565b600080610d1f86868686611976565b905060046007811115610d3557610d34614506565b5b610d3e8261123c565b6007811115610d5057610d4f614506565b5b14610d90576040517f08c379a0000000000000000000000000000000000000000000000000000000008152600401610d8790614ec8565b60405180910390fd5b6000600760009054906101000a900473ffffffffffffffffffffffffffffffffffffffff1673ffffffffffffffffffffffffffffffffffffffff1663f27a0c926040518163ffffffff1660e01b8152600401602060405180830381865afa158015610dff573d6000803e3d6000fd5b505050506040513d601f19601f82011682018060405250810190610e239190614efd565b9050600760009054906101000a900473ffffffffffffffffffffffffffffffffffffffff1673ffffffffffffffffffffffffffffffffffffffff1663b1c5f4278888886000896040518663ffffffff1660e01b8152600401610e89959493929190615205565b602060405180830381865afa158015610ea6573d6000803e3d6000fd5b505050506040513d601f19601f82011682018060405250810190610eca9190615282565b6008600084815260200190815260200160002081905550600760009054906101000a900473ffffffffffffffffffffffffffffffffffffffff1673ffffffffffffffffffffffffffffffffffffffff16638f2a0bb0888888600089876040518763ffffffff1660e01b8152600401610f47969594939291906152af565b600060405180830381600087803b158015610f6157600080fd5b505af1158015610f75573d6000803e3d6000fd5b505050507f9a2e42fd6722813d69113e7d0079d3d940171428df7373df9c7f7617cfda2892828242610fa79190615354565b604051610fb59291906153aa565b60405180910390a18192505050949350505050565b600080610fd986868686611976565b90506000610fe68261123c565b905060046007811115610ffc57610ffb614506565b5b81600781111561100f5761100e614506565b5b148061103f57506005600781111561102a57611029614506565b5b81600781111561103d5761103c614506565b5b145b61107e576040517f08c379a000000000000000000000000000000000000000000000000000000000815260040161107590614ec8565b60405180910390fd5b600180600084815260200190815260200160002060020160006101000a81548160ff0219169083151502179055507f712ae1383f79ac853f8d882153778e0260ef8f03b504e2866e0593e04d2b291f826040516110db9190613c23565b60405180910390a16110f08288888888612349565b6110fd828888888861242c565b61110a8288888888612440565b8192505050949350505050565b6000611174600160008481526020019081526020016000206000016040518060200160405290816000820160009054906101000a900467ffffffffffffffff1667ffffffffffffffff1667ffffffffffffffff168152505061249b565b67ffffffffffffffff169050919050565b7fb3b3f3b703cd84ce352197dcff232b1b5d3cfb2025ce47cf04742d0651f1af8881565b60006001905090565b60008061121361120b7f150214d74d59b7d1e90c73fc22ef3d991dd0a76b046543d4d80ab92d2a50328f89896040516020016111f0939291906153d3565b60405160208183030381529060405280519060200120611ea3565b868686611ebd565b9050611230878288604051806020016040528060008152506124a9565b91505095945050505050565b6000611247826124c9565b9050919050565b60006004600084815260200190815260200160002060030160008373ffffffffffffffffffffffffffffffffffffffff1673ffffffffffffffffffffffffffffffffffffffff16815260200190815260200160002060009054906101000a900460ff16905092915050565b600080600080600460008681526020019081526020016000209050806000015481600101548260020154935093509350509193909250565b60606040518060400160405280600181526020017f3100000000000000000000000000000000000000000000000000000000000000815250905090565b6000806113396120a4565b9050611356848285604051806020016040528060008152506124a9565b91505092915050565b60008061136a6120a4565b90506113bd87828888888080601f016020809104026020016040519081016040528093929190818152602001838380828437600081840152601f19601f8201169050808301925050505050505087611ee8565b91505095945050505050565b6000806006600001805490509050600081036113ea57600554915050611510565b600060066000016001836113fe919061540a565b8154811061140f5761140e61543e565b5b906000526020600020016040518060400160405290816000820160009054906101000a900463ffffffff1663ffffffff1663ffffffff1681526020016000820160049054906101000a90047bffffffffffffffffffffffffffffffffffffffffffffffffffffffff167bffffffffffffffffffffffffffffffffffffffffffffffffffffffff167bffffffffffffffffffffffffffffffffffffffffffffffffffffffff1681525050905083816000015163ffffffff16116114f75780602001517bffffffffffffffffffffffffffffffffffffffffffffffffffffffff1692505050611510565b61150b84600661269c90919063ffffffff16565b925050505b919050565b6000806115206120a4565b905061157286828787878080601f016020809104026020016040519081016040528093929190818152602001838380828437600081840152601f19601f820116905080830192505050505050506124a9565b915050949350505050565b600061158b858585856127f4565b9050949350505050565b60006064905090565b60006115ab848484612afb565b90509392505050565b600080600660000180549050146115d4576115cf6006611d11565b6115d8565b6005545b905090565b6115e5610a63565b73ffffffffffffffffffffffffffffffffffffffff166116036120a4565b73ffffffffffffffffffffffffffffffffffffffff1614611659576040517f08c379a000000000000000000000000000000000000000000000000000000000815260040161165090614dd6565b60405180910390fd5b3073ffffffffffffffffffffffffffffffffffffffff16611678610a63565b73ffffffffffffffffffffffffffffffffffffffff16146116c857600061169d6120ac565b6040516116ab929190614d0f565b604051809103902090505b806116c160026120b9565b036116b657505b6116d181612ba2565b50565b600080600760009054906101000a900473ffffffffffffffffffffffffffffffffffffffff1673ffffffffffffffffffffffffffffffffffffffff1663d45c443560086000868152602001908152602001600020546040518263ffffffff1660e01b81526004016117459190614470565b602060405180830381865afa158015611762573d6000803e3d6000fd5b505050506040513d601f19601f820116820180604052508101906117869190614efd565b9050600181146117965780611799565b60005b915050919050565b600068056bc75e2d63100000905090565b600063bc197c8160e01b905095945050505050565b6000611824600160008481526020019081526020016000206001016040518060200160405290816000820160009054906101000a900467ffffffffffffffff1667ffffffffffffffff1667ffffffffffffffff168152505061249b565b67ffffffffffffffff169050919050565b61183d610a63565b73ffffffffffffffffffffffffffffffffffffffff1661185b6120a4565b73ffffffffffffffffffffffffffffffffffffffff16146118b1576040517f08c379a00000000000000000000000000000000000000000000000000000000081526004016118a890614dd6565b60405180910390fd5b3073ffffffffffffffffffffffffffffffffffffffff166118d0610a63565b73ffffffffffffffffffffffffffffffffffffffff16146119205760006118f56120ac565b604051611903929190614d0f565b604051809103902090505b8061191960026120b9565b0361190e57505b61196f8483838080601f016020809104026020016040519081016040528093929190818152602001838380828437600081840152601f19601f8201169050808301925050505050505085612c41565b5050505050565b60008484848460405160200161198f949392919061546d565b6040516020818303038152906040528051906020012060001c9050949350505050565b6000600760009054906101000a900473ffffffffffffffffffffffffffffffffffffffff16905090565b60606040518060400160405280602081526020017f737570706f72743d627261766f2671756f72756d3d666f722c6162737461696e815250905090565b7f150214d74d59b7d1e90c73fc22ef3d991dd0a76b046543d4d80ab92d2a50328f81565b6000611a518383611a4c612c70565b612afb565b905092915050565b600063f23a6e6160e01b905095945050505050565b6000611a7982612c87565b9050919050565b7f000000000000000000000000000000000000000000000000000000000000000081565b60007bffffffffffffffffffffffffffffffffffffffffffffffffffffffff8016821115611b07576040517f08c379a0000000000000000000000000000000000000000000000000000000008152600401611afe90615539565b60405180910390fd5b819050919050565b6000806000846000018054905090506000611b2986611d11565b9050600082118015611b7f57504386600001600184611b48919061540a565b81548110611b5957611b5861543e565b5b9060005260206000200160000160009054906101000a900463ffffffff1663ffffffff16145b15611c0f57611b8d85611aa4565b86600001600184611b9e919061540a565b81548110611baf57611bae61543e565b5b9060005260206000200160000160046101000a8154817bffffffffffffffffffffffffffffffffffffffffffffffffffffffff02191690837bffffffffffffffffffffffffffffffffffffffffffffffffffffffff160217905550611d02565b856000016040518060400160405280611c2743611dac565b63ffffffff168152602001611c3b88611aa4565b7bffffffffffffffffffffffffffffffffffffffffffffffffffffffff168152509080600181540180825580915050600190039060005260206000200160009091909190915060008201518160000160006101000a81548163ffffffff021916908363ffffffff16021790555060208201518160000160046101000a8154817bffffffffffffffffffffffffffffffffffffffffffffffffffffffff02191690837bffffffffffffffffffffffffffffffffffffffffffffffffffffffff16021790555050505b80859350935050509250929050565b6000808260000180549050905060008114611d835782600001600182611d37919061540a565b81548110611d4857611d4761543e565b5b9060005260206000200160000160049054906101000a90047bffffffffffffffffffffffffffffffffffffffffffffffffffffffff16611d86565b60005b7bffffffffffffffffffffffffffffffffffffffffffffffffffffffff16915050919050565b600063ffffffff8016821115611df7576040517f08c379a0000000000000000000000000000000000000000000000000000000008152600401611dee906155cb565b60405180910390fd5b819050919050565b6000600760009054906101000a900473ffffffffffffffffffffffffffffffffffffffff16905090565b60007f6e665ced000000000000000000000000000000000000000000000000000000007bffffffffffffffffffffffffffffffffffffffffffffffffffffffff1916827bffffffffffffffffffffffffffffffffffffffffffffffffffffffff19161480611e9c5750611e9b82612d4f565b5b9050919050565b6000611eb6611eb0612eb4565b83612fce565b9050919050565b6000806000611ece87878787613001565b91509150611edb8161310d565b8192505050949350505050565b60008060016000888152602001908152602001600020905060016007811115611f1457611f13614506565b5b611f1d8861123c565b6007811115611f2f57611f2e614506565b5b14611f6f576040517f08c379a0000000000000000000000000000000000000000000000000000000008152600401611f669061565d565b60405180910390fd5b6000611fce87611fbe846000016040518060200160405290816000820160009054906101000a900467ffffffffffffffff1667ffffffffffffffff1667ffffffffffffffff168152505061249b565b67ffffffffffffffff1686612afb565b9050611fdd88888884886132d9565b600084510361203f578673ffffffffffffffffffffffffffffffffffffffff167fb8e138887d0aa13bab447e82de9d5c1777041ecd21ca36ba824ff1e6c07ddda489888489604051612032949392919061567d565b60405180910390a2612096565b8673ffffffffffffffffffffffffffffffffffffffff167fe2babfbac5889a709b63bb7f598b324e08bc5a4fb9ec647fb3cbc9ec07eb8712898884898960405161208d959493929190615713565b60405180910390a25b809250505095945050505050565b600033905090565b3660008036915091509091565b60006120c4826134dd565b156120fb576040517f3db2a12a00000000000000000000000000000000000000000000000000000000815260040160405180910390fd5b60008260000160009054906101000a9004600f0b905082600101600082600f0b600f0b815260200190815260200160002054915082600101600082600f0b600f0b815260200190815260200160002060009055600181018360000160006101000a8154816fffffffffffffffffffffffffffffffff0219169083600f0b6fffffffffffffffffffffffffffffffff16021790555050919050565b61219d611595565b8111156121df576040517f08c379a00000000000000000000000000000000000000000000000000000000081526004016121d69061580c565b60405180910390fd5b60006121e96115b4565b90506000811415801561220457506000600660000180549050145b156122f65760066000016040518060400160405280600063ffffffff16815260200161222f84611aa4565b7bffffffffffffffffffffffffffffffffffffffffffffffffffffffff168152509080600181540180825580915050600190039060005260206000200160009091909190915060008201518160000160006101000a81548163ffffffff021916908363ffffffff16021790555060208201518160000160046101000a8154817bffffffffffffffffffffffffffffffffffffffffffffffffffffffff02191690837bffffffffffffffffffffffffffffffffffffffffffffffffffffffff16021790555050505b61230a826006611b0f90919063ffffffff16565b50507f0553476bf02ef2726e8ce5ced78d63e26e602e4a2257b1f559418e24b4633997818360405161233d9291906153aa565b60405180910390a15050565b3073ffffffffffffffffffffffffffffffffffffffff16612368610a63565b73ffffffffffffffffffffffffffffffffffffffff16146124255760005b8451811015612423573073ffffffffffffffffffffffffffffffffffffffff168582815181106123b9576123b861543e565b5b602002602001015173ffffffffffffffffffffffffffffffffffffffff1603612412576124118382815181106123f2576123f161543e565b5b602002602001015180519060200120600261351290919063ffffffff16565b5b8061241c9061582c565b9050612386565b505b5050505050565b612439858585858561358e565b5050505050565b3073ffffffffffffffffffffffffffffffffffffffff1661245f610a63565b73ffffffffffffffffffffffffffffffffffffffff16146124945761248460026134dd565b61249357612492600261362c565b5b5b5050505050565b600081600001519050919050565b60006124bf858585856124ba612c70565b611ee8565b9050949350505050565b6000806124d5836136ad565b9050600460078111156124eb576124ea614506565b5b8160078111156124fe576124fd614506565b5b1461250c5780915050612697565b6000600860008581526020019081526020016000205490506000801b8103612538578192505050612697565b600760009054906101000a900473ffffffffffffffffffffffffffffffffffffffff1673ffffffffffffffffffffffffffffffffffffffff16632ab0f529826040518263ffffffff1660e01b81526004016125939190614470565b602060405180830381865afa1580156125b0573d6000803e3d6000fd5b505050506040513d601f19601f820116820180604052508101906125d491906158a0565b156125e457600792505050612697565b600760009054906101000a900473ffffffffffffffffffffffffffffffffffffffff1673ffffffffffffffffffffffffffffffffffffffff1663584b153e826040518263ffffffff1660e01b815260040161263f9190614470565b602060405180830381865afa15801561265c573d6000803e3d6000fd5b505050506040513d601f19601f8201168201806040525081019061268091906158a0565b1561269057600592505050612697565b6002925050505b919050565b60004382106126e0576040517f08c379a00000000000000000000000000000000000000000000000000000000081526004016126d790615919565b60405180910390fd5b60008360000180549050905060005b8181101561276457600061270382846137c1565b90508486600001828154811061271c5761271b61543e565b5b9060005260206000200160000160009054906101000a900463ffffffff1663ffffffff16111561274e5780925061275e565b60018161275b9190615354565b91505b506126ef565b600082146127c9578460000160018361277d919061540a565b8154811061278e5761278d61543e565b5b9060005260206000200160000160049054906101000a90047bffffffffffffffffffffffffffffffffffffffffffffffffffffffff166127cc565b60005b7bffffffffffffffffffffffffffffffffffffffffffffffffffffffff169250505092915050565b60006127fe6117a1565b61281b6128096120a4565b600143612816919061540a565b611a3d565b101561285c576040517f08c379a0000000000000000000000000000000000000000000000000000000008152600401612853906159ab565b60405180910390fd5b60006128718686868680519060200120611976565b905084518651146128b7576040517f08c379a00000000000000000000000000000000000000000000000000000000081526004016128ae90615a3d565b60405180910390fd5b83518651146128fb576040517f08c379a00000000000000000000000000000000000000000000000000000000081526004016128f290615a3d565b60405180910390fd5b600086511161293f576040517f08c379a000000000000000000000000000000000000000000000000000000000815260040161293690615aa9565b60405180910390fd5b600060016000838152602001908152602001600020905061299f816000016040518060200160405290816000820160009054906101000a900467ffffffffffffffff1667ffffffffffffffff1667ffffffffffffffff16815250506137e7565b6129de576040517f08c379a00000000000000000000000000000000000000000000000000000000081526004016129d590615b3b565b60405180910390fd5b60006129f06129eb6111a9565b613801565b6129f943613801565b612a039190615b6f565b90506000612a17612a12610a84565b613801565b82612a229190615b6f565b9050612a3a828460000161385890919063ffffffff16565b612a50818460010161385890919063ffffffff16565b7f7d84a6263ae0d98d3329bd7b46bb4e8d6f98cd35a7adb45c274c8b7fd5ebd5e084612a7a6120a4565b8b8b8d5167ffffffffffffffff811115612a9757612a96613d1e565b5b604051908082528060200260200182016040528015612aca57816020015b6060815260200190600190039081612ab55790505b508c88888e604051612ae499989796959493929190615cea565b60405180910390a183945050505050949350505050565b60007f000000000000000000000000000000000000000000000000000000000000000073ffffffffffffffffffffffffffffffffffffffff16633a46b1a885856040518363ffffffff1660e01b8152600401612b58929190615d9a565b602060405180830381865afa158015612b75573d6000803e3d6000fd5b505050506040513d601f19601f82011682018060405250810190612b999190614efd565b90509392505050565b7f08f74ea46ef7894f65eabfb5e6e695de773a000b47c529ab559178069b226401600760009054906101000a900473ffffffffffffffffffffffffffffffffffffffff1682604051612bf5929190615dc3565b60405180910390a180600760006101000a81548173ffffffffffffffffffffffffffffffffffffffff021916908373ffffffffffffffffffffffffffffffffffffffff16021790555050565b6060612c6784848460405180606001604052806029815260200161655260299139613887565b90509392505050565b606060405180602001604052806000815250905090565b6000612c91611595565b612c9a836113c9565b7f000000000000000000000000000000000000000000000000000000000000000073ffffffffffffffffffffffffffffffffffffffff16638e539e8c856040518263ffffffff1660e01b8152600401612cf39190613c23565b602060405180830381865afa158015612d10573d6000803e3d6000fd5b505050506040513d601f19601f82011682018060405250810190612d349190614efd565b612d3e9190615dec565b612d489190615e75565b9050919050565b6000639a802a6d60e01b630342018160e01b635f398a1460e01b7f79dd796f000000000000000000000000000000000000000000000000000000001818187bffffffffffffffffffffffffffffffffffffffffffffffffffffffff1916827bffffffffffffffffffffffffffffffffffffffffffffffffffffffff19161480612e3557507f79dd796f000000000000000000000000000000000000000000000000000000007bffffffffffffffffffffffffffffffffffffffffffffffffffffffff1916827bffffffffffffffffffffffffffffffffffffffffffffffffffffffff1916145b80612e9d57507f4e2312e0000000000000000000000000000000000000000000000000000000007bffffffffffffffffffffffffffffffffffffffffffffffffffffffff1916827bffffffffffffffffffffffffffffffffffffffffffffffffffffffff1916145b80612ead5750612eac8261399b565b5b9050919050565b60007f000000000000000000000000000000000000000000000000000000000000000073ffffffffffffffffffffffffffffffffffffffff163073ffffffffffffffffffffffffffffffffffffffff16148015612f3057507f000000000000000000000000000000000000000000000000000000000000000046145b15612f5d577f00000000000000000000000000000000000000000000000000000000000000009050612fcb565b612fc87f00000000000000000000000000000000000000000000000000000000000000007f00000000000000000000000000000000000000000000000000000000000000007f0000000000000000000000000000000000000000000000000000000000000000613a05565b90505b90565b60008282604051602001612fe3929190615f1e565b60405160208183030381529060405280519060200120905092915050565b6000807f7fffffffffffffffffffffffffffffff5d576e7357a4501ddfe92f46681b20a08360001c111561303c576000600391509150613104565b601b8560ff16141580156130545750601c8560ff1614155b15613066576000600491509150613104565b60006001878787876040516000815260200160405260405161308b9493929190615f55565b6020604051602081039080840390855afa1580156130ad573d6000803e3d6000fd5b505050602060405103519050600073ffffffffffffffffffffffffffffffffffffffff168173ffffffffffffffffffffffffffffffffffffffff16036130fb57600060019250925050613104565b80600092509250505b94509492505050565b6000600481111561312157613120614506565b5b81600481111561313457613133614506565b5b03156132d6576001600481111561314e5761314d614506565b5b81600481111561316157613160614506565b5b036131a1576040517f08c379a000000000000000000000000000000000000000000000000000000000815260040161319890615fe6565b60405180910390fd5b600260048111156131b5576131b4614506565b5b8160048111156131c8576131c7614506565b5b03613208576040517f08c379a00000000000000000000000000000000000000000000000000000000081526004016131ff90616052565b60405180910390fd5b6003600481111561321c5761321b614506565b5b81600481111561322f5761322e614506565b5b0361326f576040517f08c379a0000000000000000000000000000000000000000000000000000000008152600401613266906160e4565b60405180910390fd5b60048081111561328257613281614506565b5b81600481111561329557613294614506565b5b036132d5576040517f08c379a00000000000000000000000000000000000000000000000000000000081526004016132cc90616176565b60405180910390fd5b5b50565b60006004600087815260200190815260200160002090508060030160008673ffffffffffffffffffffffffffffffffffffffff1673ffffffffffffffffffffffffffffffffffffffff16815260200190815260200160002060009054906101000a900460ff161561337f576040517f08c379a000000000000000000000000000000000000000000000000000000000815260040161337690616208565b60405180910390fd5b60018160030160008773ffffffffffffffffffffffffffffffffffffffff1673ffffffffffffffffffffffffffffffffffffffff16815260200190815260200160002060006101000a81548160ff021916908315150217905550600060028111156133ed576133ec614506565b5b60ff168460ff1603613419578281600001600082825461340d9190615354565b925050819055506134d5565b6001600281111561342d5761342c614506565b5b60ff168460ff1603613459578281600101600082825461344d9190615354565b925050819055506134d4565b60028081111561346c5761346b614506565b5b60ff168460ff1603613498578281600201600082825461348c9190615354565b925050819055506134d3565b6040517f08c379a00000000000000000000000000000000000000000000000000000000081526004016134ca9061629a565b60405180910390fd5b5b5b505050505050565b60008160000160009054906101000a9004600f0b600f0b8260000160109054906101000a9004600f0b600f0b13159050919050565b60008260000160109054906101000a9004600f0b90508183600101600083600f0b600f0b815260200190815260200160002081905550600181018360000160106101000a8154816fffffffffffffffffffffffffffffffff0219169083600f0b6fffffffffffffffffffffffffffffffff160217905550505050565b600760009054906101000a900473ffffffffffffffffffffffffffffffffffffffff1673ffffffffffffffffffffffffffffffffffffffff1663e38335e5348686866000876040518763ffffffff1660e01b81526004016135f3959493929190615205565b6000604051808303818588803b15801561360c57600080fd5b505af1158015613620573d6000803e3d6000fd5b50505050505050505050565b60008160000160006101000a8154816fffffffffffffffffffffffffffffffff0219169083600f0b6fffffffffffffffffffffffffffffffff16021790555060008160000160106101000a8154816fffffffffffffffffffffffffffffffff0219169083600f0b6fffffffffffffffffffffffffffffffff16021790555050565b6000806001600084815260200190815260200160002090508060020160009054906101000a900460ff16156136e65760079150506137bc565b8060020160019054906101000a900460ff16156137075760029150506137bc565b600061371284611117565b905060008103613757576040517f08c379a000000000000000000000000000000000000000000000000000000000815260040161374e90616306565b60405180910390fd5b438110613769576000925050506137bc565b6000613774856117c7565b905043811061378957600193505050506137bc565b61379285613a3f565b80156137a357506137a285613a86565b5b156137b457600493505050506137bc565b600393505050505b919050565b600060028284186137d29190615e75565b8284166137df9190615354565b905092915050565b600080826000015167ffffffffffffffff16149050919050565b600067ffffffffffffffff8016821115613850576040517f08c379a000000000000000000000000000000000000000000000000000000000815260040161384790616398565b60405180910390fd5b819050919050565b808260000160006101000a81548167ffffffffffffffff021916908367ffffffffffffffff1602179055505050565b6060824710156138cc576040517f08c379a00000000000000000000000000000000000000000000000000000000081526004016138c39061642a565b60405180910390fd5b6138d585613ab1565b613914576040517f08c379a000000000000000000000000000000000000000000000000000000000815260040161390b90616496565b60405180910390fd5b6000808673ffffffffffffffffffffffffffffffffffffffff16858760405161393d91906164e7565b60006040518083038185875af1925050503d806000811461397a576040519150601f19603f3d011682016040523d82523d6000602084013e61397f565b606091505b509150915061398f828286613ad4565b92505050949350505050565b60007f01ffc9a7000000000000000000000000000000000000000000000000000000007bffffffffffffffffffffffffffffffffffffffffffffffffffffffff1916827bffffffffffffffffffffffffffffffffffffffffffffffffffffffff1916149050919050565b60008383834630604051602001613a209594939291906164fe565b6040516020818303038152906040528051906020012090509392505050565b60008060046000848152602001908152602001600020905080600201548160010154613a6b9190615354565b613a7c613a7785611117565b611a6e565b1115915050919050565b6000806004600084815260200190815260200160002090508060000154816001015411915050919050565b6000808273ffffffffffffffffffffffffffffffffffffffff163b119050919050565b60608315613ae457829050613b34565b600083511115613af75782518084602001fd5b816040517f08c379a0000000000000000000000000000000000000000000000000000000008152600401613b2b9190614012565b60405180910390fd5b9392505050565b6000604051905090565b600080fd5b600080fd5b60007fffffffff0000000000000000000000000000000000000000000000000000000082169050919050565b613b8481613b4f565b8114613b8f57600080fd5b50565b600081359050613ba181613b7b565b92915050565b600060208284031215613bbd57613bbc613b45565b5b6000613bcb84828501613b92565b91505092915050565b60008115159050919050565b613be981613bd4565b82525050565b6000602082019050613c046000830184613be0565b92915050565b6000819050919050565b613c1d81613c0a565b82525050565b6000602082019050613c386000830184613c14565b92915050565b613c4781613c0a565b8114613c5257600080fd5b50565b600081359050613c6481613c3e565b92915050565b600060ff82169050919050565b613c8081613c6a565b8114613c8b57600080fd5b50565b600081359050613c9d81613c77565b92915050565b600080fd5b600080fd5b600080fd5b60008083601f840112613cc857613cc7613ca3565b5b8235905067ffffffffffffffff811115613ce557613ce4613ca8565b5b602083019150836001820283011115613d0157613d00613cad565b5b9250929050565b600080fd5b6000601f19601f8301169050919050565b7f4e487b7100000000000000000000000000000000000000000000000000000000600052604160045260246000fd5b613d5682613d0d565b810181811067ffffffffffffffff82111715613d7557613d74613d1e565b5b80604052505050565b6000613d88613b3b565b9050613d948282613d4d565b919050565b600067ffffffffffffffff821115613db457613db3613d1e565b5b613dbd82613d0d565b9050602081019050919050565b82818337600083830152505050565b6000613dec613de784613d99565b613d7e565b905082815260208101848484011115613e0857613e07613d08565b5b613e13848285613dca565b509392505050565b600082601f830112613e3057613e2f613ca3565b5b8135613e40848260208601613dd9565b91505092915050565b6000819050919050565b613e5c81613e49565b8114613e6757600080fd5b50565b600081359050613e7981613e53565b92915050565b60008060008060008060008060e0898b031215613e9f57613e9e613b45565b5b6000613ead8b828c01613c55565b9850506020613ebe8b828c01613c8e565b975050604089013567ffffffffffffffff811115613edf57613ede613b4a565b5b613eeb8b828c01613cb2565b9650965050606089013567ffffffffffffffff811115613f0e57613f0d613b4a565b5b613f1a8b828c01613e1b565b9450506080613f2b8b828c01613c8e565b93505060a0613f3c8b828c01613e6a565b92505060c0613f4d8b828c01613e6a565b9150509295985092959890939650565b600060208284031215613f7357613f72613b45565b5b6000613f8184828501613c55565b91505092915050565b600081519050919050565b600082825260208201905092915050565b60005b83811015613fc4578082015181840152602081019050613fa9565b83811115613fd3576000848401525b50505050565b6000613fe482613f8a565b613fee8185613f95565b9350613ffe818560208601613fa6565b61400781613d0d565b840191505092915050565b6000602082019050818103600083015261402c8184613fd9565b905092915050565b600073ffffffffffffffffffffffffffffffffffffffff82169050919050565b600061405f82614034565b9050919050565b61406f81614054565b811461407a57600080fd5b50565b60008135905061408c81614066565b92915050565b600080600080608085870312156140ac576140ab613b45565b5b60006140ba8782880161407d565b94505060206140cb8782880161407d565b93505060406140dc87828801613c55565b925050606085013567ffffffffffffffff8111156140fd576140fc613b4a565b5b61410987828801613e1b565b91505092959194509250565b61411e81613b4f565b82525050565b60006020820190506141396000830184614115565b92915050565b600067ffffffffffffffff82111561415a57614159613d1e565b5b602082029050602081019050919050565b600061417e6141798461413f565b613d7e565b905080838252602082019050602084028301858111156141a1576141a0613cad565b5b835b818110156141ca57806141b6888261407d565b8452602084019350506020810190506141a3565b5050509392505050565b600082601f8301126141e9576141e8613ca3565b5b81356141f984826020860161416b565b91505092915050565b600067ffffffffffffffff82111561421d5761421c613d1e565b5b602082029050602081019050919050565b600061424161423c84614202565b613d7e565b9050808382526020820190506020840283018581111561426457614263613cad565b5b835b8181101561428d57806142798882613c55565b845260208401935050602081019050614266565b5050509392505050565b600082601f8301126142ac576142ab613ca3565b5b81356142bc84826020860161422e565b91505092915050565b600067ffffffffffffffff8211156142e0576142df613d1e565b5b602082029050602081019050919050565b60006143046142ff846142c5565b613d7e565b9050808382526020820190506020840283018581111561432757614326613cad565b5b835b8181101561436e57803567ffffffffffffffff81111561434c5761434b613ca3565b5b8086016143598982613e1b565b85526020850194505050602081019050614329565b5050509392505050565b600082601f83011261438d5761438c613ca3565b5b813561439d8482602086016142f1565b91505092915050565b600080600080608085870312156143c0576143bf613b45565b5b600085013567ffffffffffffffff8111156143de576143dd613b4a565b5b6143ea878288016141d4565b945050602085013567ffffffffffffffff81111561440b5761440a613b4a565b5b61441787828801614297565b935050604085013567ffffffffffffffff81111561443857614437613b4a565b5b61444487828801614378565b925050606061445587828801613e6a565b91505092959194509250565b61446a81613e49565b82525050565b60006020820190506144856000830184614461565b92915050565b600080600080600060a086880312156144a7576144a6613b45565b5b60006144b588828901613c55565b95505060206144c688828901613c8e565b94505060406144d788828901613c8e565b93505060606144e888828901613e6a565b92505060806144f988828901613e6a565b9150509295509295909350565b7f4e487b7100000000000000000000000000000000000000000000000000000000600052602160045260246000fd5b6008811061454657614545614506565b5b50565b600081905061455782614535565b919050565b600061456782614549565b9050919050565b6145778161455c565b82525050565b6000602082019050614592600083018461456e565b92915050565b600080604083850312156145af576145ae613b45565b5b60006145bd85828601613c55565b92505060206145ce8582860161407d565b9150509250929050565b60006060820190506145ed6000830186613c14565b6145fa6020830185613c14565b6146076040830184613c14565b949350505050565b6000806040838503121561462657614625613b45565b5b600061463485828601613c55565b925050602061464585828601613c8e565b9150509250929050565b60008060008060006080868803121561466b5761466a613b45565b5b600061467988828901613c55565b955050602061468a88828901613c8e565b945050604086013567ffffffffffffffff8111156146ab576146aa613b4a565b5b6146b788828901613cb2565b9350935050606086013567ffffffffffffffff8111156146da576146d9613b4a565b5b6146e688828901613e1b565b9150509295509295909350565b6000806000806060858703121561470d5761470c613b45565b5b600061471b87828801613c55565b945050602061472c87828801613c8e565b935050604085013567ffffffffffffffff81111561474d5761474c613b4a565b5b61475987828801613cb2565b925092505092959194509250565b600067ffffffffffffffff82111561478257614781613d1e565b5b61478b82613d0d565b9050602081019050919050565b60006147ab6147a684614767565b613d7e565b9050828152602081018484840111156147c7576147c6613d08565b5b6147d2848285613dca565b509392505050565b600082601f8301126147ef576147ee613ca3565b5b81356147ff848260208601614798565b91505092915050565b6000806000806080858703121561482257614821613b45565b5b600085013567ffffffffffffffff8111156148405761483f613b4a565b5b61484c878288016141d4565b945050602085013567ffffffffffffffff81111561486d5761486c613b4a565b5b61487987828801614297565b935050604085013567ffffffffffffffff81111561489a57614899613b4a565b5b6148a687828801614378565b925050606085013567ffffffffffffffff8111156148c7576148c6613b4a565b5b6148d3878288016147da565b91505092959194509250565b6000806000606084860312156148f8576148f7613b45565b5b60006149068682870161407d565b935050602061491786828701613c55565b925050604084013567ffffffffffffffff81111561493857614937613b4a565b5b61494486828701613e1b565b9150509250925092565b600061495982614034565b9050919050565b600061496b8261494e565b9050919050565b61497b81614960565b811461498657600080fd5b50565b60008135905061499881614972565b92915050565b6000602082840312156149b4576149b3613b45565b5b60006149c284828501614989565b91505092915050565b600080600080600060a086880312156149e7576149e6613b45565b5b60006149f58882890161407d565b9550506020614a068882890161407d565b945050604086013567ffffffffffffffff811115614a2757614a26613b4a565b5b614a3388828901614297565b935050606086013567ffffffffffffffff811115614a5457614a53613b4a565b5b614a6088828901614297565b925050608086013567ffffffffffffffff811115614a8157614a80613b4a565b5b614a8d88828901613e1b565b9150509295509295909350565b60008083601f840112614ab057614aaf613ca3565b5b8235905067ffffffffffffffff811115614acd57614acc613ca8565b5b602083019150836001820283011115614ae957614ae8613cad565b5b9250929050565b60008060008060608587031215614b0a57614b09613b45565b5b6000614b188782880161407d565b9450506020614b2987828801613c55565b935050604085013567ffffffffffffffff811115614b4a57614b49613b4a565b5b614b5687828801614a9a565b925092505092959194509250565b614b6d81614054565b82525050565b6000602082019050614b886000830184614b64565b92915050565b60008060408385031215614ba557614ba4613b45565b5b6000614bb38582860161407d565b9250506020614bc485828601613c55565b9150509250929050565b600080600080600060a08688031215614bea57614be9613b45565b5b6000614bf88882890161407d565b9550506020614c098882890161407d565b9450506040614c1a88828901613c55565b9350506060614c2b88828901613c55565b925050608086013567ffffffffffffffff811115614c4c57614c4b613b4a565b5b614c5888828901613e1b565b9150509295509295909350565b6000819050919050565b6000614c8a614c85614c8084614034565b614c65565b614034565b9050919050565b6000614c9c82614c6f565b9050919050565b6000614cae82614c91565b9050919050565b614cbe81614ca3565b82525050565b6000602082019050614cd96000830184614cb5565b92915050565b600081905092915050565b6000614cf68385614cdf565b9350614d03838584613dca565b82840190509392505050565b6000614d1c828486614cea565b91508190509392505050565b614d3181613c6a565b82525050565b600060a082019050614d4c6000830188614461565b614d596020830187613c14565b614d666040830186614d28565b614d736060830185614461565b614d806080830184614461565b9695505050505050565b7f476f7665726e6f723a206f6e6c79476f7665726e616e63650000000000000000600082015250565b6000614dc0601883613f95565b9150614dcb82614d8a565b602082019050919050565b60006020820190508181036000830152614def81614db3565b9050919050565b7f4e487b7100000000000000000000000000000000000000000000000000000000600052602260045260246000fd5b60006002820490506001821680614e3d57607f821691505b602082108103614e5057614e4f614df6565b5b50919050565b7f476f7665726e6f723a2070726f706f73616c206e6f742073756363657373667560008201527f6c00000000000000000000000000000000000000000000000000000000000000602082015250565b6000614eb2602183613f95565b9150614ebd82614e56565b604082019050919050565b60006020820190508181036000830152614ee181614ea5565b9050919050565b600081519050614ef781613c3e565b92915050565b600060208284031215614f1357614f12613b45565b5b6000614f2184828501614ee8565b91505092915050565b600081519050919050565b600082825260208201905092915050565b6000819050602082019050919050565b614f5f81614054565b82525050565b6000614f718383614f56565b60208301905092915050565b6000602082019050919050565b6000614f9582614f2a565b614f9f8185614f35565b9350614faa83614f46565b8060005b83811015614fdb578151614fc28882614f65565b9750614fcd83614f7d565b925050600181019050614fae565b5085935050505092915050565b600081519050919050565b600082825260208201905092915050565b6000819050602082019050919050565b61501d81613c0a565b82525050565b600061502f8383615014565b60208301905092915050565b6000602082019050919050565b600061505382614fe8565b61505d8185614ff3565b935061506883615004565b8060005b838110156150995781516150808882615023565b975061508b8361503b565b92505060018101905061506c565b5085935050505092915050565b600081519050919050565b600082825260208201905092915050565b6000819050602082019050919050565b600081519050919050565b600082825260208201905092915050565b60006150f9826150d2565b61510381856150dd565b9350615113818560208601613fa6565b61511c81613d0d565b840191505092915050565b600061513383836150ee565b905092915050565b6000602082019050919050565b6000615153826150a6565b61515d81856150b1565b93508360208202850161516f856150c2565b8060005b858110156151ab578484038952815161518c8582615127565b94506151978361513b565b925060208a01995050600181019050615173565b50829750879550505050505092915050565b6000819050919050565b60008160001b9050919050565b60006151ef6151ea6151e5846151bd565b6151c7565b613e49565b9050919050565b6151ff816151d4565b82525050565b600060a082019050818103600083015261521f8188614f8a565b905081810360208301526152338187615048565b905081810360408301526152478186615148565b905061525660608301856151f6565b6152636080830184614461565b9695505050505050565b60008151905061527c81613e53565b92915050565b60006020828403121561529857615297613b45565b5b60006152a68482850161526d565b91505092915050565b600060c08201905081810360008301526152c98189614f8a565b905081810360208301526152dd8188615048565b905081810360408301526152f18187615148565b905061530060608301866151f6565b61530d6080830185614461565b61531a60a0830184613c14565b979650505050505050565b7f4e487b7100000000000000000000000000000000000000000000000000000000600052601160045260246000fd5b600061535f82613c0a565b915061536a83613c0a565b9250827fffffffffffffffffffffffffffffffffffffffffffffffffffffffffffffffff0382111561539f5761539e615325565b5b828201905092915050565b60006040820190506153bf6000830185613c14565b6153cc6020830184613c14565b9392505050565b60006060820190506153e86000830186614461565b6153f56020830185613c14565b6154026040830184614d28565b949350505050565b600061541582613c0a565b915061542083613c0a565b92508282101561543357615432615325565b5b828203905092915050565b7f4e487b7100000000000000000000000000000000000000000000000000000000600052603260045260246000fd5b600060808201905081810360008301526154878187614f8a565b9050818103602083015261549b8186615048565b905081810360408301526154af8185615148565b90506154be6060830184614461565b95945050505050565b7f53616665436173743a2076616c756520646f65736e27742066697420696e203260008201527f3234206269747300000000000000000000000000000000000000000000000000602082015250565b6000615523602783613f95565b915061552e826154c7565b604082019050919050565b6000602082019050818103600083015261555281615516565b9050919050565b7f53616665436173743a2076616c756520646f65736e27742066697420696e203360008201527f3220626974730000000000000000000000000000000000000000000000000000602082015250565b60006155b5602683613f95565b91506155c082615559565b604082019050919050565b600060208201905081810360008301526155e4816155a8565b9050919050565b7f476f7665726e6f723a20766f7465206e6f742063757272656e746c792061637460008201527f6976650000000000000000000000000000000000000000000000000000000000602082015250565b6000615647602383613f95565b9150615652826155eb565b604082019050919050565b600060208201905081810360008301526156768161563a565b9050919050565b60006080820190506156926000830187613c14565b61569f6020830186614d28565b6156ac6040830185613c14565b81810360608301526156be8184613fd9565b905095945050505050565b600082825260208201905092915050565b60006156e5826150d2565b6156ef81856156c9565b93506156ff818560208601613fa6565b61570881613d0d565b840191505092915050565b600060a0820190506157286000830188613c14565b6157356020830187614d28565b6157426040830186613c14565b81810360608301526157548185613fd9565b9050818103608083015261576881846156da565b90509695505050505050565b7f476f7665726e6f72566f74657351756f72756d4672616374696f6e3a2071756f60008201527f72756d4e756d657261746f72206f7665722071756f72756d44656e6f6d696e6160208201527f746f720000000000000000000000000000000000000000000000000000000000604082015250565b60006157f6604383613f95565b915061580182615774565b606082019050919050565b60006020820190508181036000830152615825816157e9565b9050919050565b600061583782613c0a565b91507fffffffffffffffffffffffffffffffffffffffffffffffffffffffffffffffff820361586957615868615325565b5b600182019050919050565b61587d81613bd4565b811461588857600080fd5b50565b60008151905061589a81615874565b92915050565b6000602082840312156158b6576158b5613b45565b5b60006158c48482850161588b565b91505092915050565b7f436865636b706f696e74733a20626c6f636b206e6f7420796574206d696e6564600082015250565b6000615903602083613f95565b915061590e826158cd565b602082019050919050565b60006020820190508181036000830152615932816158f6565b9050919050565b7f476f7665726e6f723a2070726f706f73657220766f7465732062656c6f77207060008201527f726f706f73616c207468726573686f6c64000000000000000000000000000000602082015250565b6000615995603183613f95565b91506159a082615939565b604082019050919050565b600060208201905081810360008301526159c481615988565b9050919050565b7f476f7665726e6f723a20696e76616c69642070726f706f73616c206c656e677460008201527f6800000000000000000000000000000000000000000000000000000000000000602082015250565b6000615a27602183613f95565b9150615a32826159cb565b604082019050919050565b60006020820190508181036000830152615a5681615a1a565b9050919050565b7f476f7665726e6f723a20656d7074792070726f706f73616c0000000000000000600082015250565b6000615a93601883613f95565b9150615a9e82615a5d565b602082019050919050565b60006020820190508181036000830152615ac281615a86565b9050919050565b7f476f7665726e6f723a2070726f706f73616c20616c726561647920657869737460008201527f7300000000000000000000000000000000000000000000000000000000000000602082015250565b6000615b25602183613f95565b9150615b3082615ac9565b604082019050919050565b60006020820190508181036000830152615b5481615b18565b9050919050565b600067ffffffffffffffff82169050919050565b6000615b7a82615b5b565b9150615b8583615b5b565b92508267ffffffffffffffff03821115615ba257615ba1615325565b5b828201905092915050565b600081519050919050565b600082825260208201905092915050565b6000819050602082019050919050565b600082825260208201905092915050565b6000615bf582613f8a565b615bff8185615bd9565b9350615c0f818560208601613fa6565b615c1881613d0d565b840191505092915050565b6000615c2f8383615bea565b905092915050565b6000602082019050919050565b6000615c4f82615bad565b615c598185615bb8565b935083602082028501615c6b85615bc9565b8060005b85811015615ca75784840389528151615c888582615c23565b9450615c9383615c37565b925060208a01995050600181019050615c6f565b50829750879550505050505092915050565b6000615cd4615ccf615cca84615b5b565b614c65565b613c0a565b9050919050565b615ce481615cb9565b82525050565b600061012082019050615d00600083018c613c14565b615d0d602083018b614b64565b8181036040830152615d1f818a614f8a565b90508181036060830152615d338189615048565b90508181036080830152615d478188615c44565b905081810360a0830152615d5b8187615148565b9050615d6a60c0830186615cdb565b615d7760e0830185615cdb565b818103610100830152615d8a8184613fd9565b90509a9950505050505050505050565b6000604082019050615daf6000830185614b64565b615dbc6020830184613c14565b9392505050565b6000604082019050615dd86000830185614b64565b615de56020830184614b64565b9392505050565b6000615df782613c0a565b9150615e0283613c0a565b9250817fffffffffffffffffffffffffffffffffffffffffffffffffffffffffffffffff0483118215151615615e3b57615e3a615325565b5b828202905092915050565b7f4e487b7100000000000000000000000000000000000000000000000000000000600052601260045260246000fd5b6000615e8082613c0a565b9150615e8b83613c0a565b925082615e9b57615e9a615e46565b5b828204905092915050565b600081905092915050565b7f1901000000000000000000000000000000000000000000000000000000000000600082015250565b6000615ee7600283615ea6565b9150615ef282615eb1565b600282019050919050565b6000819050919050565b615f18615f1382613e49565b615efd565b82525050565b6000615f2982615eda565b9150615f358285615f07565b602082019150615f458284615f07565b6020820191508190509392505050565b6000608082019050615f6a6000830187614461565b615f776020830186614d28565b615f846040830185614461565b615f916060830184614461565b95945050505050565b7f45434453413a20696e76616c6964207369676e61747572650000000000000000600082015250565b6000615fd0601883613f95565b9150615fdb82615f9a565b602082019050919050565b60006020820190508181036000830152615fff81615fc3565b9050919050565b7f45434453413a20696e76616c6964207369676e6174757265206c656e67746800600082015250565b600061603c601f83613f95565b915061604782616006565b602082019050919050565b6000602082019050818103600083015261606b8161602f565b9050919050565b7f45434453413a20696e76616c6964207369676e6174757265202773272076616c60008201527f7565000000000000000000000000000000000000000000000000000000000000602082015250565b60006160ce602283613f95565b91506160d982616072565b604082019050919050565b600060208201905081810360008301526160fd816160c1565b9050919050565b7f45434453413a20696e76616c6964207369676e6174757265202776272076616c60008201527f7565000000000000000000000000000000000000000000000000000000000000602082015250565b6000616160602283613f95565b915061616b82616104565b604082019050919050565b6000602082019050818103600083015261618f81616153565b9050919050565b7f476f7665726e6f72566f74696e6753696d706c653a20766f746520616c72656160008201527f6479206361737400000000000000000000000000000000000000000000000000602082015250565b60006161f2602783613f95565b91506161fd82616196565b604082019050919050565b60006020820190508181036000830152616221816161e5565b9050919050565b7f476f7665726e6f72566f74696e6753696d706c653a20696e76616c696420766160008201527f6c756520666f7220656e756d20566f7465547970650000000000000000000000602082015250565b6000616284603583613f95565b915061628f82616228565b604082019050919050565b600060208201905081810360008301526162b381616277565b9050919050565b7f476f7665726e6f723a20756e6b6e6f776e2070726f706f73616c206964000000600082015250565b60006162f0601d83613f95565b91506162fb826162ba565b602082019050919050565b6000602082019050818103600083015261631f816162e3565b9050919050565b7f53616665436173743a2076616c756520646f65736e27742066697420696e203660008201527f3420626974730000000000000000000000000000000000000000000000000000602082015250565b6000616382602683613f95565b915061638d82616326565b604082019050919050565b600060208201905081810360008301526163b181616375565b9050919050565b7f416464726573733a20696e73756666696369656e742062616c616e636520666f60008201527f722063616c6c0000000000000000000000000000000000000000000000000000602082015250565b6000616414602683613f95565b915061641f826163b8565b604082019050919050565b6000602082019050818103600083015261644381616407565b9050919050565b7f416464726573733a2063616c6c20746f206e6f6e2d636f6e7472616374000000600082015250565b6000616480601d83613f95565b915061648b8261644a565b602082019050919050565b600060208201905081810360008301526164af81616473565b9050919050565b60006164c1826150d2565b6164cb8185614cdf565b93506164db818560208601613fa6565b80840191505092915050565b60006164f382846164b6565b915081905092915050565b600060a0820190506165136000830188614461565b6165206020830187614461565b61652d6040830186614461565b61653a6060830185613c14565b6165476080830184614b64565b969550505050505056fe416464726573733a206c6f772d6c6576656c2063616c6c20776974682076616c7565206661696c6564a264697066735822122007946773a8173df17cca91a6accf2b7b5ce5b178885a04e306b3fd63d056e88e64736f6c634300080d0033a2646970667358221220ec9bb78d3757f39aaa54d0a409af4b6558f4d5b8e1cd7816d0029634bd93e03d64736f6c634300080d0033",
  "immutableReferences": {},
  "source": "// SPDX-License-Identifier: GPL-3.0\npragma solidity ^0.8.0;\n\n// import \"@openzeppelin/contracts@4.7.1/token/ERC20/ERC20.sol\";\nimport \"@openzeppelin/contracts/access/Ownable.sol\";\nimport \"@openzeppelin/contracts/governance/TimelockController.sol\";\nimport \"@openzeppelin/contracts/governance/extensions/GovernorVotes.sol\";\nimport \"./MyGovernor.sol\";\n\ncontract GovernorFactory is Ownable {\n\n    function createTimelock(address[] calldata proposers, address[] calldata executors) public returns(address) {\n        return address(new TimelockController(3600, proposers, executors));\n    }\n\n    function createGovernor(IVotes _token, TimelockController _timelock) public returns(address){\n        return address(new MyGovernor(_token, _timelock));\n    }\n}",
  "sourcePath": "/Users/abhinilagarwal/Desktop/equistart/contracts/contracts/GovernorFactory.sol",
  "compiler": {
    "name": "solc",
    "version": "0.8.13+commit.abaa5c0e.Emscripten.clang"
  },
  "schemaVersion": "3.4.7",
  "updatedAt": "2022-08-03T11:32:54.096Z",
  "devdoc": {
    "kind": "dev",
    "methods": {
      "owner()": {
        "details": "Returns the address of the current owner."
      },
      "renounceOwnership()": {
        "details": "Leaves the contract without owner. It will not be possible to call `onlyOwner` functions anymore. Can only be called by the current owner. NOTE: Renouncing ownership will leave the contract without an owner, thereby removing any functionality that is only available to the owner."
      },
      "transferOwnership(address)": {
        "details": "Transfers ownership of the contract to a new account (`newOwner`). Can only be called by the current owner."
      }
    },
    "version": 1
  },
  "userdoc": {
    "kind": "user",
    "methods": {},
    "version": 1
  }
}