{
  "contractName": "IVotes",
  "abi": [
    {
      "anonymous": false,
      "inputs": [
        {
          "indexed": true,
          "internalType": "address",
          "name": "delegator",
          "type": "address"
        },
        {
          "indexed": true,
          "internalType": "address",
          "name": "fromDelegate",
          "type": "address"
        },
        {
          "indexed": true,
          "internalType": "address",
          "name": "toDelegate",
          "type": "address"
        }
      ],
      "name": "DelegateChanged",
      "type": "event"
    },
    {
      "anonymous": false,
      "inputs": [
        {
          "indexed": true,
          "internalType": "address",
          "name": "delegate",
          "type": "address"
        },
        {
          "indexed": false,
          "internalType": "uint256",
          "name": "previousBalance",
          "type": "uint256"
        },
        {
          "indexed": false,
          "internalType": "uint256",
          "name": "newBalance",
          "type": "uint256"
        }
      ],
      "name": "DelegateVotesChanged",
      "type": "event"
    },
    {
      "inputs": [
        {
          "internalType": "address",
          "name": "account",
          "type": "address"
        }
      ],
      "name": "getVotes",
      "outputs": [
        {
          "internalType": "uint256",
          "name": "",
          "type": "uint256"
        }
      ],
      "stateMutability": "view",
      "type": "function"
    },
    {
      "inputs": [
        {
          "internalType": "address",
          "name": "account",
          "type": "address"
        },
        {
          "internalType": "uint256",
          "name": "blockNumber",
          "type": "uint256"
        }
      ],
      "name": "getPastVotes",
      "outputs": [
        {
          "internalType": "uint256",
          "name": "",
          "type": "uint256"
        }
      ],
      "stateMutability": "view",
      "type": "function"
    },
    {
      "inputs": [
        {
          "internalType": "uint256",
          "name": "blockNumber",
          "type": "uint256"
        }
      ],
      "name": "getPastTotalSupply",
      "outputs": [
        {
          "internalType": "uint256",
          "name": "",
          "type": "uint256"
        }
      ],
      "stateMutability": "view",
      "type": "function"
    },
    {
      "inputs": [
        {
          "internalType": "address",
          "name": "account",
          "type": "address"
        }
      ],
      "name": "delegates",
      "outputs": [
        {
          "internalType": "address",
          "name": "",
          "type": "address"
        }
      ],
      "stateMutability": "view",
      "type": "function"
    },
    {
      "inputs": [
        {
          "internalType": "address",
          "name": "delegatee",
          "type": "address"
        }
      ],
      "name": "delegate",
      "outputs": [],
      "stateMutability": "nonpayable",
      "type": "function"
    },
    {
      "inputs": [
        {
          "internalType": "address",
          "name": "delegatee",
          "type": "address"
        },
        {
          "internalType": "uint256",
          "name": "nonce",
          "type": "uint256"
        },
        {
          "internalType": "uint256",
          "name": "expiry",
          "type": "uint256"
        },
        {
          "internalType": "uint8",
          "name": "v",
          "type": "uint8"
        },
        {
          "internalType": "bytes32",
          "name": "r",
          "type": "bytes32"
        },
        {
          "internalType": "bytes32",
          "name": "s",
          "type": "bytes32"
        }
      ],
      "name": "delegateBySig",
      "outputs": [],
      "stateMutability": "nonpayable",
      "type": "function"
    }
  ],
  "bytecode": "0x608060405234801561001057600080fd5b50610218806100206000396000f3fe608060405234801561001057600080fd5b50600436106100625760003560e01c80633a46b1a814610067578063587cde1e146100905780635c19a95c146100bc5780638e539e8c146100cf5780639ab24eb0146100dd578063c3cda520146100eb575b600080fd5b61007d61007536600461011d565b600092915050565b6040519081526020015b60405180910390f35b6100a461009e366004610147565b50600090565b6040516001600160a01b039091168152602001610087565b6100cd6100ca366004610147565b50565b005b61007d61009e366004610169565b61007d61009e366004610147565b6100cd6100f9366004610182565b505050505050565b80356001600160a01b038116811461011857600080fd5b919050565b6000806040838503121561013057600080fd5b61013983610101565b946020939093013593505050565b60006020828403121561015957600080fd5b61016282610101565b9392505050565b60006020828403121561017b57600080fd5b5035919050565b60008060008060008060c0878903121561019b57600080fd5b6101a487610101565b95506020870135945060408701359350606087013560ff811681146101c857600080fd5b9598949750929560808101359460a090910135935091505056fea26469706673582212208682a8d78869830026270c0c820b1ad038aaf84c55d0fadf8f5e21953a73a41564736f6c634300080d0033",
  "immutableReferences": {},
  "source": "// SPDX-License-Identifier: MIT\n// OpenZeppelin Contracts (last updated v4.5.0) (governance/utils/IVotes.sol)\npragma solidity ^0.8.0;\n\n/**\n * @dev Common interface for {ERC20Votes}, {ERC721Votes}, and other {Votes}-enabled contracts.\n *\n * _Available since v4.5._\n */\ncontract IVotes {\n    /**\n     * @dev Emitted when an account changes their delegate.\n     */\n    event DelegateChanged(address indexed delegator, address indexed fromDelegate, address indexed toDelegate);\n\n    /**\n     * @dev Emitted when a token transfer or delegate change results in changes to a delegate's number of votes.\n     */\n    event DelegateVotesChanged(address indexed delegate, uint256 previousBalance, uint256 newBalance);\n\n    /**\n     * @dev Returns the current amount of votes that `account` has.\n     */\n    function getVotes(address account) external view virtual returns (uint256){}\n\n    /**\n     * @dev Returns the amount of votes that `account` had at the end of a past block (`blockNumber`).\n     */\n    function getPastVotes(address account, uint256 blockNumber) external view virtual returns (uint256){}\n\n    /**\n     * @dev Returns the total supply of votes available at the end of a past block (`blockNumber`).\n     *\n     * NOTE: This value is the sum of all available votes, which is not necessarily the sum of all delegated votes.\n     * Votes that have not been delegated are still part of total supply, even though they would not participate in a\n     * vote.\n     */\n    function getPastTotalSupply(uint256 blockNumber) external view virtual returns (uint256){}\n\n    /**\n     * @dev Returns the delegate that `account` has chosen.\n     */\n    function delegates(address account) external view virtual returns (address){}\n\n    /**\n     * @dev Delegates votes from the sender to `delegatee`.\n     */\n    function delegate(address delegatee) external virtual {}\n\n    /**\n     * @dev Delegates votes from signer to `delegatee`.\n     */\n    function delegateBySig(\n        address delegatee,\n        uint256 nonce,\n        uint256 expiry,\n        uint8 v,\n        bytes32 r,\n        bytes32 s\n    ) external virtual{}\n}\n",
  "sourcePath": "@openzeppelin/contracts/governance/utils/IVotes.sol",
  "compiler": {
    "name": "solc",
    "version": "0.8.13+commit.abaa5c0e.Emscripten.clang"
  },
  "schemaVersion": "3.4.7",
  "updatedAt": "2022-09-09T13:44:47.259Z",
  "devdoc": {
    "details": "Common interface for {ERC20Votes}, {ERC721Votes}, and other {Votes}-enabled contracts. _Available since v4.5._",
    "events": {
      "DelegateChanged(address,address,address)": {
        "details": "Emitted when an account changes their delegate."
      },
      "DelegateVotesChanged(address,uint256,uint256)": {
        "details": "Emitted when a token transfer or delegate change results in changes to a delegate's number of votes."
      }
    },
    "kind": "dev",
    "methods": {
      "delegate(address)": {
        "details": "Delegates votes from the sender to `delegatee`."
      },
      "delegateBySig(address,uint256,uint256,uint8,bytes32,bytes32)": {
        "details": "Delegates votes from signer to `delegatee`."
      },
      "delegates(address)": {
        "details": "Returns the delegate that `account` has chosen."
      },
      "getPastTotalSupply(uint256)": {
        "details": "Returns the total supply of votes available at the end of a past block (`blockNumber`). NOTE: This value is the sum of all available votes, which is not necessarily the sum of all delegated votes. Votes that have not been delegated are still part of total supply, even though they would not participate in a vote."
      },
      "getPastVotes(address,uint256)": {
        "details": "Returns the amount of votes that `account` had at the end of a past block (`blockNumber`)."
      },
      "getVotes(address)": {
        "details": "Returns the current amount of votes that `account` has."
      }
    },
    "version": 1
  },
  "userdoc": {
    "kind": "user",
    "methods": {},
    "version": 1
  }
}