{
  "contractName": "MyGovernor",
  "abi": [
    {
      "inputs": [
        {
          "internalType": "contract IVotes",
          "name": "_token",
          "type": "address"
        },
        {
          "internalType": "contract TimelockController",
          "name": "_timelock",
          "type": "address"
        }
      ],
      "stateMutability": "nonpayable",
      "type": "constructor"
    },
    {
      "inputs": [],
      "name": "Empty",
      "type": "error"
    },
    {
      "anonymous": false,
      "inputs": [
        {
          "indexed": false,
          "internalType": "uint256",
          "name": "proposalId",
          "type": "uint256"
        }
      ],
      "name": "ProposalCanceled",
      "type": "event"
    },
    {
      "anonymous": false,
      "inputs": [
        {
          "indexed": false,
          "internalType": "uint256",
          "name": "proposalId",
          "type": "uint256"
        },
        {
          "indexed": false,
          "internalType": "address",
          "name": "proposer",
          "type": "address"
        },
        {
          "indexed": false,
          "internalType": "address[]",
          "name": "targets",
          "type": "address[]"
        },
        {
          "indexed": false,
          "internalType": "uint256[]",
          "name": "values",
          "type": "uint256[]"
        },
        {
          "indexed": false,
          "internalType": "string[]",
          "name": "signatures",
          "type": "string[]"
        },
        {
          "indexed": false,
          "internalType": "bytes[]",
          "name": "calldatas",
          "type": "bytes[]"
        },
        {
          "indexed": false,
          "internalType": "uint256",
          "name": "startBlock",
          "type": "uint256"
        },
        {
          "indexed": false,
          "internalType": "uint256",
          "name": "endBlock",
          "type": "uint256"
        },
        {
          "indexed": false,
          "internalType": "string",
          "name": "description",
          "type": "string"
        }
      ],
      "name": "ProposalCreated",
      "type": "event"
    },
    {
      "anonymous": false,
      "inputs": [
        {
          "indexed": false,
          "internalType": "uint256",
          "name": "proposalId",
          "type": "uint256"
        }
      ],
      "name": "ProposalExecuted",
      "type": "event"
    },
    {
      "anonymous": false,
      "inputs": [
        {
          "indexed": false,
          "internalType": "uint256",
          "name": "proposalId",
          "type": "uint256"
        },
        {
          "indexed": false,
          "internalType": "uint256",
          "name": "eta",
          "type": "uint256"
        }
      ],
      "name": "ProposalQueued",
      "type": "event"
    },
    {
      "anonymous": false,
      "inputs": [
        {
          "indexed": false,
          "internalType": "uint256",
          "name": "oldQuorumNumerator",
          "type": "uint256"
        },
        {
          "indexed": false,
          "internalType": "uint256",
          "name": "newQuorumNumerator",
          "type": "uint256"
        }
      ],
      "name": "QuorumNumeratorUpdated",
      "type": "event"
    },
    {
      "anonymous": false,
      "inputs": [
        {
          "indexed": false,
          "internalType": "address",
          "name": "oldTimelock",
          "type": "address"
        },
        {
          "indexed": false,
          "internalType": "address",
          "name": "newTimelock",
          "type": "address"
        }
      ],
      "name": "TimelockChange",
      "type": "event"
    },
    {
      "anonymous": false,
      "inputs": [
        {
          "indexed": true,
          "internalType": "address",
          "name": "voter",
          "type": "address"
        },
        {
          "indexed": false,
          "internalType": "uint256",
          "name": "proposalId",
          "type": "uint256"
        },
        {
          "indexed": false,
          "internalType": "uint8",
          "name": "support",
          "type": "uint8"
        },
        {
          "indexed": false,
          "internalType": "uint256",
          "name": "weight",
          "type": "uint256"
        },
        {
          "indexed": false,
          "internalType": "string",
          "name": "reason",
          "type": "string"
        }
      ],
      "name": "VoteCast",
      "type": "event"
    },
    {
      "anonymous": false,
      "inputs": [
        {
          "indexed": true,
          "internalType": "address",
          "name": "voter",
          "type": "address"
        },
        {
          "indexed": false,
          "internalType": "uint256",
          "name": "proposalId",
          "type": "uint256"
        },
        {
          "indexed": false,
          "internalType": "uint8",
          "name": "support",
          "type": "uint8"
        },
        {
          "indexed": false,
          "internalType": "uint256",
          "name": "weight",
          "type": "uint256"
        },
        {
          "indexed": false,
          "internalType": "string",
          "name": "reason",
          "type": "string"
        },
        {
          "indexed": false,
          "internalType": "bytes",
          "name": "params",
          "type": "bytes"
        }
      ],
      "name": "VoteCastWithParams",
      "type": "event"
    },
    {
      "inputs": [],
      "name": "BALLOT_TYPEHASH",
      "outputs": [
        {
          "internalType": "bytes32",
          "name": "",
          "type": "bytes32"
        }
      ],
      "stateMutability": "view",
      "type": "function",
      "constant": true
    },
    {
      "inputs": [],
      "name": "COUNTING_MODE",
      "outputs": [
        {
          "internalType": "string",
          "name": "",
          "type": "string"
        }
      ],
      "stateMutability": "pure",
      "type": "function",
      "constant": true
    },
    {
      "inputs": [],
      "name": "EXTENDED_BALLOT_TYPEHASH",
      "outputs": [
        {
          "internalType": "bytes32",
          "name": "",
          "type": "bytes32"
        }
      ],
      "stateMutability": "view",
      "type": "function",
      "constant": true
    },
    {
      "inputs": [
        {
          "internalType": "uint256",
          "name": "proposalId",
          "type": "uint256"
        },
        {
          "internalType": "uint8",
          "name": "support",
          "type": "uint8"
        }
      ],
      "name": "castVote",
      "outputs": [
        {
          "internalType": "uint256",
          "name": "",
          "type": "uint256"
        }
      ],
      "stateMutability": "nonpayable",
      "type": "function"
    },
    {
      "inputs": [
        {
          "internalType": "uint256",
          "name": "proposalId",
          "type": "uint256"
        },
        {
          "internalType": "uint8",
          "name": "support",
          "type": "uint8"
        },
        {
          "internalType": "uint8",
          "name": "v",
          "type": "uint8"
        },
        {
          "internalType": "bytes32",
          "name": "r",
          "type": "bytes32"
        },
        {
          "internalType": "bytes32",
          "name": "s",
          "type": "bytes32"
        }
      ],
      "name": "castVoteBySig",
      "outputs": [
        {
          "internalType": "uint256",
          "name": "",
          "type": "uint256"
        }
      ],
      "stateMutability": "nonpayable",
      "type": "function"
    },
    {
      "inputs": [
        {
          "internalType": "uint256",
          "name": "proposalId",
          "type": "uint256"
        },
        {
          "internalType": "uint8",
          "name": "support",
          "type": "uint8"
        },
        {
          "internalType": "string",
          "name": "reason",
          "type": "string"
        }
      ],
      "name": "castVoteWithReason",
      "outputs": [
        {
          "internalType": "uint256",
          "name": "",
          "type": "uint256"
        }
      ],
      "stateMutability": "nonpayable",
      "type": "function"
    },
    {
      "inputs": [
        {
          "internalType": "uint256",
          "name": "proposalId",
          "type": "uint256"
        },
        {
          "internalType": "uint8",
          "name": "support",
          "type": "uint8"
        },
        {
          "internalType": "string",
          "name": "reason",
          "type": "string"
        },
        {
          "internalType": "bytes",
          "name": "params",
          "type": "bytes"
        }
      ],
      "name": "castVoteWithReasonAndParams",
      "outputs": [
        {
          "internalType": "uint256",
          "name": "",
          "type": "uint256"
        }
      ],
      "stateMutability": "nonpayable",
      "type": "function"
    },
    {
      "inputs": [
        {
          "internalType": "uint256",
          "name": "proposalId",
          "type": "uint256"
        },
        {
          "internalType": "uint8",
          "name": "support",
          "type": "uint8"
        },
        {
          "internalType": "string",
          "name": "reason",
          "type": "string"
        },
        {
          "internalType": "bytes",
          "name": "params",
          "type": "bytes"
        },
        {
          "internalType": "uint8",
          "name": "v",
          "type": "uint8"
        },
        {
          "internalType": "bytes32",
          "name": "r",
          "type": "bytes32"
        },
        {
          "internalType": "bytes32",
          "name": "s",
          "type": "bytes32"
        }
      ],
      "name": "castVoteWithReasonAndParamsBySig",
      "outputs": [
        {
          "internalType": "uint256",
          "name": "",
          "type": "uint256"
        }
      ],
      "stateMutability": "nonpayable",
      "type": "function"
    },
    {
      "inputs": [
        {
          "internalType": "address[]",
          "name": "targets",
          "type": "address[]"
        },
        {
          "internalType": "uint256[]",
          "name": "values",
          "type": "uint256[]"
        },
        {
          "internalType": "bytes[]",
          "name": "calldatas",
          "type": "bytes[]"
        },
        {
          "internalType": "bytes32",
          "name": "descriptionHash",
          "type": "bytes32"
        }
      ],
      "name": "execute",
      "outputs": [
        {
          "internalType": "uint256",
          "name": "",
          "type": "uint256"
        }
      ],
      "stateMutability": "payable",
      "type": "function",
      "payable": true
    },
    {
      "inputs": [
        {
          "internalType": "address",
          "name": "account",
          "type": "address"
        },
        {
          "internalType": "uint256",
          "name": "blockNumber",
          "type": "uint256"
        }
      ],
      "name": "getVotes",
      "outputs": [
        {
          "internalType": "uint256",
          "name": "",
          "type": "uint256"
        }
      ],
      "stateMutability": "view",
      "type": "function",
      "constant": true
    },
    {
      "inputs": [
        {
          "internalType": "address",
          "name": "account",
          "type": "address"
        },
        {
          "internalType": "uint256",
          "name": "blockNumber",
          "type": "uint256"
        },
        {
          "internalType": "bytes",
          "name": "params",
          "type": "bytes"
        }
      ],
      "name": "getVotesWithParams",
      "outputs": [
        {
          "internalType": "uint256",
          "name": "",
          "type": "uint256"
        }
      ],
      "stateMutability": "view",
      "type": "function",
      "constant": true
    },
    {
      "inputs": [
        {
          "internalType": "uint256",
          "name": "proposalId",
          "type": "uint256"
        },
        {
          "internalType": "address",
          "name": "account",
          "type": "address"
        }
      ],
      "name": "hasVoted",
      "outputs": [
        {
          "internalType": "bool",
          "name": "",
          "type": "bool"
        }
      ],
      "stateMutability": "view",
      "type": "function",
      "constant": true
    },
    {
      "inputs": [
        {
          "internalType": "address[]",
          "name": "targets",
          "type": "address[]"
        },
        {
          "internalType": "uint256[]",
          "name": "values",
          "type": "uint256[]"
        },
        {
          "internalType": "bytes[]",
          "name": "calldatas",
          "type": "bytes[]"
        },
        {
          "internalType": "bytes32",
          "name": "descriptionHash",
          "type": "bytes32"
        }
      ],
      "name": "hashProposal",
      "outputs": [
        {
          "internalType": "uint256",
          "name": "",
          "type": "uint256"
        }
      ],
      "stateMutability": "pure",
      "type": "function",
      "constant": true
    },
    {
      "inputs": [],
      "name": "name",
      "outputs": [
        {
          "internalType": "string",
          "name": "",
          "type": "string"
        }
      ],
      "stateMutability": "view",
      "type": "function",
      "constant": true
    },
    {
      "inputs": [
        {
          "internalType": "address",
          "name": "",
          "type": "address"
        },
        {
          "internalType": "address",
          "name": "",
          "type": "address"
        },
        {
          "internalType": "uint256[]",
          "name": "",
          "type": "uint256[]"
        },
        {
          "internalType": "uint256[]",
          "name": "",
          "type": "uint256[]"
        },
        {
          "internalType": "bytes",
          "name": "",
          "type": "bytes"
        }
      ],
      "name": "onERC1155BatchReceived",
      "outputs": [
        {
          "internalType": "bytes4",
          "name": "",
          "type": "bytes4"
        }
      ],
      "stateMutability": "nonpayable",
      "type": "function"
    },
    {
      "inputs": [
        {
          "internalType": "address",
          "name": "",
          "type": "address"
        },
        {
          "internalType": "address",
          "name": "",
          "type": "address"
        },
        {
          "internalType": "uint256",
          "name": "",
          "type": "uint256"
        },
        {
          "internalType": "uint256",
          "name": "",
          "type": "uint256"
        },
        {
          "internalType": "bytes",
          "name": "",
          "type": "bytes"
        }
      ],
      "name": "onERC1155Received",
      "outputs": [
        {
          "internalType": "bytes4",
          "name": "",
          "type": "bytes4"
        }
      ],
      "stateMutability": "nonpayable",
      "type": "function"
    },
    {
      "inputs": [
        {
          "internalType": "address",
          "name": "",
          "type": "address"
        },
        {
          "internalType": "address",
          "name": "",
          "type": "address"
        },
        {
          "internalType": "uint256",
          "name": "",
          "type": "uint256"
        },
        {
          "internalType": "bytes",
          "name": "",
          "type": "bytes"
        }
      ],
      "name": "onERC721Received",
      "outputs": [
        {
          "internalType": "bytes4",
          "name": "",
          "type": "bytes4"
        }
      ],
      "stateMutability": "nonpayable",
      "type": "function"
    },
    {
      "inputs": [
        {
          "internalType": "uint256",
          "name": "proposalId",
          "type": "uint256"
        }
      ],
      "name": "proposalDeadline",
      "outputs": [
        {
          "internalType": "uint256",
          "name": "",
          "type": "uint256"
        }
      ],
      "stateMutability": "view",
      "type": "function",
      "constant": true
    },
    {
      "inputs": [
        {
          "internalType": "uint256",
          "name": "proposalId",
          "type": "uint256"
        }
      ],
      "name": "proposalEta",
      "outputs": [
        {
          "internalType": "uint256",
          "name": "",
          "type": "uint256"
        }
      ],
      "stateMutability": "view",
      "type": "function",
      "constant": true
    },
    {
      "inputs": [
        {
          "internalType": "uint256",
          "name": "proposalId",
          "type": "uint256"
        }
      ],
      "name": "proposalSnapshot",
      "outputs": [
        {
          "internalType": "uint256",
          "name": "",
          "type": "uint256"
        }
      ],
      "stateMutability": "view",
      "type": "function",
      "constant": true
    },
    {
      "inputs": [
        {
          "internalType": "uint256",
          "name": "proposalId",
          "type": "uint256"
        }
      ],
      "name": "proposalVotes",
      "outputs": [
        {
          "internalType": "uint256",
          "name": "againstVotes",
          "type": "uint256"
        },
        {
          "internalType": "uint256",
          "name": "forVotes",
          "type": "uint256"
        },
        {
          "internalType": "uint256",
          "name": "abstainVotes",
          "type": "uint256"
        }
      ],
      "stateMutability": "view",
      "type": "function",
      "constant": true
    },
    {
      "inputs": [
        {
          "internalType": "address[]",
          "name": "targets",
          "type": "address[]"
        },
        {
          "internalType": "uint256[]",
          "name": "values",
          "type": "uint256[]"
        },
        {
          "internalType": "bytes[]",
          "name": "calldatas",
          "type": "bytes[]"
        },
        {
          "internalType": "bytes32",
          "name": "descriptionHash",
          "type": "bytes32"
        }
      ],
      "name": "queue",
      "outputs": [
        {
          "internalType": "uint256",
          "name": "",
          "type": "uint256"
        }
      ],
      "stateMutability": "nonpayable",
      "type": "function"
    },
    {
      "inputs": [],
      "name": "quorumDenominator",
      "outputs": [
        {
          "internalType": "uint256",
          "name": "",
          "type": "uint256"
        }
      ],
      "stateMutability": "view",
      "type": "function",
      "constant": true
    },
    {
      "inputs": [
        {
          "internalType": "uint256",
          "name": "blockNumber",
          "type": "uint256"
        }
      ],
      "name": "quorumNumerator",
      "outputs": [
        {
          "internalType": "uint256",
          "name": "",
          "type": "uint256"
        }
      ],
      "stateMutability": "view",
      "type": "function",
      "constant": true
    },
    {
      "inputs": [],
      "name": "quorumNumerator",
      "outputs": [
        {
          "internalType": "uint256",
          "name": "",
          "type": "uint256"
        }
      ],
      "stateMutability": "view",
      "type": "function",
      "constant": true
    },
    {
      "inputs": [
        {
          "internalType": "address",
          "name": "target",
          "type": "address"
        },
        {
          "internalType": "uint256",
          "name": "value",
          "type": "uint256"
        },
        {
          "internalType": "bytes",
          "name": "data",
          "type": "bytes"
        }
      ],
      "name": "relay",
      "outputs": [],
      "stateMutability": "payable",
      "type": "function",
      "payable": true
    },
    {
      "inputs": [],
      "name": "timelock",
      "outputs": [
        {
          "internalType": "address",
          "name": "",
          "type": "address"
        }
      ],
      "stateMutability": "view",
      "type": "function",
      "constant": true
    },
    {
      "inputs": [],
      "name": "token",
      "outputs": [
        {
          "internalType": "contract IVotes",
          "name": "",
          "type": "address"
        }
      ],
      "stateMutability": "view",
      "type": "function",
      "constant": true
    },
    {
      "inputs": [
        {
          "internalType": "uint256",
          "name": "newQuorumNumerator",
          "type": "uint256"
        }
      ],
      "name": "updateQuorumNumerator",
      "outputs": [],
      "stateMutability": "nonpayable",
      "type": "function"
    },
    {
      "inputs": [
        {
          "internalType": "contract TimelockController",
          "name": "newTimelock",
          "type": "address"
        }
      ],
      "name": "updateTimelock",
      "outputs": [],
      "stateMutability": "nonpayable",
      "type": "function"
    },
    {
      "inputs": [],
      "name": "version",
      "outputs": [
        {
          "internalType": "string",
          "name": "",
          "type": "string"
        }
      ],
      "stateMutability": "view",
      "type": "function",
      "constant": true
    },
    {
      "stateMutability": "payable",
      "type": "receive",
      "payable": true
    },
    {
      "inputs": [],
      "name": "votingDelay",
      "outputs": [
        {
          "internalType": "uint256",
          "name": "",
          "type": "uint256"
        }
      ],
      "stateMutability": "pure",
      "type": "function",
      "constant": true
    },
    {
      "inputs": [],
      "name": "votingPeriod",
      "outputs": [
        {
          "internalType": "uint256",
          "name": "",
          "type": "uint256"
        }
      ],
      "stateMutability": "pure",
      "type": "function",
      "constant": true
    },
    {
      "inputs": [],
      "name": "proposalThreshold",
      "outputs": [
        {
          "internalType": "uint256",
          "name": "",
          "type": "uint256"
        }
      ],
      "stateMutability": "pure",
      "type": "function",
      "constant": true
    },
    {
      "inputs": [
        {
          "internalType": "uint256",
          "name": "blockNumber",
          "type": "uint256"
        }
      ],
      "name": "quorum",
      "outputs": [
        {
          "internalType": "uint256",
          "name": "",
          "type": "uint256"
        }
      ],
      "stateMutability": "view",
      "type": "function",
      "constant": true
    },
    {
      "inputs": [
        {
          "internalType": "uint256",
          "name": "proposalId",
          "type": "uint256"
        }
      ],
      "name": "state",
      "outputs": [
        {
          "internalType": "enum IGovernor.ProposalState",
          "name": "",
          "type": "uint8"
        }
      ],
      "stateMutability": "view",
      "type": "function",
      "constant": true
    },
    {
      "inputs": [
        {
          "internalType": "address[]",
          "name": "targets",
          "type": "address[]"
        },
        {
          "internalType": "uint256[]",
          "name": "values",
          "type": "uint256[]"
        },
        {
          "internalType": "bytes[]",
          "name": "calldatas",
          "type": "bytes[]"
        },
        {
          "internalType": "string",
          "name": "description",
          "type": "string"
        }
      ],
      "name": "propose",
      "outputs": [
        {
          "internalType": "uint256",
          "name": "",
          "type": "uint256"
        }
      ],
      "stateMutability": "nonpayable",
      "type": "function"
    },
    {
      "inputs": [
        {
          "internalType": "bytes4",
          "name": "interfaceId",
          "type": "bytes4"
        }
      ],
      "name": "supportsInterface",
      "outputs": [
        {
          "internalType": "bool",
          "name": "",
          "type": "bool"
        }
      ],
      "stateMutability": "view",
      "type": "function",
      "constant": true
    }
  ],
  "bytecode": "0x6101606040523480156200001257600080fd5b5060405162003fe638038062003fe6833981016040819052620000359162000759565b80600a836040518060400160405280600a81526020016926bca3b7bb32b93737b960b11b815250806200006d6200014260201b60201c565b815160208084019190912082518383012060e08290526101008190524660a0818152604080517f8b73c3c69bb8fe3d512ecc4cf759cc79239f7b179b0ffacaa9a75d522b39400f81880181905281830187905260608201869052608082019490945230818401528151808203909301835260c00190528051940193909320919290916080523060c0526101205250508251620001139250600091506020840190620006a4565b50506001600160a01b0316610140526200012d816200015d565b506200013981620002d9565b505050620007fa565b6040805180820190915260018152603160f81b602082015290565b6064811115620001e65760405162461bcd60e51b815260206004820152604360248201527f476f7665726e6f72566f74657351756f72756d4672616374696f6e3a2071756f60448201527f72756d4e756d657261746f72206f7665722071756f72756d44656e6f6d696e616064820152623a37b960e91b608482015260a4015b60405180910390fd5b6000620001f262000342565b90508015801590620002045750600654155b156200027f5760066000016040518060400160405280600063ffffffff1681526020016200023d846200037a60201b620012701760201c565b6001600160e01b0390811690915282546001810184556000938452602093849020835194909301519091166401000000000263ffffffff909316929092179101555b6200029a826006620003e960201b620012dd1790919060201c565b505060408051828152602081018490527f0553476bf02ef2726e8ce5ced78d63e26e602e4a2257b1f559418e24b4633997910160405180910390a15050565b600754604080516001600160a01b03928316815291831660208301527f08f74ea46ef7894f65eabfb5e6e695de773a000b47c529ab559178069b226401910160405180910390a1600780546001600160a01b0319166001600160a01b0392909216919091179055565b6006546000901562000373576200036560066200043c60201b620013131760201c565b6001600160e01b0316905090565b5060055490565b60006001600160e01b03821115620003e55760405162461bcd60e51b815260206004820152602760248201527f53616665436173743a2076616c756520646f65736e27742066697420696e20326044820152663234206269747360c81b6064820152608401620001dd565b5090565b60008062000426846000016200040a436200048a60201b620013511760201c565b62000420866200037a60201b620012701760201c565b620004f1565b6001600160e01b03918216969116945092505050565b80546000908015620004805762000468836200045a60018462000798565b600091825260209091200190565b5464010000000090046001600160e01b031662000483565b60005b9392505050565b600063ffffffff821115620003e55760405162461bcd60e51b815260206004820152602660248201527f53616665436173743a2076616c756520646f65736e27742066697420696e203360448201526532206269747360d01b6064820152608401620001dd565b8254600090819080156200064657600062000513876200045a60018562000798565b60408051808201909152905463ffffffff8082168084526401000000009092046001600160e01b031660208401529192509087161015620005975760405162461bcd60e51b815260206004820152601760248201527f436865636b706f696e743a20696e76616c6964206b65790000000000000000006044820152606401620001dd565b805163ffffffff808816911603620005e55784620005bc886200045a60018662000798565b80546001600160e01b03929092166401000000000263ffffffff90921691909117905562000635565b6040805180820190915263ffffffff80881682526001600160e01b0380881660208085019182528b54600181018d5560008d81529190912094519151909216640100000000029216919091179101555b6020015192508391506200069c9050565b50506040805180820190915263ffffffff80851682526001600160e01b0380851660208085019182528854600181018a5560008a8152918220955192519093166401000000000291909316179201919091559050815b935093915050565b828054620006b290620007be565b90600052602060002090601f016020900481019282620006d6576000855562000721565b82601f10620006f157805160ff191683800117855562000721565b8280016001018555821562000721579182015b828111156200072157825182559160200191906001019062000704565b50620003e59291505b80821115620003e557600081556001016200072a565b6001600160a01b03811681146200075657600080fd5b50565b600080604083850312156200076d57600080fd5b82516200077a8162000740565b60208401519092506200078d8162000740565b809150509250929050565b600082821015620007b957634e487b7160e01b600052601160045260246000fd5b500390565b600181811c90821680620007d357607f821691505b602082108103620007f457634e487b7160e01b600052602260045260246000fd5b50919050565b60805160a05160c05160e05161010051610120516101405161378362000863600039600081816107e901528181611d650152611e7701526000612196015260006121e5015260006121c001526000612119015260006121430152600061216d01526137836000f3fe6080604052600436106102295760003560e01c80637b3c71d311610123578063c01f9e37116100ab578063deaaa7cc1161006f578063deaaa7cc14610737578063eb9019d41461076b578063f23a6e611461078b578063f8ce560a146107b7578063fc0c546a146107d757600080fd5b8063c01f9e371461066c578063c28bc2fa1461068c578063c59057e41461069f578063d33219b4146106bf578063dd4e2ba5146106f157600080fd5b8063a7713a70116100f2578063a7713a70146105d0578063a890c910146105e5578063ab58fb8e14610605578063b58131b014610625578063bc197c811461064057600080fd5b80637b3c71d31461055c5780637d5e81e21461057c57806397c3d3341461059c5780639a802a6d146105b057600080fd5b80632fe3e261116101b1578063544ffc9c11610175578063544ffc9c1461047d57806354fd4d50146104d257806356781388146104fc5780635f398a141461051c57806360c4247f1461053c57600080fd5b80632fe3e2611461039e5780633932abb1146103d25780633bccf4fd146103e65780633e4f49e614610406578063438596321461043357600080fd5b806306fdde03116101f857806306fdde03146102e5578063150b7a0214610307578063160cbed71461034b5780632656227d1461036b5780632d63f6931461037e57600080fd5b806301ffc9a71461025157806302a251a31461028657806303420181146102a557806306f3f9e6146102c557600080fd5b3661024c573061023761080b565b6001600160a01b03161461024a57600080fd5b005b600080fd5b34801561025d57600080fd5b5061027161026c3660046128bc565b610824565b60405190151581526020015b60405180910390f35b34801561029257600080fd5b5061012c5b60405190815260200161027d565b3480156102b157600080fd5b506102976102c03660046129fa565b610835565b3480156102d157600080fd5b5061024a6102e0366004612aa0565b61092d565b3480156102f157600080fd5b506102fa6109c0565b60405161027d9190612b06565b34801561031357600080fd5b50610332610322366004612b2e565b630a85bd0160e11b949350505050565b6040516001600160e01b0319909116815260200161027d565b34801561035757600080fd5b50610297610366366004612d0a565b610a52565b610297610379366004612d0a565b610c52565b34801561038a57600080fd5b50610297610399366004612aa0565b610d3f565b3480156103aa57600080fd5b506102977fb3b3f3b703cd84ce352197dcff232b1b5d3cfb2025ce47cf04742d0651f1af8881565b3480156103de57600080fd5b506001610297565b3480156103f257600080fd5b50610297610401366004612d99565b610d76565b34801561041257600080fd5b50610426610421366004612aa0565b610dec565b60405161027d9190612dfd565b34801561043f57600080fd5b5061027161044e366004612e25565b60008281526004602090815260408083206001600160a01b038516845260030190915290205460ff1692915050565b34801561048957600080fd5b506104b7610498366004612aa0565b6000908152600460205260409020805460018201546002909201549092565b6040805193845260208401929092529082015260600161027d565b3480156104de57600080fd5b506040805180820190915260018152603160f81b60208201526102fa565b34801561050857600080fd5b50610297610517366004612e55565b610df7565b34801561052857600080fd5b50610297610537366004612e81565b610e20565b34801561054857600080fd5b50610297610557366004612aa0565b610e6a565b34801561056857600080fd5b50610297610577366004612f04565b610f01565b34801561058857600080fd5b50610297610597366004612f5d565b610f53565b3480156105a857600080fd5b506064610297565b3480156105bc57600080fd5b506102976105cb366004613011565b610f6a565b3480156105dc57600080fd5b50610297610f81565b3480156105f157600080fd5b5061024a610600366004613069565b610fab565b34801561061157600080fd5b50610297610620366004612aa0565b611032565b34801561063157600080fd5b50670de0b6b3a7640000610297565b34801561064c57600080fd5b5061033261065b366004613086565b63bc197c8160e01b95945050505050565b34801561067857600080fd5b50610297610687366004612aa0565b6110cc565b61024a61069a366004613119565b6110fb565b3480156106ab57600080fd5b506102976106ba366004612d0a565b61120a565b3480156106cb57600080fd5b506007546001600160a01b03165b6040516001600160a01b03909116815260200161027d565b3480156106fd57600080fd5b506040805180820190915260208082527f737570706f72743d627261766f2671756f72756d3d666f722c6162737461696e908201526102fa565b34801561074357600080fd5b506102977f150214d74d59b7d1e90c73fc22ef3d991dd0a76b046543d4d80ab92d2a50328f81565b34801561077757600080fd5b5061029761078636600461315c565b611244565b34801561079757600080fd5b506103326107a6366004613188565b63f23a6e6160e01b95945050505050565b3480156107c357600080fd5b506102976107d2366004612aa0565b611265565b3480156107e357600080fd5b506106d97f000000000000000000000000000000000000000000000000000000000000000081565b600061081f6007546001600160a01b031690565b905090565b600061082f826113b6565b92915050565b6000806108d96108d17fb3b3f3b703cd84ce352197dcff232b1b5d3cfb2025ce47cf04742d0651f1af888c8c8c8c6040516108719291906131f0565b60405180910390208b805190602001206040516020016108b6959493929190948552602085019390935260ff9190911660408401526060830152608082015260a00190565b604051602081830303815290604052805190602001206113db565b868686611429565b905061091f8a828b8b8b8080601f0160208091040260200160405190810160405280939291908181526020018383808284376000920191909152508d9250611447915050565b9a9950505050505050505050565b61093561080b565b6001600160a01b0316336001600160a01b03161461096e5760405162461bcd60e51b815260040161096590613200565b60405180910390fd5b3061097761080b565b6001600160a01b0316146109b457600080366040516109979291906131f0565b604051809103902090505b806109ad60026115ac565b036109a257505b6109bd8161162b565b50565b6060600080546109cf90613237565b80601f01602080910402602001604051908101604052809291908181526020018280546109fb90613237565b8015610a485780601f10610a1d57610100808354040283529160200191610a48565b820191906000526020600020905b815481529060010190602001808311610a2b57829003601f168201915b5050505050905090565b600080610a618686868661120a565b90506004610a6e82610dec565b6007811115610a7f57610a7f612de7565b14610a9c5760405162461bcd60e51b815260040161096590613271565b6007546040805163793d064960e11b815290516000926001600160a01b03169163f27a0c929160048083019260209291908290030181865afa158015610ae6573d6000803e3d6000fd5b505050506040513d601f19601f82011682018060405250810190610b0a91906132b2565b60075460405163b1c5f42760e01b81529192506001600160a01b03169063b1c5f42790610b44908a908a908a906000908b90600401613394565b602060405180830381865afa158015610b61573d6000803e3d6000fd5b505050506040513d601f19601f82011682018060405250810190610b8591906132b2565b6000838152600860205260408082209290925560075491516308f2a0bb60e41b81526001600160a01b0390921691638f2a0bb091610bd0918b918b918b91908b9089906004016133e2565b600060405180830381600087803b158015610bea57600080fd5b505af1158015610bfe573d6000803e3d6000fd5b505050507f9a2e42fd6722813d69113e7d0079d3d940171428df7373df9c7f7617cfda2892828242610c309190613450565b6040805192835260208301919091520160405180910390a15095945050505050565b600080610c618686868661120a565b90506000610c6e82610dec565b90506004816007811115610c8457610c84612de7565b1480610ca157506005816007811115610c9f57610c9f612de7565b145b610cbd5760405162461bcd60e51b815260040161096590613271565b600082815260016020818152604092839020600201805460ff191690921790915590518381527f712ae1383f79ac853f8d882153778e0260ef8f03b504e2866e0593e04d2b291f910160405180910390a1610d1b8288888888611777565b610d288288888888611819565b610d358288888888611826565b5095945050505050565b60008181526001602090815260408083208151928301909152546001600160401b0316908190525b6001600160401b031692915050565b604080517f150214d74d59b7d1e90c73fc22ef3d991dd0a76b046543d4d80ab92d2a50328f602082015290810186905260ff851660608201526000908190610dc4906108d1906080016108b6565b9050610de18782886040518060200160405280600081525061185f565b979650505050505050565b600061082f82611882565b600080339050610e188482856040518060200160405280600081525061185f565b949350505050565b600080339050610de187828888888080601f0160208091040260200160405190810160405280939291908181526020018383808284376000920191909152508a9250611447915050565b600654600090808203610e81575050600554919050565b60006006610e90600184613468565b81548110610ea057610ea061347f565b60009182526020918290206040805180820190915291015463ffffffff8116808352600160201b9091046001600160e01b03169282019290925291508410610ef657602001516001600160e01b03169392505050565b610e186006856119cc565b600080339050610f4986828787878080601f01602080910402602001604051908101604052809392919081815260200183838082843760009201919091525061185f92505050565b9695505050505050565b6000610f6185858585611a7e565b95945050505050565b6000610f77848484611d3c565b90505b9392505050565b60065460009015610fa457610f966006611313565b6001600160e01b0316905090565b5060055490565b610fb361080b565b6001600160a01b0316336001600160a01b031614610fe35760405162461bcd60e51b815260040161096590613200565b30610fec61080b565b6001600160a01b031614611029576000803660405161100c9291906131f0565b604051809103902090505b8061102260026115ac565b0361101757505b6109bd81611dd2565b60075460008281526008602052604080822054905163d45c443560e01b81526004810191909152909182916001600160a01b039091169063d45c443590602401602060405180830381865afa15801561108f573d6000803e3d6000fd5b505050506040513d601f19601f820116820180604052508101906110b391906132b2565b9050806001146110c35780610f7a565b60009392505050565b60008181526001602081815260408084208151928301909152909101546001600160401b031690819052610d67565b61110361080b565b6001600160a01b0316336001600160a01b0316146111335760405162461bcd60e51b815260040161096590613200565b3061113c61080b565b6001600160a01b031614611179576000803660405161115c9291906131f0565b604051809103902090505b8061117260026115ac565b0361116757505b600080856001600160a01b03168585856040516111979291906131f0565b60006040518083038185875af1925050503d80600081146111d4576040519150601f19603f3d011682016040523d82523d6000602084013e6111d9565b606091505b5091509150611201828260405180606001604052806028815260200161372660289139611e3b565b50505050505050565b6000848484846040516020016112239493929190613495565b60408051601f19818403018152919052805160209091012095945050505050565b6000610f7a838361126060408051602081019091526000815290565b611d3c565b600061082f82611e54565b60006001600160e01b038211156112d95760405162461bcd60e51b815260206004820152602760248201527f53616665436173743a2076616c756520646f65736e27742066697420696e20326044820152663234206269747360c81b6064820152608401610965565b5090565b6000806112fb846112ed43611351565b6112f686611270565b611efe565b6001600160e01b0391821693501690505b9250929050565b805460009080156110c35761133b8361132d600184613468565b600091825260209091200190565b54600160201b90046001600160e01b0316610f7a565b600063ffffffff8211156112d95760405162461bcd60e51b815260206004820152602660248201527f53616665436173743a2076616c756520646f65736e27742066697420696e203360448201526532206269747360d01b6064820152608401610965565b60006001600160e01b03198216636e665ced60e01b148061082f575061082f826120a1565b600061082f6113e861210c565b8360405161190160f01b6020820152602281018390526042810182905260009060620160405160208183030381529060405280519060200120905092915050565b600080600061143a87878787612233565b91509150610d35816122f7565b600085815260016020819052604082209061146188610dec565b600781111561147257611472612de7565b146114cb5760405162461bcd60e51b815260206004820152602360248201527f476f7665726e6f723a20766f7465206e6f742063757272656e746c792061637460448201526269766560e81b6064820152608401610965565b604080516020810190915281546001600160401b0316908190526000906114f490889086611d3c565b90506115038888888488612441565b835160000361155857866001600160a01b03167fb8e138887d0aa13bab447e82de9d5c1777041ecd21ca36ba824ff1e6c07ddda48988848960405161154b94939291906134e0565b60405180910390a2610de1565b866001600160a01b03167fe2babfbac5889a709b63bb7f598b324e08bc5a4fb9ec647fb3cbc9ec07eb87128988848989604051611599959493929190613508565b60405180910390a2979650505050505050565b60006115c78254600f81810b600160801b909204900b131590565b156115e557604051631ed9509560e11b815260040160405180910390fd5b508054600f0b6000818152600180840160205260408220805492905583546fffffffffffffffffffffffffffffffff191692016001600160801b03169190911790915590565b60648111156116ae5760405162461bcd60e51b815260206004820152604360248201527f476f7665726e6f72566f74657351756f72756d4672616374696f6e3a2071756f60448201527f72756d4e756d657261746f72206f7665722071756f72756d44656e6f6d696e616064820152623a37b960e91b608482015260a401610965565b60006116b8610f81565b905080158015906116c95750600654155b1561172d576040805180820190915260008152600690602081016116ec84611270565b6001600160e01b039081169091528254600181018455600093845260209384902083519490930151909116600160201b0263ffffffff909316929092179101555b6117386006836112dd565b505060408051828152602081018490527f0553476bf02ef2726e8ce5ced78d63e26e602e4a2257b1f559418e24b4633997910160405180910390a15050565b3061178061080b565b6001600160a01b0316146118125760005b845181101561181057306001600160a01b03168582815181106117b6576117b661347f565b60200260200101516001600160a01b031603611800576118008382815181106117e1576117e161347f565b60200260200101518051906020012060026125bb90919063ffffffff16565b6118098161354e565b9050611791565b505b5050505050565b61181285858585856125f7565b3061182f61080b565b6001600160a01b03161461181257600254600f81810b600160801b909204900b1315611812576000600255611812565b6000610f618585858561187d60408051602081019091526000815290565b611447565b60008061188e8361266b565b905060048160078111156118a4576118a4612de7565b146118af5792915050565b600083815260086020526040902054806118ca575092915050565b600754604051632ab0f52960e01b8152600481018390526001600160a01b0390911690632ab0f52990602401602060405180830381865afa158015611913573d6000803e3d6000fd5b505050506040513d601f19601f820116820180604052508101906119379190613567565b15611946575060079392505050565b600754604051632c258a9f60e11b8152600481018390526001600160a01b039091169063584b153e90602401602060405180830381865afa15801561198f573d6000803e3d6000fd5b505050506040513d601f19601f820116820180604052508101906119b39190613567565b156119c2575060059392505050565b5060029392505050565b6000438210611a1d5760405162461bcd60e51b815260206004820181905260248201527f436865636b706f696e74733a20626c6f636b206e6f7420796574206d696e65646044820152606401610965565b6000611a2883611351565b84549091506000611a3b8684838561277a565b90508015611a6857611a528661132d600184613468565b54600160201b90046001600160e01b0316611a6b565b60005b6001600160e01b03169695505050505050565b6000670de0b6b3a7640000611a9833610786600143613468565b1015611b005760405162461bcd60e51b815260206004820152603160248201527f476f7665726e6f723a2070726f706f73657220766f7465732062656c6f7720706044820152701c9bdc1bdcd85b081d1a1c995cda1bdb19607a1b6064820152608401610965565b6000611b15868686868051906020012061120a565b90508451865114611b385760405162461bcd60e51b815260040161096590613589565b8351865114611b595760405162461bcd60e51b815260040161096590613589565b6000865111611baa5760405162461bcd60e51b815260206004820152601860248201527f476f7665726e6f723a20656d7074792070726f706f73616c00000000000000006044820152606401610965565b600081815260016020908152604091829020825191820190925281546001600160401b03169081905215611c2a5760405162461bcd60e51b815260206004820152602160248201527f476f7665726e6f723a2070726f706f73616c20616c72656164792065786973746044820152607360f81b6064820152608401610965565b6000611c3660016127d8565b611c3f436127d8565b611c4991906135ca565b90506000611c5861012c6127d8565b611c6290836135ca565b835467ffffffffffffffff19166001600160401b038416178455905060018301805467ffffffffffffffff19166001600160401b0383161790557f7d84a6263ae0d98d3329bd7b46bb4e8d6f98cd35a7adb45c274c8b7fd5ebd5e084338b8b8d516001600160401b03811115611cda57611cda61293d565b604051908082528060200260200182016040528015611d0d57816020015b6060815260200190600190039081611cf85790505b508c88888e604051611d27999897969594939291906135f5565b60405180910390a15091979650505050505050565b604051630748d63560e31b81526001600160a01b038481166004830152602482018490526000917f000000000000000000000000000000000000000000000000000000000000000090911690633a46b1a890604401602060405180830381865afa158015611dae573d6000803e3d6000fd5b505050506040513d601f19601f82011682018060405250810190610f7791906132b2565b600754604080516001600160a01b03928316815291831660208301527f08f74ea46ef7894f65eabfb5e6e695de773a000b47c529ab559178069b226401910160405180910390a1600780546001600160a01b0319166001600160a01b0392909216919091179055565b60608315611e4a575081610f7a565b610f7a8383612840565b60006064611e6183610e6a565b604051632394e7a360e21b8152600481018590527f00000000000000000000000000000000000000000000000000000000000000006001600160a01b031690638e539e8c90602401602060405180830381865afa158015611ec6573d6000803e3d6000fd5b505050506040513d601f19601f82011682018060405250810190611eea91906132b2565b611ef491906136e4565b61082f9190613703565b825460009081908015612044576000611f1c8761132d600185613468565b60408051808201909152905463ffffffff808216808452600160201b9092046001600160e01b031660208401529192509087161015611f9d5760405162461bcd60e51b815260206004820152601760248201527f436865636b706f696e743a20696e76616c6964206b65790000000000000000006044820152606401610965565b805163ffffffff808816911603611fe55784611fbe8861132d600186613468565b80546001600160e01b0392909216600160201b0263ffffffff909216919091179055612034565b6040805180820190915263ffffffff80881682526001600160e01b0380881660208085019182528b54600181018d5560008d81529190912094519151909216600160201b029216919091179101555b6020015192508391506120999050565b50506040805180820190915263ffffffff80851682526001600160e01b0380851660208085019182528854600181018a5560008a815291822095519251909316600160201b0291909316179201919091559050815b935093915050565b60006001600160e01b0319821663bf26d89760e01b14806120d257506001600160e01b031982166379dd796f60e01b145b806120ed57506001600160e01b03198216630271189760e51b145b8061082f57506301ffc9a760e01b6001600160e01b031983161461082f565b6000306001600160a01b037f00000000000000000000000000000000000000000000000000000000000000001614801561216557507f000000000000000000000000000000000000000000000000000000000000000046145b1561218f57507f000000000000000000000000000000000000000000000000000000000000000090565b50604080517f00000000000000000000000000000000000000000000000000000000000000006020808301919091527f0000000000000000000000000000000000000000000000000000000000000000828401527f000000000000000000000000000000000000000000000000000000000000000060608301524660808301523060a0808401919091528351808403909101815260c0909201909252805191012090565b6000807f7fffffffffffffffffffffffffffffff5d576e7357a4501ddfe92f46681b20a083111561226a57506000905060036122ee565b6040805160008082526020820180845289905260ff881692820192909252606081018690526080810185905260019060a0016020604051602081039080840390855afa1580156122be573d6000803e3d6000fd5b5050604051601f1901519150506001600160a01b0381166122e7576000600192509250506122ee565b9150600090505b94509492505050565b600081600481111561230b5761230b612de7565b036123135750565b600181600481111561232757612327612de7565b036123745760405162461bcd60e51b815260206004820152601860248201527f45434453413a20696e76616c6964207369676e617475726500000000000000006044820152606401610965565b600281600481111561238857612388612de7565b036123d55760405162461bcd60e51b815260206004820152601f60248201527f45434453413a20696e76616c6964207369676e6174757265206c656e677468006044820152606401610965565b60038160048111156123e9576123e9612de7565b036109bd5760405162461bcd60e51b815260206004820152602260248201527f45434453413a20696e76616c6964207369676e6174757265202773272076616c604482015261756560f01b6064820152608401610965565b60008581526004602090815260408083206001600160a01b0388168452600381019092529091205460ff16156124c95760405162461bcd60e51b815260206004820152602760248201527f476f7665726e6f72566f74696e6753696d706c653a20766f746520616c726561604482015266191e4818d85cdd60ca1b6064820152608401610965565b6001600160a01b03851660009081526003820160205260409020805460ff1916600117905560ff8416612515578281600001600082825461250a9190613450565b909155506118109050565b60001960ff851601612535578281600101600082825461250a9190613450565b60011960ff851601612555578281600201600082825461250a9190613450565b60405162461bcd60e51b815260206004820152603560248201527f476f7665726e6f72566f74696e6753696d706c653a20696e76616c69642076616044820152746c756520666f7220656e756d20566f74655479706560581b6064820152608401610965565b8154600160801b90819004600f0b6000818152600180860160205260409091209390935583546001600160801b03908116939091011602179055565b60075460405163e38335e560e01b81526001600160a01b039091169063e38335e5903490612632908890889088906000908990600401613394565b6000604051808303818588803b15801561264b57600080fd5b505af115801561265f573d6000803e3d6000fd5b50505050505050505050565b6000818152600160205260408120600281015460ff161561268f5750600792915050565b6002810154610100900460ff16156126aa5750600292915050565b60006126b584610d3f565b9050806000036127075760405162461bcd60e51b815260206004820152601d60248201527f476f7665726e6f723a20756e6b6e6f776e2070726f706f73616c2069640000006044820152606401610965565b438110612718575060009392505050565b6000612723856110cc565b905043811061273757506001949350505050565b6127408561286a565b801561275f575060008581526004602052604090208054600190910154115b1561276f57506004949350505050565b506003949350505050565b60005b818310156127d057600061279184846128a1565b60008781526020902090915063ffffffff86169082015463ffffffff1611156127bc578092506127ca565b6127c7816001613450565b93505b5061277d565b509392505050565b60006001600160401b038211156112d95760405162461bcd60e51b815260206004820152602660248201527f53616665436173743a2076616c756520646f65736e27742066697420696e203660448201526534206269747360d01b6064820152608401610965565b8151156128505781518083602001fd5b8060405162461bcd60e51b81526004016109659190612b06565b60008181526004602052604081206002810154600182015461288c9190613450565b6128986107d285610d3f565b11159392505050565b60006128b06002848418613703565b610f7a90848416613450565b6000602082840312156128ce57600080fd5b81356001600160e01b031981168114610f7a57600080fd5b803560ff811681146128f757600080fd5b919050565b60008083601f84011261290e57600080fd5b5081356001600160401b0381111561292557600080fd5b60208301915083602082850101111561130c57600080fd5b634e487b7160e01b600052604160045260246000fd5b604051601f8201601f191681016001600160401b038111828210171561297b5761297b61293d565b604052919050565b60006001600160401b0383111561299c5761299c61293d565b6129af601f8401601f1916602001612953565b90508281528383830111156129c357600080fd5b828260208301376000602084830101529392505050565b600082601f8301126129eb57600080fd5b610f7a83833560208501612983565b60008060008060008060008060e0898b031215612a1657600080fd5b88359750612a2660208a016128e6565b965060408901356001600160401b0380821115612a4257600080fd5b612a4e8c838d016128fc565b909850965060608b0135915080821115612a6757600080fd5b50612a748b828c016129da565b945050612a8360808a016128e6565b925060a0890135915060c089013590509295985092959890939650565b600060208284031215612ab257600080fd5b5035919050565b6000815180845260005b81811015612adf57602081850181015186830182015201612ac3565b81811115612af1576000602083870101525b50601f01601f19169290920160200192915050565b602081526000610f7a6020830184612ab9565b6001600160a01b03811681146109bd57600080fd5b60008060008060808587031215612b4457600080fd5b8435612b4f81612b19565b93506020850135612b5f81612b19565b92506040850135915060608501356001600160401b03811115612b8157600080fd5b612b8d878288016129da565b91505092959194509250565b60006001600160401b03821115612bb257612bb261293d565b5060051b60200190565b600082601f830112612bcd57600080fd5b81356020612be2612bdd83612b99565b612953565b82815260059290921b84018101918181019086841115612c0157600080fd5b8286015b84811015612c25578035612c1881612b19565b8352918301918301612c05565b509695505050505050565b600082601f830112612c4157600080fd5b81356020612c51612bdd83612b99565b82815260059290921b84018101918181019086841115612c7057600080fd5b8286015b84811015612c255780358352918301918301612c74565b600082601f830112612c9c57600080fd5b81356020612cac612bdd83612b99565b82815260059290921b84018101918181019086841115612ccb57600080fd5b8286015b84811015612c255780356001600160401b03811115612cee5760008081fd5b612cfc8986838b01016129da565b845250918301918301612ccf565b60008060008060808587031215612d2057600080fd5b84356001600160401b0380821115612d3757600080fd5b612d4388838901612bbc565b95506020870135915080821115612d5957600080fd5b612d6588838901612c30565b94506040870135915080821115612d7b57600080fd5b50612d8887828801612c8b565b949793965093946060013593505050565b600080600080600060a08688031215612db157600080fd5b85359450612dc1602087016128e6565b9350612dcf604087016128e6565b94979396509394606081013594506080013592915050565b634e487b7160e01b600052602160045260246000fd5b6020810160088310612e1f57634e487b7160e01b600052602160045260246000fd5b91905290565b60008060408385031215612e3857600080fd5b823591506020830135612e4a81612b19565b809150509250929050565b60008060408385031215612e6857600080fd5b82359150612e78602084016128e6565b90509250929050565b600080600080600060808688031215612e9957600080fd5b85359450612ea9602087016128e6565b935060408601356001600160401b0380821115612ec557600080fd5b612ed189838a016128fc565b90955093506060880135915080821115612eea57600080fd5b50612ef7888289016129da565b9150509295509295909350565b60008060008060608587031215612f1a57600080fd5b84359350612f2a602086016128e6565b925060408501356001600160401b03811115612f4557600080fd5b612f51878288016128fc565b95989497509550505050565b60008060008060808587031215612f7357600080fd5b84356001600160401b0380821115612f8a57600080fd5b612f9688838901612bbc565b95506020870135915080821115612fac57600080fd5b612fb888838901612c30565b94506040870135915080821115612fce57600080fd5b612fda88838901612c8b565b93506060870135915080821115612ff057600080fd5b508501601f8101871361300257600080fd5b612b8d87823560208401612983565b60008060006060848603121561302657600080fd5b833561303181612b19565b92506020840135915060408401356001600160401b0381111561305357600080fd5b61305f868287016129da565b9150509250925092565b60006020828403121561307b57600080fd5b8135610f7a81612b19565b600080600080600060a0868803121561309e57600080fd5b85356130a981612b19565b945060208601356130b981612b19565b935060408601356001600160401b03808211156130d557600080fd5b6130e189838a01612c30565b945060608801359150808211156130f757600080fd5b61310389838a01612c30565b93506080880135915080821115612eea57600080fd5b6000806000806060858703121561312f57600080fd5b843561313a81612b19565b93506020850135925060408501356001600160401b03811115612f4557600080fd5b6000806040838503121561316f57600080fd5b823561317a81612b19565b946020939093013593505050565b600080600080600060a086880312156131a057600080fd5b85356131ab81612b19565b945060208601356131bb81612b19565b9350604086013592506060860135915060808601356001600160401b038111156131e457600080fd5b612ef7888289016129da565b8183823760009101908152919050565b60208082526018908201527f476f7665726e6f723a206f6e6c79476f7665726e616e63650000000000000000604082015260600190565b600181811c9082168061324b57607f821691505b60208210810361326b57634e487b7160e01b600052602260045260246000fd5b50919050565b60208082526021908201527f476f7665726e6f723a2070726f706f73616c206e6f74207375636365737366756040820152601b60fa1b606082015260800190565b6000602082840312156132c457600080fd5b5051919050565b600081518084526020808501945080840160005b838110156133045781516001600160a01b0316875295820195908201906001016132df565b509495945050505050565b600081518084526020808501945080840160005b8381101561330457815187529582019590820190600101613323565b600081518084526020808501808196508360051b8101915082860160005b85811015613387578284038952613375848351612ab9565b9885019893509084019060010161335d565b5091979650505050505050565b60a0815260006133a760a08301886132cb565b82810360208401526133b9818861330f565b905082810360408401526133cd818761333f565b60608401959095525050608001529392505050565b60c0815260006133f560c08301896132cb565b8281036020840152613407818961330f565b9050828103604084015261341b818861333f565b60608401969096525050608081019290925260a0909101529392505050565b634e487b7160e01b600052601160045260246000fd5b600082198211156134635761346361343a565b500190565b60008282101561347a5761347a61343a565b500390565b634e487b7160e01b600052603260045260246000fd5b6080815260006134a860808301876132cb565b82810360208401526134ba818761330f565b905082810360408401526134ce818661333f565b91505082606083015295945050505050565b84815260ff84166020820152826040820152608060608201526000610f496080830184612ab9565b85815260ff8516602082015283604082015260a06060820152600061353060a0830185612ab9565b82810360808401526135428185612ab9565b98975050505050505050565b6000600182016135605761356061343a565b5060010190565b60006020828403121561357957600080fd5b81518015158114610f7a57600080fd5b60208082526021908201527f476f7665726e6f723a20696e76616c69642070726f706f73616c206c656e67746040820152600d60fb1b606082015260800190565b60006001600160401b038083168185168083038211156135ec576135ec61343a565b01949350505050565b60006101208b8352602060018060a01b038c168185015281604085015261361e8285018c6132cb565b91508382036060850152613632828b61330f565b915083820360808501528189518084528284019150828160051b850101838c0160005b8381101561368357601f19878403018552613671838351612ab9565b94860194925090850190600101613655565b505086810360a0880152613697818c61333f565b9450505050506136b260c08401876001600160401b03169052565b6001600160401b03851660e08401528281036101008401526136d48185612ab9565b9c9b505050505050505050505050565b60008160001904831182151516156136fe576136fe61343a565b500290565b60008261372057634e487b7160e01b600052601260045260246000fd5b50049056fe476f7665726e6f723a2072656c617920726576657274656420776974686f7574206d657373616765a26469706673582212209e7972fca5268770ad33633b50287c201e1c985dc0f591c239dd499d90e012ec64736f6c634300080d0033",
  "immutableReferences": {
    "3633": [
      {
        "length": 32,
        "start": 2025
      },
      {
        "length": 32,
        "start": 7525
      },
      {
        "length": 32,
        "start": 7799
      }
    ],
    "8645": [
      {
        "length": 32,
        "start": 8557
      }
    ],
    "8647": [
      {
        "length": 32,
        "start": 8515
      }
    ],
    "8649": [
      {
        "length": 32,
        "start": 8473
      }
    ],
    "8651": [
      {
        "length": 32,
        "start": 8640
      }
    ],
    "8653": [
      {
        "length": 32,
        "start": 8677
      }
    ],
    "8655": [
      {
        "length": 32,
        "start": 8598
      }
    ]
  },
  "source": "// SPDX-License-Identifier: MIT\npragma solidity ^0.8.4;\n\nimport \"@openzeppelin/contracts/governance/Governor.sol\";\nimport \"@openzeppelin/contracts/governance/extensions/GovernorCountingSimple.sol\";\nimport \"@openzeppelin/contracts/governance/extensions/GovernorVotes.sol\";\nimport \"@openzeppelin/contracts/governance/extensions/GovernorVotesQuorumFraction.sol\";\nimport \"@openzeppelin/contracts/governance/extensions/GovernorTimelockControl.sol\";\nimport \"@openzeppelin/contracts/governance/utils/Votes.sol\";\n\ncontract MyGovernor is Governor, GovernorCountingSimple, GovernorVotes, GovernorVotesQuorumFraction, GovernorTimelockControl {\n    constructor(IVotes _token, TimelockController _timelock)\n        Governor(\"MyGovernor\")\n        GovernorVotes(_token)\n        GovernorVotesQuorumFraction(10)\n        GovernorTimelockControl(_timelock)\n    {}\n\n    function votingDelay() public pure override returns (uint256) {\n        return 1; // 1 block\n    }\n\n    function votingPeriod() public pure override returns (uint256) {\n        return 300; // 5min approx 45818 //1Week\n    }\n\n    // function proposalThreshold() public pure override returns (uint256) {\n    //     return 100e18;\n    // }\n    // TODO 100 eth is not required for our project\n    function proposalThreshold() public pure override returns (uint256) {\n        return 1e18;\n    }\n\n    // The following functions are overrides required by Solidity.\n\n    function quorum(uint256 blockNumber)\n        public\n        view\n        override(IGovernor, GovernorVotesQuorumFraction)\n        returns (uint256)\n    {\n        return super.quorum(blockNumber);\n    }\n\n    function state(uint256 proposalId)\n        public\n        view\n        override(Governor, GovernorTimelockControl)\n        returns (ProposalState)\n    {\n        return super.state(proposalId);\n    }\n\n    function propose(address[] memory targets, uint256[] memory values, bytes[] memory calldatas, string memory description)\n        public\n        override(Governor, IGovernor)\n        returns (uint256)\n    {\n        return super.propose(targets, values, calldatas, description);\n    }\n\n    function _execute(uint256 proposalId, address[] memory targets, uint256[] memory values, bytes[] memory calldatas, bytes32 descriptionHash)\n        internal\n        override(Governor, GovernorTimelockControl)\n    {\n        super._execute(proposalId, targets, values, calldatas, descriptionHash);\n    }\n\n    function _cancel(address[] memory targets, uint256[] memory values, bytes[] memory calldatas, bytes32 descriptionHash)\n        internal\n        override(Governor, GovernorTimelockControl)\n        returns (uint256)\n    {\n        return super._cancel(targets, values, calldatas, descriptionHash);\n    }\n\n    function _executor()\n        internal\n        view\n        override(Governor, GovernorTimelockControl)\n        returns (address)\n    {\n        return super._executor();\n    }\n\n    function supportsInterface(bytes4 interfaceId)\n        public\n        view\n        override(Governor, GovernorTimelockControl)\n        returns (bool)\n    {\n        return super.supportsInterface(interfaceId);\n    }\n}\n\n\n",
  "sourcePath": "/Users/yaksheshgupta/Desktop/equistart-1/contracts/contracts/MyGovernor.sol",
  "compiler": {
    "name": "solc",
    "version": "0.8.13+commit.abaa5c0e.Emscripten.clang"
  },
  "schemaVersion": "3.4.7",
  "updatedAt": "2023-01-05T16:49:18.260Z",
  "networkType": "ethereum",
  "devdoc": {
    "errors": {
      "Empty()": [
        {
          "details": "An operation (e.g. {front}) couldn't be completed due to the queue being empty."
        }
      ]
    },
    "kind": "dev",
    "methods": {
      "COUNTING_MODE()": {
        "details": "See {IGovernor-COUNTING_MODE}."
      },
      "castVote(uint256,uint8)": {
        "details": "See {IGovernor-castVote}."
      },
      "castVoteBySig(uint256,uint8,uint8,bytes32,bytes32)": {
        "details": "See {IGovernor-castVoteBySig}."
      },
      "castVoteWithReason(uint256,uint8,string)": {
        "details": "See {IGovernor-castVoteWithReason}."
      },
      "castVoteWithReasonAndParams(uint256,uint8,string,bytes)": {
        "details": "See {IGovernor-castVoteWithReasonAndParams}."
      },
      "castVoteWithReasonAndParamsBySig(uint256,uint8,string,bytes,uint8,bytes32,bytes32)": {
        "details": "See {IGovernor-castVoteWithReasonAndParamsBySig}."
      },
      "execute(address[],uint256[],bytes[],bytes32)": {
        "details": "See {IGovernor-execute}."
      },
      "getVotes(address,uint256)": {
        "details": "See {IGovernor-getVotes}."
      },
      "getVotesWithParams(address,uint256,bytes)": {
        "details": "See {IGovernor-getVotesWithParams}."
      },
      "hasVoted(uint256,address)": {
        "details": "See {IGovernor-hasVoted}."
      },
      "hashProposal(address[],uint256[],bytes[],bytes32)": {
        "details": "See {IGovernor-hashProposal}. The proposal id is produced by hashing the ABI encoded `targets` array, the `values` array, the `calldatas` array and the descriptionHash (bytes32 which itself is the keccak256 hash of the description string). This proposal id can be produced from the proposal data which is part of the {ProposalCreated} event. It can even be computed in advance, before the proposal is submitted. Note that the chainId and the governor address are not part of the proposal id computation. Consequently, the same proposal (with same operation and same description) will have the same id if submitted on multiple governors across multiple networks. This also means that in order to execute the same operation twice (on the same governor) the proposer will have to change the description in order to avoid proposal id conflicts."
      },
      "name()": {
        "details": "See {IGovernor-name}."
      },
      "onERC1155BatchReceived(address,address,uint256[],uint256[],bytes)": {
        "details": "See {IERC1155Receiver-onERC1155BatchReceived}."
      },
      "onERC1155Received(address,address,uint256,uint256,bytes)": {
        "details": "See {IERC1155Receiver-onERC1155Received}."
      },
      "onERC721Received(address,address,uint256,bytes)": {
        "details": "See {IERC721Receiver-onERC721Received}."
      },
      "proposalDeadline(uint256)": {
        "details": "See {IGovernor-proposalDeadline}."
      },
      "proposalEta(uint256)": {
        "details": "Public accessor to check the eta of a queued proposal"
      },
      "proposalSnapshot(uint256)": {
        "details": "See {IGovernor-proposalSnapshot}."
      },
      "proposalThreshold()": {
        "details": "Part of the Governor Bravo's interface: _\"The number of votes required in order for a voter to become a proposer\"_."
      },
      "proposalVotes(uint256)": {
        "details": "Accessor to the internal vote counts."
      },
      "queue(address[],uint256[],bytes[],bytes32)": {
        "details": "Function to queue a proposal to the timelock."
      },
      "quorumDenominator()": {
        "details": "Returns the quorum denominator. Defaults to 100, but may be overridden."
      },
      "quorumNumerator()": {
        "details": "Returns the current quorum numerator. See {quorumDenominator}."
      },
      "quorumNumerator(uint256)": {
        "details": "Returns the quorum numerator at a specific block number. See {quorumDenominator}."
      },
      "relay(address,uint256,bytes)": {
        "details": "Relays a transaction or function call to an arbitrary target. In cases where the governance executor is some contract other than the governor itself, like when using a timelock, this function can be invoked in a governance proposal to recover tokens or Ether that was sent to the governor contract by mistake. Note that if the executor is simply the governor itself, use of `relay` is redundant."
      },
      "timelock()": {
        "details": "Public accessor to check the address of the timelock"
      },
      "updateQuorumNumerator(uint256)": {
        "details": "Changes the quorum numerator. Emits a {QuorumNumeratorUpdated} event. Requirements: - Must be called through a governance proposal. - New numerator must be smaller or equal to the denominator."
      },
      "updateTimelock(address)": {
        "details": "Public endpoint to update the underlying timelock instance. Restricted to the timelock itself, so updates must be proposed, scheduled, and executed through governance proposals. CAUTION: It is not recommended to change the timelock while there are other queued governance proposals."
      },
      "version()": {
        "details": "See {IGovernor-version}."
      },
      "votingDelay()": {
        "details": "Delay, in number of block, between the proposal is created and the vote starts. This can be increassed to leave time for users to buy voting power, or delegate it, before the voting of a proposal starts."
      },
      "votingPeriod()": {
        "details": "Delay, in number of blocks, between the vote start and vote ends. NOTE: The {votingDelay} can delay the start of the vote. This must be considered when setting the voting duration compared to the voting delay."
      }
    },
    "version": 1
  },
  "userdoc": {
    "kind": "user",
    "methods": {
      "votingDelay()": {
        "notice": "module:user-config"
      },
      "votingPeriod()": {
        "notice": "module:user-config"
      }
    },
    "version": 1
  }
}