{
  "contractName": "TokenFactory",
  "abi": [
    {
      "anonymous": false,
      "inputs": [
        {
          "indexed": false,
          "internalType": "string",
          "name": "name",
          "type": "string"
        },
        {
          "indexed": false,
          "internalType": "string",
          "name": "symbol",
          "type": "string"
        },
        {
          "indexed": false,
          "internalType": "uint256",
          "name": "amount",
          "type": "uint256"
        },
        {
          "indexed": true,
          "internalType": "address",
          "name": "contractAddr",
          "type": "address"
        }
      ],
      "name": "NewTokenCreated",
      "type": "event"
    },
    {
      "inputs": [
        {
          "internalType": "string",
          "name": "name",
          "type": "string"
        },
        {
          "internalType": "string",
          "name": "symbol",
          "type": "string"
        },
        {
          "internalType": "uint256",
          "name": "initialSupply",
          "type": "uint256"
        },
        {
          "internalType": "address",
          "name": "beneficiary",
          "type": "address"
        }
      ],
      "name": "createProject",
      "outputs": [],
      "stateMutability": "nonpayable",
      "type": "function"
    },
    {
      "inputs": [],
      "name": "getAllDeployedProjects",
      "outputs": [
        {
          "components": [
            {
              "internalType": "uint256",
              "name": "id",
              "type": "uint256"
            },
            {
              "internalType": "string",
              "name": "projectName",
              "type": "string"
            },
            {
              "internalType": "string",
              "name": "symbol",
              "type": "string"
            },
            {
              "internalType": "uint256",
              "name": "initialSupply",
              "type": "uint256"
            },
            {
              "internalType": "address",
              "name": "tokenBeneficiary",
              "type": "address"
            },
            {
              "internalType": "address",
              "name": "contractAddress",
              "type": "address"
            }
          ],
          "internalType": "struct TokenFactory.projectMeta[]",
          "name": "props",
          "type": "tuple[]"
        }
      ],
      "stateMutability": "view",
      "type": "function",
      "constant": true
    },
    {
      "inputs": [
        {
          "internalType": "uint256",
          "name": "projectId",
          "type": "uint256"
        }
      ],
      "name": "getProjectById",
      "outputs": [
        {
          "components": [
            {
              "internalType": "uint256",
              "name": "id",
              "type": "uint256"
            },
            {
              "internalType": "string",
              "name": "projectName",
              "type": "string"
            },
            {
              "internalType": "string",
              "name": "symbol",
              "type": "string"
            },
            {
              "internalType": "uint256",
              "name": "initialSupply",
              "type": "uint256"
            },
            {
              "internalType": "address",
              "name": "tokenBeneficiary",
              "type": "address"
            },
            {
              "internalType": "address",
              "name": "contractAddress",
              "type": "address"
            }
          ],
          "internalType": "struct TokenFactory.projectMeta",
          "name": "",
          "type": "tuple"
        }
      ],
      "stateMutability": "view",
      "type": "function",
      "constant": true
    }
  ],
  "bytecode": "0x608060405234801561001057600080fd5b50615d90806100206000396000f3fe60806040523480156200001157600080fd5b5060043610620000465760003560e01c80634457d5f0146200004b578063bee5cdca146200006b578063f0e24a4014620000a1575b600080fd5b62000069600480360381019062000063919062000a97565b620000c3565b005b62000089600480360381019062000083919062000b47565b62000282565b60405162000098919062000cca565b60405180910390f35b620000ab620004a5565b604051620000ba919062000e5a565b60405180910390f35b6000806000815480929190620000d99062000ead565b9190505590506000600160008381526020019081526020016000209050818160000181905550858160010190805190602001906200011992919062000761565b50848160020190805190602001906200013492919062000761565b50838160030181905550828160040160006101000a81548173ffffffffffffffffffffffffffffffffffffffff021916908373ffffffffffffffffffffffffffffffffffffffff160217905550858585856040516200019390620007f2565b620001a2949392919062000f6e565b604051809103906000f080158015620001bf573d6000803e3d6000fd5b508160050160006101000a81548173ffffffffffffffffffffffffffffffffffffffff021916908373ffffffffffffffffffffffffffffffffffffffff1602179055508060050160009054906101000a900473ffffffffffffffffffffffffffffffffffffffff1673ffffffffffffffffffffffffffffffffffffffff167fe954c62f906d32c70e61a0830e342a63a01d11bb0cf4c7de435928999268d9f6878787604051620002729392919062000fc9565b60405180910390a2505050505050565b6200028c62000800565b600160008381526020019081526020016000206040518060c001604052908160008201548152602001600182018054620002c69062001043565b80601f0160208091040260200160405190810160405280929190818152602001828054620002f49062001043565b8015620003455780601f10620003195761010080835404028352916020019162000345565b820191906000526020600020905b8154815290600101906020018083116200032757829003601f168201915b50505050508152602001600282018054620003609062001043565b80601f01602080910402602001604051908101604052809291908181526020018280546200038e9062001043565b8015620003df5780601f10620003b357610100808354040283529160200191620003df565b820191906000526020600020905b815481529060010190602001808311620003c157829003601f168201915b50505050508152602001600382015481526020016004820160009054906101000a900473ffffffffffffffffffffffffffffffffffffffff1673ffffffffffffffffffffffffffffffffffffffff1673ffffffffffffffffffffffffffffffffffffffff1681526020016005820160009054906101000a900473ffffffffffffffffffffffffffffffffffffffff1673ffffffffffffffffffffffffffffffffffffffff1673ffffffffffffffffffffffffffffffffffffffff16815250509050919050565b606060005467ffffffffffffffff811115620004c657620004c5620008b0565b5b6040519080825280602002602001820160405280156200050357816020015b620004ef62000800565b815260200190600190039081620004e55790505b50905060005b6000548110156200075d57600160008281526020019081526020016000206040518060c0016040529081600082015481526020016001820180546200054e9062001043565b80601f01602080910402602001604051908101604052809291908181526020018280546200057c9062001043565b8015620005cd5780601f10620005a157610100808354040283529160200191620005cd565b820191906000526020600020905b815481529060010190602001808311620005af57829003601f168201915b50505050508152602001600282018054620005e89062001043565b80601f0160208091040260200160405190810160405280929190818152602001828054620006169062001043565b8015620006675780601f106200063b5761010080835404028352916020019162000667565b820191906000526020600020905b8154815290600101906020018083116200064957829003601f168201915b50505050508152602001600382015481526020016004820160009054906101000a900473ffffffffffffffffffffffffffffffffffffffff1673ffffffffffffffffffffffffffffffffffffffff1673ffffffffffffffffffffffffffffffffffffffff1681526020016005820160009054906101000a900473ffffffffffffffffffffffffffffffffffffffff1673ffffffffffffffffffffffffffffffffffffffff1673ffffffffffffffffffffffffffffffffffffffff16815250508282815181106200073c576200073b62001078565b5b60200260200101819052508080620007549062000ead565b91505062000509565b5090565b8280546200076f9062001043565b90600052602060002090601f016020900481019282620007935760008555620007df565b82601f10620007ae57805160ff1916838001178555620007df565b82800160010185558215620007df579182015b82811115620007de578251825591602001919060010190620007c1565b5b509050620007ee919062000862565b5090565b614cb380620010a883390190565b6040518060c0016040528060008152602001606081526020016060815260200160008152602001600073ffffffffffffffffffffffffffffffffffffffff168152602001600073ffffffffffffffffffffffffffffffffffffffff1681525090565b5b808211156200087d57600081600090555060010162000863565b5090565b6000604051905090565b600080fd5b600080fd5b600080fd5b600080fd5b6000601f19601f8301169050919050565b7f4e487b7100000000000000000000000000000000000000000000000000000000600052604160045260246000fd5b620008ea826200089f565b810181811067ffffffffffffffff821117156200090c576200090b620008b0565b5b80604052505050565b60006200092162000881565b90506200092f8282620008df565b919050565b600067ffffffffffffffff821115620009525762000951620008b0565b5b6200095d826200089f565b9050602081019050919050565b82818337600083830152505050565b6000620009906200098a8462000934565b62000915565b905082815260208101848484011115620009af57620009ae6200089a565b5b620009bc8482856200096a565b509392505050565b600082601f830112620009dc57620009db62000895565b5b8135620009ee84826020860162000979565b91505092915050565b6000819050919050565b62000a0c81620009f7565b811462000a1857600080fd5b50565b60008135905062000a2c8162000a01565b92915050565b600073ffffffffffffffffffffffffffffffffffffffff82169050919050565b600062000a5f8262000a32565b9050919050565b62000a718162000a52565b811462000a7d57600080fd5b50565b60008135905062000a918162000a66565b92915050565b6000806000806080858703121562000ab45762000ab36200088b565b5b600085013567ffffffffffffffff81111562000ad55762000ad462000890565b5b62000ae387828801620009c4565b945050602085013567ffffffffffffffff81111562000b075762000b0662000890565b5b62000b1587828801620009c4565b935050604062000b288782880162000a1b565b925050606062000b3b8782880162000a80565b91505092959194509250565b60006020828403121562000b605762000b5f6200088b565b5b600062000b708482850162000a1b565b91505092915050565b62000b8481620009f7565b82525050565b600081519050919050565b600082825260208201905092915050565b60005b8381101562000bc657808201518184015260208101905062000ba9565b8381111562000bd6576000848401525b50505050565b600062000be98262000b8a565b62000bf5818562000b95565b935062000c0781856020860162000ba6565b62000c12816200089f565b840191505092915050565b62000c288162000a52565b82525050565b600060c08301600083015162000c48600086018262000b79565b506020830151848203602086015262000c62828262000bdc565b9150506040830151848203604086015262000c7e828262000bdc565b915050606083015162000c95606086018262000b79565b50608083015162000caa608086018262000c1d565b5060a083015162000cbf60a086018262000c1d565b508091505092915050565b6000602082019050818103600083015262000ce6818462000c2e565b905092915050565b600081519050919050565b600082825260208201905092915050565b6000819050602082019050919050565b600060c08301600083015162000d34600086018262000b79565b506020830151848203602086015262000d4e828262000bdc565b9150506040830151848203604086015262000d6a828262000bdc565b915050606083015162000d81606086018262000b79565b50608083015162000d96608086018262000c1d565b5060a083015162000dab60a086018262000c1d565b508091505092915050565b600062000dc4838362000d1a565b905092915050565b6000602082019050919050565b600062000de68262000cee565b62000df2818562000cf9565b93508360208202850162000e068562000d0a565b8060005b8581101562000e48578484038952815162000e26858262000db6565b945062000e338362000dcc565b925060208a0199505060018101905062000e0a565b50829750879550505050505092915050565b6000602082019050818103600083015262000e76818462000dd9565b905092915050565b7f4e487b7100000000000000000000000000000000000000000000000000000000600052601160045260246000fd5b600062000eba82620009f7565b91507fffffffffffffffffffffffffffffffffffffffffffffffffffffffffffffffff820362000eef5762000eee62000e7e565b5b600182019050919050565b600082825260208201905092915050565b600062000f188262000b8a565b62000f24818562000efa565b935062000f3681856020860162000ba6565b62000f41816200089f565b840191505092915050565b62000f5781620009f7565b82525050565b62000f688162000a52565b82525050565b6000608082019050818103600083015262000f8a818762000f0b565b9050818103602083015262000fa0818662000f0b565b905062000fb1604083018562000f4c565b62000fc0606083018462000f5d565b95945050505050565b6000606082019050818103600083015262000fe5818662000f0b565b9050818103602083015262000ffb818562000f0b565b90506200100c604083018462000f4c565b949350505050565b7f4e487b7100000000000000000000000000000000000000000000000000000000600052602260045260246000fd5b600060028204905060018216806200105c57607f821691505b60208210810362001072576200107162001014565b5b50919050565b7f4e487b7100000000000000000000000000000000000000000000000000000000600052603260045260246000fdfe6101406040523480156200001257600080fd5b5060405162004cb338038062004cb3833981810160405281019062000038919062000df8565b83806040518060400160405280600181526020017f3100000000000000000000000000000000000000000000000000000000000000815250868681600390805190602001906200008a92919062000b0b565b508060049080519060200190620000a392919062000b0b565b50505060008280519060200120905060008280519060200120905060007f8b73c3c69bb8fe3d512ecc4cf759cc79239f7b179b0ffacaa9a75d522b39400f90508260e081815250508161010081815250504660a081815250506200010f8184846200019f60201b60201c565b608081815250503073ffffffffffffffffffffffffffffffffffffffff1660c08173ffffffffffffffffffffffffffffffffffffffff168152505080610120818152505050505050505062000195816200016e620001db60201b60201c565b600a6200017c919062001038565b8462000189919062001089565b620001e460201b60201c565b5050505062001544565b60008383834630604051602001620001bc95949392919062001127565b6040516020818303038152906040528051906020012090509392505050565b60006012905090565b620001fb8282620001ff60201b62000e7b1760201c565b5050565b620002168282620002bd60201b62000f081760201c565b620002266200043560201b60201c565b7bffffffffffffffffffffffffffffffffffffffffffffffffffffffff16620002546200045960201b60201c565b111562000298576040517f08c379a00000000000000000000000000000000000000000000000000000000081526004016200028f906200120b565b60405180910390fd5b620002b760096200046360201b6200106717836200047b60201b60201c565b50505050565b600073ffffffffffffffffffffffffffffffffffffffff168273ffffffffffffffffffffffffffffffffffffffff16036200032f576040517f08c379a000000000000000000000000000000000000000000000000000000000815260040162000326906200127d565b60405180910390fd5b62000343600083836200072c60201b60201c565b80600260008282546200035791906200129f565b92505081905550806000808473ffffffffffffffffffffffffffffffffffffffff1673ffffffffffffffffffffffffffffffffffffffff1681526020019081526020016000206000828254620003ae91906200129f565b925050819055508173ffffffffffffffffffffffffffffffffffffffff16600073ffffffffffffffffffffffffffffffffffffffff167fddf252ad1be2c89b69c2b068fc378daa952ba7f163c4a11628f55a4df523b3ef83604051620004159190620012fc565b60405180910390a362000431600083836200073160201b60201c565b5050565b60007bffffffffffffffffffffffffffffffffffffffffffffffffffffffff905090565b6000600254905090565b600081836200047391906200129f565b905092915050565b60008060008580549050905060008114620004f05785600182620004a0919062001319565b81548110620004b457620004b362001354565b5b9060005260206000200160000160049054906101000a90047bffffffffffffffffffffffffffffffffffffffffffffffffffffffff16620004f3565b60005b7bffffffffffffffffffffffffffffffffffffffffffffffffffffffff1692506200051f83858760201c565b915060008111801562000578575043866001836200053e919062001319565b8154811062000552576200055162001354565b5b9060005260206000200160000160009054906101000a900463ffffffff1663ffffffff16145b15620006195762000594826200074e60201b6200107d1760201c565b86600183620005a4919062001319565b81548110620005b857620005b762001354565b5b9060005260206000200160000160046101000a8154817bffffffffffffffffffffffffffffffffffffffffffffffffffffffff02191690837bffffffffffffffffffffffffffffffffffffffffffffffffffffffff16021790555062000723565b8560405180604001604052806200063b43620007bc60201b620010e81760201c565b63ffffffff1681526020016200065c856200074e60201b6200107d1760201c565b7bffffffffffffffffffffffffffffffffffffffffffffffffffffffff168152509080600181540180825580915050600190039060005260206000200160009091909190915060008201518160000160006101000a81548163ffffffff021916908363ffffffff16021790555060208201518160000160046101000a8154817bffffffffffffffffffffffffffffffffffffffffffffffffffffffff02191690837bffffffffffffffffffffffffffffffffffffffffffffffffffffffff16021790555050505b50935093915050565b505050565b620007498383836200081260201b6200113b1760201c565b505050565b60007bffffffffffffffffffffffffffffffffffffffffffffffffffffffff8016821115620007b4576040517f08c379a0000000000000000000000000000000000000000000000000000000008152600401620007ab90620013f9565b60405180910390fd5b819050919050565b600063ffffffff80168211156200080a576040517f08c379a0000000000000000000000000000000000000000000000000000000008152600401620008019062001491565b60405180910390fd5b819050919050565b6200082a8383836200086260201b620011661760201c565b6200085d6200083f846200086760201b60201c565b62000850846200086760201b60201c565b83620008d060201b60201c565b505050565b505050565b6000600760008373ffffffffffffffffffffffffffffffffffffffff1673ffffffffffffffffffffffffffffffffffffffff16815260200190815260200160002060009054906101000a900473ffffffffffffffffffffffffffffffffffffffff169050919050565b8173ffffffffffffffffffffffffffffffffffffffff168373ffffffffffffffffffffffffffffffffffffffff16141580156200090d5750600081115b1562000aee57600073ffffffffffffffffffffffffffffffffffffffff168373ffffffffffffffffffffffffffffffffffffffff161462000a0057600080620009a7600860008773ffffffffffffffffffffffffffffffffffffffff1673ffffffffffffffffffffffffffffffffffffffff16815260200190815260200160002062000af360201b6200116b17856200047b60201b60201c565b915091508473ffffffffffffffffffffffffffffffffffffffff167fdec2bacdd2f05b59de34da9b523dff8be42e5e38e818c82fdb0bae774387a7248383604051620009f5929190620014b3565b60405180910390a250505b600073ffffffffffffffffffffffffffffffffffffffff168273ffffffffffffffffffffffffffffffffffffffff161462000aed5760008062000a94600860008673ffffffffffffffffffffffffffffffffffffffff1673ffffffffffffffffffffffffffffffffffffffff1681526020019081526020016000206200046360201b6200106717856200047b60201b60201c565b915091508373ffffffffffffffffffffffffffffffffffffffff167fdec2bacdd2f05b59de34da9b523dff8be42e5e38e818c82fdb0bae774387a724838360405162000ae2929190620014b3565b60405180910390a250505b5b505050565b6000818362000b03919062001319565b905092915050565b82805462000b19906200150f565b90600052602060002090601f01602090048101928262000b3d576000855562000b89565b82601f1062000b5857805160ff191683800117855562000b89565b8280016001018555821562000b89579182015b8281111562000b8857825182559160200191906001019062000b6b565b5b50905062000b98919062000b9c565b5090565b5b8082111562000bb757600081600090555060010162000b9d565b5090565b6000604051905090565b600080fd5b600080fd5b600080fd5b600080fd5b6000601f19601f8301169050919050565b7f4e487b7100000000000000000000000000000000000000000000000000000000600052604160045260246000fd5b62000c248262000bd9565b810181811067ffffffffffffffff8211171562000c465762000c4562000bea565b5b80604052505050565b600062000c5b62000bbb565b905062000c69828262000c19565b919050565b600067ffffffffffffffff82111562000c8c5762000c8b62000bea565b5b62000c978262000bd9565b9050602081019050919050565b60005b8381101562000cc457808201518184015260208101905062000ca7565b8381111562000cd4576000848401525b50505050565b600062000cf162000ceb8462000c6e565b62000c4f565b90508281526020810184848401111562000d105762000d0f62000bd4565b5b62000d1d84828562000ca4565b509392505050565b600082601f83011262000d3d5762000d3c62000bcf565b5b815162000d4f84826020860162000cda565b91505092915050565b6000819050919050565b62000d6d8162000d58565b811462000d7957600080fd5b50565b60008151905062000d8d8162000d62565b92915050565b600073ffffffffffffffffffffffffffffffffffffffff82169050919050565b600062000dc08262000d93565b9050919050565b62000dd28162000db3565b811462000dde57600080fd5b50565b60008151905062000df28162000dc7565b92915050565b6000806000806080858703121562000e155762000e1462000bc5565b5b600085015167ffffffffffffffff81111562000e365762000e3562000bca565b5b62000e448782880162000d25565b945050602085015167ffffffffffffffff81111562000e685762000e6762000bca565b5b62000e768782880162000d25565b935050604062000e898782880162000d7c565b925050606062000e9c8782880162000de1565b91505092959194509250565b7f4e487b7100000000000000000000000000000000000000000000000000000000600052601160045260246000fd5b60008160011c9050919050565b6000808291508390505b600185111562000f365780860481111562000f0e5762000f0d62000ea8565b5b600185161562000f1e5780820291505b808102905062000f2e8562000ed7565b945062000eee565b94509492505050565b60008262000f51576001905062001024565b8162000f61576000905062001024565b816001811462000f7a576002811462000f855762000fbb565b600191505062001024565b60ff84111562000f9a5762000f9962000ea8565b5b8360020a91508482111562000fb45762000fb362000ea8565b5b5062001024565b5060208310610133831016604e8410600b841016171562000ff55782820a90508381111562000fef5762000fee62000ea8565b5b62001024565b62001004848484600162000ee4565b925090508184048111156200101e576200101d62000ea8565b5b81810290505b9392505050565b600060ff82169050919050565b6000620010458262000d58565b915062001052836200102b565b9250620010817fffffffffffffffffffffffffffffffffffffffffffffffffffffffffffffffff848462000f3f565b905092915050565b6000620010968262000d58565b9150620010a38362000d58565b9250817fffffffffffffffffffffffffffffffffffffffffffffffffffffffffffffffff0483118215151615620010df57620010de62000ea8565b5b828202905092915050565b6000819050919050565b620010ff81620010ea565b82525050565b620011108162000d58565b82525050565b620011218162000db3565b82525050565b600060a0820190506200113e6000830188620010f4565b6200114d6020830187620010f4565b6200115c6040830186620010f4565b6200116b606083018562001105565b6200117a608083018462001116565b9695505050505050565b600082825260208201905092915050565b7f4552433230566f7465733a20746f74616c20737570706c79207269736b73206f60008201527f766572666c6f77696e6720766f74657300000000000000000000000000000000602082015250565b6000620011f360308362001184565b9150620012008262001195565b604082019050919050565b600060208201905081810360008301526200122681620011e4565b9050919050565b7f45524332303a206d696e7420746f20746865207a65726f206164647265737300600082015250565b600062001265601f8362001184565b915062001272826200122d565b602082019050919050565b60006020820190508181036000830152620012988162001256565b9050919050565b6000620012ac8262000d58565b9150620012b98362000d58565b9250827fffffffffffffffffffffffffffffffffffffffffffffffffffffffffffffffff03821115620012f157620012f062000ea8565b5b828201905092915050565b600060208201905062001313600083018462001105565b92915050565b6000620013268262000d58565b9150620013338362000d58565b92508282101562001349576200134862000ea8565b5b828203905092915050565b7f4e487b7100000000000000000000000000000000000000000000000000000000600052603260045260246000fd5b7f53616665436173743a2076616c756520646f65736e27742066697420696e203260008201527f3234206269747300000000000000000000000000000000000000000000000000602082015250565b6000620013e160278362001184565b9150620013ee8262001383565b604082019050919050565b600060208201905081810360008301526200141481620013d2565b9050919050565b7f53616665436173743a2076616c756520646f65736e27742066697420696e203360008201527f3220626974730000000000000000000000000000000000000000000000000000602082015250565b60006200147960268362001184565b915062001486826200141b565b604082019050919050565b60006020820190508181036000830152620014ac816200146a565b9050919050565b6000604082019050620014ca600083018562001105565b620014d9602083018462001105565b9392505050565b7f4e487b7100000000000000000000000000000000000000000000000000000000600052602260045260246000fd5b600060028204905060018216806200152857607f821691505b6020821081036200153e576200153d620014e0565b5b50919050565b60805160a05160c05160e051610100516101205161371f62001594600039600061170b0152600061174d0152600061172c01526000611661015260006116b7015260006116e0015261371f6000f3fe608060405234801561001057600080fd5b50600436106101425760003560e01c806370a08231116100b8578063a457c2d71161007c578063a457c2d7146103d9578063a9059cbb14610409578063c3cda52014610439578063d505accf14610455578063dd62ed3e14610471578063f1127ed8146104a157610142565b806370a08231146102fb5780637ecebe001461032b5780638e539e8c1461035b57806395d89b411461038b5780639ab24eb0146103a957610142565b80633644e5151161010a5780633644e51514610201578063395093511461021f5780633a46b1a81461024f578063587cde1e1461027f5780635c19a95c146102af5780636fcfff45146102cb57610142565b806306fdde0314610147578063095ea7b31461016557806318160ddd1461019557806323b872dd146101b3578063313ce567146101e3575b600080fd5b61014f6104d1565b60405161015c9190612350565b60405180910390f35b61017f600480360381019061017a919061240b565b610563565b60405161018c9190612466565b60405180910390f35b61019d610586565b6040516101aa9190612490565b60405180910390f35b6101cd60048036038101906101c891906124ab565b610590565b6040516101da9190612466565b60405180910390f35b6101eb6105bf565b6040516101f8919061251a565b60405180910390f35b6102096105c8565b604051610216919061254e565b60405180910390f35b6102396004803603810190610234919061240b565b6105d7565b6040516102469190612466565b60405180910390f35b6102696004803603810190610264919061240b565b61060e565b6040516102769190612490565b60405180910390f35b61029960048036038101906102949190612569565b6106a2565b6040516102a691906125a5565b60405180910390f35b6102c960048036038101906102c49190612569565b61070b565b005b6102e560048036038101906102e09190612569565b61071f565b6040516102f291906125df565b60405180910390f35b61031560048036038101906103109190612569565b610773565b6040516103229190612490565b60405180910390f35b61034560048036038101906103409190612569565b6107bb565b6040516103529190612490565b60405180910390f35b610375600480360381019061037091906125fa565b61080b565b6040516103829190612490565b60405180910390f35b610393610861565b6040516103a09190612350565b60405180910390f35b6103c360048036038101906103be9190612569565b6108f3565b6040516103d09190612490565b60405180910390f35b6103f360048036038101906103ee919061240b565b610a04565b6040516104009190612466565b60405180910390f35b610423600480360381019061041e919061240b565b610a7b565b6040516104309190612466565b60405180910390f35b610453600480360381019061044e919061267f565b610a9e565b005b61046f600480360381019061046a919061270c565b610ba2565b005b61048b600480360381019061048691906127ae565b610ce4565b6040516104989190612490565b60405180910390f35b6104bb60048036038101906104b6919061281a565b610d6b565b6040516104c891906128cf565b60405180910390f35b6060600380546104e090612919565b80601f016020809104026020016040519081016040528092919081815260200182805461050c90612919565b80156105595780601f1061052e57610100808354040283529160200191610559565b820191906000526020600020905b81548152906001019060200180831161053c57829003601f168201915b5050505050905090565b60008061056e611181565b905061057b818585611189565b600191505092915050565b6000600254905090565b60008061059b611181565b90506105a8858285611352565b6105b38585856113de565b60019150509392505050565b60006012905090565b60006105d261165d565b905090565b6000806105e2611181565b90506106038185856105f48589610ce4565b6105fe9190612979565b611189565b600191505092915050565b6000438210610652576040517f08c379a000000000000000000000000000000000000000000000000000000000815260040161064990612a1b565b60405180910390fd5b61069a600860008573ffffffffffffffffffffffffffffffffffffffff1673ffffffffffffffffffffffffffffffffffffffff16815260200190815260200160002083611777565b905092915050565b6000600760008373ffffffffffffffffffffffffffffffffffffffff1673ffffffffffffffffffffffffffffffffffffffff16815260200190815260200160002060009054906101000a900473ffffffffffffffffffffffffffffffffffffffff169050919050565b61071c610716611181565b82611883565b50565b600061076c600860008473ffffffffffffffffffffffffffffffffffffffff1673ffffffffffffffffffffffffffffffffffffffff168152602001908152602001600020805490506110e8565b9050919050565b60008060008373ffffffffffffffffffffffffffffffffffffffff1673ffffffffffffffffffffffffffffffffffffffff168152602001908152602001600020549050919050565b6000610804600560008473ffffffffffffffffffffffffffffffffffffffff1673ffffffffffffffffffffffffffffffffffffffff16815260200190815260200160002061199d565b9050919050565b600043821061084f576040517f08c379a000000000000000000000000000000000000000000000000000000000815260040161084690612a1b565b60405180910390fd5b61085a600983611777565b9050919050565b60606004805461087090612919565b80601f016020809104026020016040519081016040528092919081815260200182805461089c90612919565b80156108e95780601f106108be576101008083540402835291602001916108e9565b820191906000526020600020905b8154815290600101906020018083116108cc57829003601f168201915b5050505050905090565b600080600860008473ffffffffffffffffffffffffffffffffffffffff1673ffffffffffffffffffffffffffffffffffffffff168152602001908152602001600020805490509050600081146109db57600860008473ffffffffffffffffffffffffffffffffffffffff1673ffffffffffffffffffffffffffffffffffffffff16815260200190815260200160002060018261098f9190612a3b565b815481106109a05761099f612a6f565b5b9060005260206000200160000160049054906101000a90047bffffffffffffffffffffffffffffffffffffffffffffffffffffffff166109de565b60005b7bffffffffffffffffffffffffffffffffffffffffffffffffffffffff16915050919050565b600080610a0f611181565b90506000610a1d8286610ce4565b905083811015610a62576040517f08c379a0000000000000000000000000000000000000000000000000000000008152600401610a5990612b10565b60405180910390fd5b610a6f8286868403611189565b60019250505092915050565b600080610a86611181565b9050610a938185856113de565b600191505092915050565b83421115610ae1576040517f08c379a0000000000000000000000000000000000000000000000000000000008152600401610ad890612b7c565b60405180910390fd5b6000610b43610b3b7fe48329057bfd03d55e49b547132e39cffd9c1820ad7b9d4c5307691425d15adf898989604051602001610b209493929190612b9c565b604051602081830303815290604052805190602001206119ab565b8585856119c5565b9050610b4e816119f0565b8614610b8f576040517f08c379a0000000000000000000000000000000000000000000000000000000008152600401610b8690612c2d565b60405180910390fd5b610b998188611883565b50505050505050565b83421115610be5576040517f08c379a0000000000000000000000000000000000000000000000000000000008152600401610bdc90612c99565b60405180910390fd5b60007f6e71edae12b1b97f4d1f60370fef10105fa2faae0126114a169c64845d6126c9888888610c148c6119f0565b89604051602001610c2a96959493929190612cb9565b6040516020818303038152906040528051906020012090506000610c4d826119ab565b90506000610c5d828787876119c5565b90508973ffffffffffffffffffffffffffffffffffffffff168173ffffffffffffffffffffffffffffffffffffffff1614610ccd576040517f08c379a0000000000000000000000000000000000000000000000000000000008152600401610cc490612d66565b60405180910390fd5b610cd88a8a8a611189565b50505050505050505050565b6000600160008473ffffffffffffffffffffffffffffffffffffffff1673ffffffffffffffffffffffffffffffffffffffff16815260200190815260200160002060008373ffffffffffffffffffffffffffffffffffffffff1673ffffffffffffffffffffffffffffffffffffffff16815260200190815260200160002054905092915050565b610d73612279565b600860008473ffffffffffffffffffffffffffffffffffffffff1673ffffffffffffffffffffffffffffffffffffffff1681526020019081526020016000208263ffffffff1681548110610dca57610dc9612a6f565b5b906000526020600020016040518060400160405290816000820160009054906101000a900463ffffffff1663ffffffff1663ffffffff1681526020016000820160049054906101000a90047bffffffffffffffffffffffffffffffffffffffffffffffffffffffff167bffffffffffffffffffffffffffffffffffffffffffffffffffffffff167bffffffffffffffffffffffffffffffffffffffffffffffffffffffff1681525050905092915050565b610e858282610f08565b610e8d611a4e565b7bffffffffffffffffffffffffffffffffffffffffffffffffffffffff16610eb3610586565b1115610ef4576040517f08c379a0000000000000000000000000000000000000000000000000000000008152600401610eeb90612df8565b60405180910390fd5b610f02600961106783611a72565b50505050565b600073ffffffffffffffffffffffffffffffffffffffff168273ffffffffffffffffffffffffffffffffffffffff1603610f77576040517f08c379a0000000000000000000000000000000000000000000000000000000008152600401610f6e90612e64565b60405180910390fd5b610f8360008383611cea565b8060026000828254610f959190612979565b92505081905550806000808473ffffffffffffffffffffffffffffffffffffffff1673ffffffffffffffffffffffffffffffffffffffff1681526020019081526020016000206000828254610fea9190612979565b925050819055508173ffffffffffffffffffffffffffffffffffffffff16600073ffffffffffffffffffffffffffffffffffffffff167fddf252ad1be2c89b69c2b068fc378daa952ba7f163c4a11628f55a4df523b3ef8360405161104f9190612490565b60405180910390a361106360008383611cef565b5050565b600081836110759190612979565b905092915050565b60007bffffffffffffffffffffffffffffffffffffffffffffffffffffffff80168211156110e0576040517f08c379a00000000000000000000000000000000000000000000000000000000081526004016110d790612ef6565b60405180910390fd5b819050919050565b600063ffffffff8016821115611133576040517f08c379a000000000000000000000000000000000000000000000000000000000815260040161112a90612f88565b60405180910390fd5b819050919050565b611146838383611166565b611161611152846106a2565b61115b846106a2565b83611cff565b505050565b505050565b600081836111799190612a3b565b905092915050565b600033905090565b600073ffffffffffffffffffffffffffffffffffffffff168373ffffffffffffffffffffffffffffffffffffffff16036111f8576040517f08c379a00000000000000000000000000000000000000000000000000000000081526004016111ef9061301a565b60405180910390fd5b600073ffffffffffffffffffffffffffffffffffffffff168273ffffffffffffffffffffffffffffffffffffffff1603611267576040517f08c379a000000000000000000000000000000000000000000000000000000000815260040161125e906130ac565b60405180910390fd5b80600160008573ffffffffffffffffffffffffffffffffffffffff1673ffffffffffffffffffffffffffffffffffffffff16815260200190815260200160002060008473ffffffffffffffffffffffffffffffffffffffff1673ffffffffffffffffffffffffffffffffffffffff168152602001908152602001600020819055508173ffffffffffffffffffffffffffffffffffffffff168373ffffffffffffffffffffffffffffffffffffffff167f8c5be1e5ebec7d5bd14f71427d1e84f3dd0314c0f7b2291e5b200ac8c7c3b925836040516113459190612490565b60405180910390a3505050565b600061135e8484610ce4565b90507fffffffffffffffffffffffffffffffffffffffffffffffffffffffffffffffff81146113d857818110156113ca576040517f08c379a00000000000000000000000000000000000000000000000000000000081526004016113c190613118565b60405180910390fd5b6113d78484848403611189565b5b50505050565b600073ffffffffffffffffffffffffffffffffffffffff168373ffffffffffffffffffffffffffffffffffffffff160361144d576040517f08c379a0000000000000000000000000000000000000000000000000000000008152600401611444906131aa565b60405180910390fd5b600073ffffffffffffffffffffffffffffffffffffffff168273ffffffffffffffffffffffffffffffffffffffff16036114bc576040517f08c379a00000000000000000000000000000000000000000000000000000000081526004016114b39061323c565b60405180910390fd5b6114c7838383611cea565b60008060008573ffffffffffffffffffffffffffffffffffffffff1673ffffffffffffffffffffffffffffffffffffffff1681526020019081526020016000205490508181101561154d576040517f08c379a0000000000000000000000000000000000000000000000000000000008152600401611544906132ce565b60405180910390fd5b8181036000808673ffffffffffffffffffffffffffffffffffffffff1673ffffffffffffffffffffffffffffffffffffffff16815260200190815260200160002081905550816000808573ffffffffffffffffffffffffffffffffffffffff1673ffffffffffffffffffffffffffffffffffffffff16815260200190815260200160002060008282546115e09190612979565b925050819055508273ffffffffffffffffffffffffffffffffffffffff168473ffffffffffffffffffffffffffffffffffffffff167fddf252ad1be2c89b69c2b068fc378daa952ba7f163c4a11628f55a4df523b3ef846040516116449190612490565b60405180910390a3611657848484611cef565b50505050565b60007f000000000000000000000000000000000000000000000000000000000000000073ffffffffffffffffffffffffffffffffffffffff163073ffffffffffffffffffffffffffffffffffffffff161480156116d957507f000000000000000000000000000000000000000000000000000000000000000046145b15611706577f00000000000000000000000000000000000000000000000000000000000000009050611774565b6117717f00000000000000000000000000000000000000000000000000000000000000007f00000000000000000000000000000000000000000000000000000000000000007f0000000000000000000000000000000000000000000000000000000000000000611ef8565b90505b90565b6000808380549050905060005b818110156117f65760006117988284611f32565b9050848682815481106117ae576117ad612a6f565b5b9060005260206000200160000160009054906101000a900463ffffffff1663ffffffff1611156117e0578092506117f0565b6001816117ed9190612979565b91505b50611784565b60008214611858578460018361180c9190612a3b565b8154811061181d5761181c612a6f565b5b9060005260206000200160000160049054906101000a90047bffffffffffffffffffffffffffffffffffffffffffffffffffffffff1661185b565b60005b7bffffffffffffffffffffffffffffffffffffffffffffffffffffffff169250505092915050565b600061188e836106a2565b9050600061189b84610773565b905082600760008673ffffffffffffffffffffffffffffffffffffffff1673ffffffffffffffffffffffffffffffffffffffff16815260200190815260200160002060006101000a81548173ffffffffffffffffffffffffffffffffffffffff021916908373ffffffffffffffffffffffffffffffffffffffff1602179055508273ffffffffffffffffffffffffffffffffffffffff168273ffffffffffffffffffffffffffffffffffffffff168573ffffffffffffffffffffffffffffffffffffffff167f3134e8a2e6d97e929a7e54011ea5485d7d196dd5f0ba4d4ef95803e8e3fc257f60405160405180910390a4611997828483611cff565b50505050565b600081600001549050919050565b60006119be6119b861165d565b83611f58565b9050919050565b60008060006119d687878787611f8b565b915091506119e381612097565b8192505050949350505050565b600080600560008473ffffffffffffffffffffffffffffffffffffffff1673ffffffffffffffffffffffffffffffffffffffff1681526020019081526020016000209050611a3d8161199d565b9150611a4881612263565b50919050565b60007bffffffffffffffffffffffffffffffffffffffffffffffffffffffff905090565b60008060008580549050905060008114611ae05785600182611a949190612a3b565b81548110611aa557611aa4612a6f565b5b9060005260206000200160000160049054906101000a90047bffffffffffffffffffffffffffffffffffffffffffffffffffffffff16611ae3565b60005b7bffffffffffffffffffffffffffffffffffffffffffffffffffffffff169250611b1183858763ffffffff16565b9150600081118015611b6457504386600183611b2d9190612a3b565b81548110611b3e57611b3d612a6f565b5b9060005260206000200160000160009054906101000a900463ffffffff1663ffffffff16145b15611bf157611b728261107d565b86600183611b809190612a3b565b81548110611b9157611b90612a6f565b5b9060005260206000200160000160046101000a8154817bffffffffffffffffffffffffffffffffffffffffffffffffffffffff02191690837bffffffffffffffffffffffffffffffffffffffffffffffffffffffff160217905550611ce1565b856040518060400160405280611c06436110e8565b63ffffffff168152602001611c1a8561107d565b7bffffffffffffffffffffffffffffffffffffffffffffffffffffffff168152509080600181540180825580915050600190039060005260206000200160009091909190915060008201518160000160006101000a81548163ffffffff021916908363ffffffff16021790555060208201518160000160046101000a8154817bffffffffffffffffffffffffffffffffffffffffffffffffffffffff02191690837bffffffffffffffffffffffffffffffffffffffffffffffffffffffff16021790555050505b50935093915050565b505050565b611cfa83838361113b565b505050565b8173ffffffffffffffffffffffffffffffffffffffff168373ffffffffffffffffffffffffffffffffffffffff1614158015611d3b5750600081115b15611ef357600073ffffffffffffffffffffffffffffffffffffffff168373ffffffffffffffffffffffffffffffffffffffff1614611e1957600080611dc2600860008773ffffffffffffffffffffffffffffffffffffffff1673ffffffffffffffffffffffffffffffffffffffff16815260200190815260200160002061116b85611a72565b915091508473ffffffffffffffffffffffffffffffffffffffff167fdec2bacdd2f05b59de34da9b523dff8be42e5e38e818c82fdb0bae774387a7248383604051611e0e9291906132ee565b60405180910390a250505b600073ffffffffffffffffffffffffffffffffffffffff168273ffffffffffffffffffffffffffffffffffffffff1614611ef257600080611e9b600860008673ffffffffffffffffffffffffffffffffffffffff1673ffffffffffffffffffffffffffffffffffffffff16815260200190815260200160002061106785611a72565b915091508373ffffffffffffffffffffffffffffffffffffffff167fdec2bacdd2f05b59de34da9b523dff8be42e5e38e818c82fdb0bae774387a7248383604051611ee79291906132ee565b60405180910390a250505b5b505050565b60008383834630604051602001611f13959493929190613317565b6040516020818303038152906040528051906020012090509392505050565b60006002828418611f439190613399565b828416611f509190612979565b905092915050565b60008282604051602001611f6d929190613442565b60405160208183030381529060405280519060200120905092915050565b6000807f7fffffffffffffffffffffffffffffff5d576e7357a4501ddfe92f46681b20a08360001c1115611fc657600060039150915061208e565b601b8560ff1614158015611fde5750601c8560ff1614155b15611ff057600060049150915061208e565b6000600187878787604051600081526020016040526040516120159493929190613479565b6020604051602081039080840390855afa158015612037573d6000803e3d6000fd5b505050602060405103519050600073ffffffffffffffffffffffffffffffffffffffff168173ffffffffffffffffffffffffffffffffffffffff16036120855760006001925092505061208e565b80600092509250505b94509492505050565b600060048111156120ab576120aa6134be565b5b8160048111156120be576120bd6134be565b5b031561226057600160048111156120d8576120d76134be565b5b8160048111156120eb576120ea6134be565b5b0361212b576040517f08c379a000000000000000000000000000000000000000000000000000000000815260040161212290613539565b60405180910390fd5b6002600481111561213f5761213e6134be565b5b816004811115612152576121516134be565b5b03612192576040517f08c379a0000000000000000000000000000000000000000000000000000000008152600401612189906135a5565b60405180910390fd5b600360048111156121a6576121a56134be565b5b8160048111156121b9576121b86134be565b5b036121f9576040517f08c379a00000000000000000000000000000000000000000000000000000000081526004016121f090613637565b60405180910390fd5b60048081111561220c5761220b6134be565b5b81600481111561221f5761221e6134be565b5b0361225f576040517f08c379a0000000000000000000000000000000000000000000000000000000008152600401612256906136c9565b60405180910390fd5b5b50565b6001816000016000828254019250508190555050565b6040518060400160405280600063ffffffff16815260200160007bffffffffffffffffffffffffffffffffffffffffffffffffffffffff1681525090565b600081519050919050565b600082825260208201905092915050565b60005b838110156122f15780820151818401526020810190506122d6565b83811115612300576000848401525b50505050565b6000601f19601f8301169050919050565b6000612322826122b7565b61232c81856122c2565b935061233c8185602086016122d3565b61234581612306565b840191505092915050565b6000602082019050818103600083015261236a8184612317565b905092915050565b600080fd5b600073ffffffffffffffffffffffffffffffffffffffff82169050919050565b60006123a282612377565b9050919050565b6123b281612397565b81146123bd57600080fd5b50565b6000813590506123cf816123a9565b92915050565b6000819050919050565b6123e8816123d5565b81146123f357600080fd5b50565b600081359050612405816123df565b92915050565b6000806040838503121561242257612421612372565b5b6000612430858286016123c0565b9250506020612441858286016123f6565b9150509250929050565b60008115159050919050565b6124608161244b565b82525050565b600060208201905061247b6000830184612457565b92915050565b61248a816123d5565b82525050565b60006020820190506124a56000830184612481565b92915050565b6000806000606084860312156124c4576124c3612372565b5b60006124d2868287016123c0565b93505060206124e3868287016123c0565b92505060406124f4868287016123f6565b9150509250925092565b600060ff82169050919050565b612514816124fe565b82525050565b600060208201905061252f600083018461250b565b92915050565b6000819050919050565b61254881612535565b82525050565b6000602082019050612563600083018461253f565b92915050565b60006020828403121561257f5761257e612372565b5b600061258d848285016123c0565b91505092915050565b61259f81612397565b82525050565b60006020820190506125ba6000830184612596565b92915050565b600063ffffffff82169050919050565b6125d9816125c0565b82525050565b60006020820190506125f460008301846125d0565b92915050565b6000602082840312156126105761260f612372565b5b600061261e848285016123f6565b91505092915050565b612630816124fe565b811461263b57600080fd5b50565b60008135905061264d81612627565b92915050565b61265c81612535565b811461266757600080fd5b50565b60008135905061267981612653565b92915050565b60008060008060008060c0878903121561269c5761269b612372565b5b60006126aa89828a016123c0565b96505060206126bb89828a016123f6565b95505060406126cc89828a016123f6565b94505060606126dd89828a0161263e565b93505060806126ee89828a0161266a565b92505060a06126ff89828a0161266a565b9150509295509295509295565b600080600080600080600060e0888a03121561272b5761272a612372565b5b60006127398a828b016123c0565b975050602061274a8a828b016123c0565b965050604061275b8a828b016123f6565b955050606061276c8a828b016123f6565b945050608061277d8a828b0161263e565b93505060a061278e8a828b0161266a565b92505060c061279f8a828b0161266a565b91505092959891949750929550565b600080604083850312156127c5576127c4612372565b5b60006127d3858286016123c0565b92505060206127e4858286016123c0565b9150509250929050565b6127f7816125c0565b811461280257600080fd5b50565b600081359050612814816127ee565b92915050565b6000806040838503121561283157612830612372565b5b600061283f858286016123c0565b925050602061285085828601612805565b9150509250929050565b612863816125c0565b82525050565b60007bffffffffffffffffffffffffffffffffffffffffffffffffffffffff82169050919050565b61289a81612869565b82525050565b6040820160008201516128b6600085018261285a565b5060208201516128c96020850182612891565b50505050565b60006040820190506128e460008301846128a0565b92915050565b7f4e487b7100000000000000000000000000000000000000000000000000000000600052602260045260246000fd5b6000600282049050600182168061293157607f821691505b602082108103612944576129436128ea565b5b50919050565b7f4e487b7100000000000000000000000000000000000000000000000000000000600052601160045260246000fd5b6000612984826123d5565b915061298f836123d5565b9250827fffffffffffffffffffffffffffffffffffffffffffffffffffffffffffffffff038211156129c4576129c361294a565b5b828201905092915050565b7f4552433230566f7465733a20626c6f636b206e6f7420796574206d696e656400600082015250565b6000612a05601f836122c2565b9150612a10826129cf565b602082019050919050565b60006020820190508181036000830152612a34816129f8565b9050919050565b6000612a46826123d5565b9150612a51836123d5565b925082821015612a6457612a6361294a565b5b828203905092915050565b7f4e487b7100000000000000000000000000000000000000000000000000000000600052603260045260246000fd5b7f45524332303a2064656372656173656420616c6c6f77616e63652062656c6f7760008201527f207a65726f000000000000000000000000000000000000000000000000000000602082015250565b6000612afa6025836122c2565b9150612b0582612a9e565b604082019050919050565b60006020820190508181036000830152612b2981612aed565b9050919050565b7f4552433230566f7465733a207369676e61747572652065787069726564000000600082015250565b6000612b66601d836122c2565b9150612b7182612b30565b602082019050919050565b60006020820190508181036000830152612b9581612b59565b9050919050565b6000608082019050612bb1600083018761253f565b612bbe6020830186612596565b612bcb6040830185612481565b612bd86060830184612481565b95945050505050565b7f4552433230566f7465733a20696e76616c6964206e6f6e636500000000000000600082015250565b6000612c176019836122c2565b9150612c2282612be1565b602082019050919050565b60006020820190508181036000830152612c4681612c0a565b9050919050565b7f45524332305065726d69743a206578706972656420646561646c696e65000000600082015250565b6000612c83601d836122c2565b9150612c8e82612c4d565b602082019050919050565b60006020820190508181036000830152612cb281612c76565b9050919050565b600060c082019050612cce600083018961253f565b612cdb6020830188612596565b612ce86040830187612596565b612cf56060830186612481565b612d026080830185612481565b612d0f60a0830184612481565b979650505050505050565b7f45524332305065726d69743a20696e76616c6964207369676e61747572650000600082015250565b6000612d50601e836122c2565b9150612d5b82612d1a565b602082019050919050565b60006020820190508181036000830152612d7f81612d43565b9050919050565b7f4552433230566f7465733a20746f74616c20737570706c79207269736b73206f60008201527f766572666c6f77696e6720766f74657300000000000000000000000000000000602082015250565b6000612de26030836122c2565b9150612ded82612d86565b604082019050919050565b60006020820190508181036000830152612e1181612dd5565b9050919050565b7f45524332303a206d696e7420746f20746865207a65726f206164647265737300600082015250565b6000612e4e601f836122c2565b9150612e5982612e18565b602082019050919050565b60006020820190508181036000830152612e7d81612e41565b9050919050565b7f53616665436173743a2076616c756520646f65736e27742066697420696e203260008201527f3234206269747300000000000000000000000000000000000000000000000000602082015250565b6000612ee06027836122c2565b9150612eeb82612e84565b604082019050919050565b60006020820190508181036000830152612f0f81612ed3565b9050919050565b7f53616665436173743a2076616c756520646f65736e27742066697420696e203360008201527f3220626974730000000000000000000000000000000000000000000000000000602082015250565b6000612f726026836122c2565b9150612f7d82612f16565b604082019050919050565b60006020820190508181036000830152612fa181612f65565b9050919050565b7f45524332303a20617070726f76652066726f6d20746865207a65726f2061646460008201527f7265737300000000000000000000000000000000000000000000000000000000602082015250565b60006130046024836122c2565b915061300f82612fa8565b604082019050919050565b6000602082019050818103600083015261303381612ff7565b9050919050565b7f45524332303a20617070726f766520746f20746865207a65726f20616464726560008201527f7373000000000000000000000000000000000000000000000000000000000000602082015250565b60006130966022836122c2565b91506130a18261303a565b604082019050919050565b600060208201905081810360008301526130c581613089565b9050919050565b7f45524332303a20696e73756666696369656e7420616c6c6f77616e6365000000600082015250565b6000613102601d836122c2565b915061310d826130cc565b602082019050919050565b60006020820190508181036000830152613131816130f5565b9050919050565b7f45524332303a207472616e736665722066726f6d20746865207a65726f20616460008201527f6472657373000000000000000000000000000000000000000000000000000000602082015250565b60006131946025836122c2565b915061319f82613138565b604082019050919050565b600060208201905081810360008301526131c381613187565b9050919050565b7f45524332303a207472616e7366657220746f20746865207a65726f206164647260008201527f6573730000000000000000000000000000000000000000000000000000000000602082015250565b60006132266023836122c2565b9150613231826131ca565b604082019050919050565b6000602082019050818103600083015261325581613219565b9050919050565b7f45524332303a207472616e7366657220616d6f756e742065786365656473206260008201527f616c616e63650000000000000000000000000000000000000000000000000000602082015250565b60006132b86026836122c2565b91506132c38261325c565b604082019050919050565b600060208201905081810360008301526132e7816132ab565b9050919050565b60006040820190506133036000830185612481565b6133106020830184612481565b9392505050565b600060a08201905061332c600083018861253f565b613339602083018761253f565b613346604083018661253f565b6133536060830185612481565b6133606080830184612596565b9695505050505050565b7f4e487b7100000000000000000000000000000000000000000000000000000000600052601260045260246000fd5b60006133a4826123d5565b91506133af836123d5565b9250826133bf576133be61336a565b5b828204905092915050565b600081905092915050565b7f1901000000000000000000000000000000000000000000000000000000000000600082015250565b600061340b6002836133ca565b9150613416826133d5565b600282019050919050565b6000819050919050565b61343c61343782612535565b613421565b82525050565b600061344d826133fe565b9150613459828561342b565b602082019150613469828461342b565b6020820191508190509392505050565b600060808201905061348e600083018761253f565b61349b602083018661250b565b6134a8604083018561253f565b6134b5606083018461253f565b95945050505050565b7f4e487b7100000000000000000000000000000000000000000000000000000000600052602160045260246000fd5b7f45434453413a20696e76616c6964207369676e61747572650000000000000000600082015250565b60006135236018836122c2565b915061352e826134ed565b602082019050919050565b6000602082019050818103600083015261355281613516565b9050919050565b7f45434453413a20696e76616c6964207369676e6174757265206c656e67746800600082015250565b600061358f601f836122c2565b915061359a82613559565b602082019050919050565b600060208201905081810360008301526135be81613582565b9050919050565b7f45434453413a20696e76616c6964207369676e6174757265202773272076616c60008201527f7565000000000000000000000000000000000000000000000000000000000000602082015250565b60006136216022836122c2565b915061362c826135c5565b604082019050919050565b6000602082019050818103600083015261365081613614565b9050919050565b7f45434453413a20696e76616c6964207369676e6174757265202776272076616c60008201527f7565000000000000000000000000000000000000000000000000000000000000602082015250565b60006136b36022836122c2565b91506136be82613657565b604082019050919050565b600060208201905081810360008301526136e2816136a6565b905091905056fea264697066735822122033488f51737aa5aea076a79f3aa9f9b98cee3763f63fdab786a3fbe64c6ef3a464736f6c634300080d0033a264697066735822122000f06ab4975b0a30b1604732953931bc118e9c694e33d41e9eff213f5e280b1a64736f6c634300080d0033",
  "immutableReferences": {},
  "source": "// SPDX-License-Identifier: MIT\npragma solidity ^0.8.2;\n\n//Check openzeppelin for learning more about input variables like Name, Token Amount, etc. \n//https://docs.openzeppelin.com/contracts/4.x/wizard\n\n//import \"@openzeppelin/contracts/token/ERC20/presets/ERC20PresetMinterPauser.sol\";\n//import \"./EquistartProject.sol\";\nimport \"./ERC20Token.sol\";\n\n\ncontract TokenFactory {\n    \n    event NewTokenCreated(string name, string symbol, uint256 amount, address indexed contractAddr);\n\n    uint numOfProjects;\n\n    struct projectMeta{\n        uint256 id;\n        string projectName;\n        string symbol;\n        uint256 initialSupply;\n        address tokenBeneficiary;\n        address contractAddress;\n    }\n\n    // projectMeta[] public deployedProjects;\n    mapping(uint => projectMeta) private deployedProjects;\n    \n    function createProject(string memory name, string memory symbol, uint initialSupply, address beneficiary) public {\n        uint projectId = numOfProjects++;\n        projectMeta storage project = deployedProjects[projectId];\n        project.id = projectId;\n        project.projectName = name;\n        project.symbol = symbol;\n        project.initialSupply = initialSupply;\n        project.tokenBeneficiary = beneficiary;\n        project.contractAddress = address(new ERC20Token(name, symbol, initialSupply,  beneficiary));\n        emit NewTokenCreated(name, symbol, initialSupply, project.contractAddress);\n        // deployedProjects.push(newProject);\n    }\n    \n    function getAllDeployedProjects () public view returns (projectMeta[] memory props){\n        // return deployedProjects;\n        props = new projectMeta[](numOfProjects);\n        \n        for (uint256 index =0; index< numOfProjects; index++){\n            props[index] = deployedProjects[index];\n        }\n    }\n\n    function getProjectById(uint256 projectId) public view returns (projectMeta memory){\n        return deployedProjects[projectId];\n    }\n}",
  "sourcePath": "/Users/abhinilagarwal/Desktop/equistart/contracts/contracts/TokenFactory.sol",
  "compiler": {
    "name": "solc",
    "version": "0.8.13+commit.abaa5c0e.Emscripten.clang"
  },
  "schemaVersion": "3.4.7",
  "updatedAt": "2022-08-03T13:32:12.569Z",
  "networkType": "ethereum",
  "devdoc": {
    "kind": "dev",
    "methods": {},
    "version": 1
  },
  "userdoc": {
    "kind": "user",
    "methods": {},
    "version": 1
  }
}